:020000040800F2
:10000000D0050020296A00086D6A0008716A00089E
:10001000756A0008796A00087D6A0008000000001F
:10002000000000000000000000000000816A0008DD
:10003000856A000800000000896A0008496A000813
:100040008D6A0008916A0008956A0008996A00089C
:100050009D6A0008A16A0008A56A0008A96A00084C
:10006000AD6A0008B16A0008B56A0008B96A0008FC
:10007000BD6A0008C16A0008C56A0008C96A0008AC
:10008000CD6A0008D16A0008D56A0008D96A00085C
:10009000DD6A0008E16A0008E56A0008E96A00080C
:1000A000ED6A0008F16A0008F56A0008F96A0008BC
:1000B000FD6A0008016B0008056B0008096B000869
:1000C0000D6B0008116B0008156B0008196B000818
:1000D0001D6B0008216B00084D6A0008256B0008A5
:1000E000296B00082D6B0008316B0008356B000888
:1000F000396B00083D6B0008416B0008456B000838
:10010000496B00084D6B0008516B0008556B0008E7
:10011000596B00085D6B0008616B0008656B000897
:10012000696B00086D6B0008716B0008756B000847
:10013000796B00087D6B0008816B0008856B0008F7
:10014000896B00088D6B0008916B0008956B0008A7
:10015000996B00089D6B0008A16B0008A56B000857
:10016000A96B0008AD6B0008B16B0008B56B000807
:10017000B96B0008BD6B0008C16B000800000000EF
:10018000C56B0008C96B00082DE9F04F82460FF2DD
:100190005860A5B015461E46D0E90023CDE91223CC
:1001A00003AF00207960B8620DF1500900E04544CA
:1001B0000020ADF8020012AB4FF0FF3229460DF1DE
:1001C000020001F0AEF88046B8F1010F08DA287895
:1001D000B0F1010868EB08086FEA08004FEAD07830
:1001E000BDF8020025280CBFA8F1010BC346BBF1E6
:1001F000010F0EDB2C4614F8011B7868D04700284D
:10020000786000F0F880B86A401CBBF1010BB8625E
:10021000F1D1BDF80200252807D1002038617861AE
:10022000B861F8613862786205E00028BFD1B86A29
:10023000E2E240F0010015F8011F2029F9D023293E
:100240000DD02B2904D02D2906D030290AD00CE05E
:1002500040F0020080B2EEE740F00400FAE740F020
:100260000800F7E740F01000F4E72A290ED13168C2
:10027000316051F8042B3160002A3A6304D55142B1
:1002800040F00400396380B26D1C13E00021396333
:100290000BE0396B6FF00043994205D001EB81030D
:1002A00002EB4301303939636D1C2A78A2F1300129
:1002B0000A29EED329782E2903D04FF0FF31F962B5
:1002C0001FE015F8011F2A2907D1316831606D1C24
:1002D00051F8042B3160FA6213E00021F9620BE05F
:1002E000F96A6FF00043994205D001EB810302EBFC
:1002F00043013039F9626D1C2A78A2F130010A29D4
:10030000EED3B8860FF2E840297801F01BF808B167
:1003100015F8010B8DF842009DF84200682802BFD5
:1003200029786829622005D06C2804BF28786C28B9
:1003300003D171208DF842006D1C14A8F86015F8E7
:10034000014BB4F125002AD01C3800F0DB80001FDF
:10035000022840F2D780133800F0FB80093800F003
:10036000D180801E00F06581401E00F03C81401E5F
:10037000022840F2C780001F00F03581401F00F0C6
:100380009280401E00F0E580401E37D0C01E0BD08A
:10039000801E00F0DE80C01E00F0DB806CE12520B6
:1003A0008DF85000012070E19DF842006C28306803
:1003B000306016D050F8048B3060C7F80880FC6AB3
:1003C000002C04D5404600F0C9FF044607E0224651
:1003D0000021404600F0DEFF08B1A0EB08047C617C
:1003E00054E150F8042B306002A9504600F03EFA68
:1003F000002840F14B814FF0FF30FDE13168316062
:10040000002251F8040B31604FF03C0E0021CDE981
:10041000020114A8B860DDE902019142FC6808BF3E
:10042000904201D1FA6AC2B100F00F033033DBB25F
:100430003A2BA8BF2733AEF101020009A354964618
:1004400040EA017009090022914208BF904204D09D
:10045000BA6804EB0E039A42E6D304EB0E01B960CE
:10046000CEF13C00F96A7861884207DA081AF8612F
:100470004FF6EF71B88E0840B88607E1002940F1C9
:10048000058197F8341001F01401102940F0FE8026
:10049000396B3A69891AFA69891A081A0128C0F26F
:1004A000F580F861F2E09DF8420062281AD06828D1
:1004B00006D06A280CD06C281CD0712808D019E00E
:1004C0003068306050F8041B3060B86A0880DDE0A6
:1004D0003068306050F8042B3060B86AC117C2E948
:1004E0000001D3E03068306050F8041B3060B86A17
:1004F0000870CBE03068306050F8041B3060B86A98
:100500000860C3E03068C01D20F007023260D2E905
:10051000000108323260CDE90201002902D53869B4
:100520002D2109E0B88E810702D538692B2103E01F
:10053000C00705D53869202109F80010401C386132
:1005400014A839690844B860214602A800F09AFB53
:100550009CE09DF842006C280DD0712818BF6A28D5
:1005600009D13068C01D20F007023260D2E90001D5
:100570000832326005E03168316051F8040B3160B7
:100580000021CDE902019DF84200682803D1DDE990
:10059000020180B20BE0622803D1DDE90201C0B2A2
:1005A00005E0742818BF7A2804D1DDE90201002192
:1005B000CDE9020197F83400000731D5DDE90223C7
:1005C0000020834208BF82422AD044F020007828CD
:1005D00026D13869302109F80010401C411C3961CE
:1005E00009F800401CE09DF84200314600F007F990
:1005F000CDE90201DDE9022300218B4202DA3869EC
:100600002D2109E0B88E810702D538692B2103E03E
:10061000C00705D53869202109F80010401C386151
:1006200014A839690844B860214602A800F0A4FA69
:100630002CE09DF842006C2809D001203861306818
:10064000306050F8041B30608DF850101EE03068A8
:10065000306001AA50F8041B3060ADF8041000208F
:10066000ADF8060002A94FF0FF30F862504600F0E6
:10067000FDF800280AD5BEE625208DF8500001209F
:1006800038611CB189F8014002203861386B396942
:10069000401AF969401A7969401A396A401AB969E9
:1006A000401A796AA0EB010897F83400400711D48A
:1006B0002020B8F1010F8DF800000BDB4446012328
:1006C0006A4602A9504600F007FE00287FF493AE68
:1006D000641EF4D1D7F810B0BBF1000F14AC0DD0EC
:1006E00014F8011B7868D047002878603FF483AE87
:1006F000B86A401CBBF1010BB862F1D130208DF813
:100700000000FC69012C0ADB01236A4602A950465D
:1007100000F0E2FD00287FF46EAE641EF4D1D7F83D
:1007200014B0BC68BBF1000F0DD014F8011B786841
:10073000D047002878603FF45EAEB86A401CBBF139
:10074000010BB862F1D130208DF800003C6A012C19
:100750000ADB01236A4602A9504600F0BDFD0028CD
:100760007FF449AE641EF4D1B8687969D7F818B03F
:100770004418BBF1000F0DD014F8011B7868D04766
:10078000002878603FF437AEB86A401CBBF1010B1B
:10079000B862F1D130208DF800007C6A012C0ADBB0
:1007A00001236A4602A9504600F096FD00287FF416
:1007B00022AE641EF4D197F8340040077FF5F8AC00
:1007C0002020B8F1010F8DF80000FFF6F1AC0123F5
:1007D0006A4602A9504600F07FFD00287FF40BAE68
:1007E000B8F10108F3D1E3E40000000000000000CC
:1007F000686A6C747A4C000025B0BDE8F08F6228FE
:1008000026D068281DD06A2808D06C2827D07128E7
:1008100004D0742823D07A280CD020E00868C01DAA
:1008200020F007000860D0E900230830086019466E
:10083000104670470A680A6052F8040B0A600021EB
:1008400070470A680A6052F8040B0A6000B20BE0B5
:100850000A680A6052F8040B0A6040B204E00A68B1
:100860000A6052F8040B0A60C11770472DE9F44F73
:100870000D4694B0D5F830A0BAF1000F804648BFBD
:100880006FF0004A00F0B2FD696B401801900FF65E
:100890007820D0E90023CDE9022395F838004007FD
:1008A00002D40198412805D240200DF11009019091
:1008B000002609E000F0A0FD5FEA0009F8D14FF042
:1008C000FF3056E1AAEB040ABAF1010FC0F2CE8064
:1008D0001498018802AA0DF1010000F0E5FD00283E
:1008E000044600F1DE801498008810B9641E00F1FF
:1008F000D880A245C0F2BA80686901992218914255
:1009000080F0A2806E634042296A401AA969401AA9
:10091000696A401AE969401AA96A461A95F83800C6
:10092000400710D42020012E8DF800000BDB374645
:1009300001236A462946404600F0CEFC002840F0DC
:10094000B0807F1EF4D1D5F814B0BBF1000F4F4634
:100950000DD017F8011BA868C0470028A86000F058
:10096000A080E86A401CBBF1010BE862F1D13020A5
:100970008DF800002F6A012F0ADB01236A46294601
:10098000404600F0A9FC002840F08B807F1EF4D187
:10099000D5F818B0EF68BBF1000F0CD017F8011BA9
:1009A000A868C0470028A8607BD0E86A401CBBF15B
:1009B000010BE862F2D130208DF800006F6A012F40
:1009C00009DB01236A462946404600F085FC0028E1
:1009D00067D17F1EF5D1E868A969D5F81CB0471822
:1009E000BBF1000F0CD017F8011BA868C047002806
:1009F000A86056D0E86A401CBBF1010BE862F2D156
:100A000030208DF80000AF6A012F09DB01236A4610
:100A10002946404600F060FC002842D17F1EF5D1F7
:100A200095F8380040070DD52020012E8DF80000E4
:100A300008DB01236A462946404600F04DFC80BB96
:100A4000761EF6D100266E61224668690DF101011D
:100A5000484400F037FD6869201868611498801CCC
:100A60001490801E008800287FF42CAF686B6969A1
:100A7000401A296A401AA969401A696A401AE96944
:100A8000401AA96AA0EB010A95F83800400710D473
:100A9000BAF1010F0DDB5446A8682021C047A860B9
:100AA00010B94FF0FF365DE0E86A401C641EE86252
:100AB000F2D16B694A462946404600F00DFC0028F9
:100AC000EFD12C6A012C0ADBA8683021C04700282E
:100AD000A860E6D0E86A401C641EE862F4D1AB6905
:100AE000EA682946404600F0F7FB0028D9D16C6A35
:100AF000012C0ADBA8683021C0470028A860D0D0AC
:100B0000E86A401C641EE862F4D1E868A969EB69F0
:100B100042182946404600F0DFFB0028C1D1AC6AEC
:100B2000012C0ADBA8683021C0470028A860B8D093
:100B3000E86A401C641EE862F4D195F8380040076A
:100B40000ED5BAF1010F0BDBA8682021C0470028A1
:100B5000A860A6D0E86A401CBAF1010AE862F3D1A5
:100B60006E616E6304A881451CBF484600F0E6FC38
:100B7000304615B0BDE8F08F2DE9F3430546084631
:100B80002F696F2808BF082405D041F0200178297B
:100B900014BF0A2410243C26D5E90023642818BF7A
:100BA00069289046994606D100218B4203DAD8F194
:100BB000000869EB49090020814508BF80450CD138
:100BC000286B50B9082C38D195F83800000734D577
:100BD00030203B2687F83B002FE0701E0090064631
:100BE000404649462246E31700F0E8FC02F1300097
:100BF000C0B23A2803DB9DF8041051390818B855E3
:100C0000494640462246E31700F0D8FC8046894614
:100C10000020814508BF804503D0E868B9198842A3
:100C2000DBD3082C09D195F83800000705D5B85D4D
:100C3000302802D0761E3020B855B919E960C6F1C7
:100C40003C00296BA861884208DA081A28624FF62E
:100C5000EF71288F08402887BDE8F38300290ED55F
:100C600095F8381001F01401102908D1696B6A69F0
:100C7000891A2A6A891A0E1A012EA8BF2E62BDE8A7
:100C8000F38300002DE9F24F04468EB0D4E9000151
:100C9000CDE9020104AF9DF8380040F0200BBBF114
:100CA000610F0AD0206B002848BF062004D408BF7B
:100CB000BBF1670F01D1012020636168C1F30A50C5
:100CC00040F2FF7290421CD1080304BF2068002844
:100CD00009D10320A0619DF8380061381A2835D366
:100CE0000FF2386108E00320A0619DF838006138F8
:100CF0001A2828D30FF21C61E068032200F0E2FBFF
:100D0000BDE1012815DA204600F0CFFC012810DBF8
:100D100000250020BBF1610F1FD1E16830220A706D
:100D20008A1CE2609DF83820612A0CBF7822582284
:100D30000FE0626840F2FE3161F31E52451A6260B4
:100D40004FF0FF30E6E70FF2C851D5E70FF2C85178
:100D5000D2E74A706169891C616110B900260025DB
:100D600084E1BBF1610F40F09880206BD4E900ABC7
:100D700000284CBF2126461CDDE902010022002389
:100D800000F0B6FC36B23ABF8BF00040CDE902A0CD
:100D9000CDE902AB06F101082D1FB8F1010F8DF866
:100DA00010200DF1110736DBDDE9020100220023DE
:100DB00000F0B6FC2FD21C2102A800F0C9FCDDE92E
:100DC000020100F04FFDA8F10708B8F1010F8146BC
:100DD00009DB00F073FD02460B46DDE9020100F07D
:100DE00085FDCDE90201F81D072105E009F00F029C
:100DF00000F8012D4FEA2919B9F1010F01DB491E55
:100E0000F4D5491E5CBF002200F8012DF9D5C71D9D
:100E1000B8F1010FC8DA0DF11100391AB142B8BFAB
:100E20000E4636B230000DF111072FD4884206DA93
:100E300004A9014449780829A8BF0F2100DA00213C
:100E400004AA024400E0761E12F80139401E8B42CB
:100E5000F9D00F2904D104A901444A78521C4A70E0
:100E6000002802D504AF761C2D1D36B2701E0DD49D
:100E700039180A783032D2B23A2A03DB9DF838307A
:100E80003A3B9A18401E01F80129F2D5206B002840
:100E900040F1EC80701E2063E8E0DDE902010022F1
:100EA000002300F025FC3CBF81F00041CDE90201A8
:100EB0002DB247F2975068434B49DFF8309190FBD1
:100EC000F1F52DB2C5F1070ABAF1010F90461CDB0E
:100ED000DDE902675FEACA7007D542464B463046F5
:100EE000394600F0C3FD06460F4640464946424695
:100EF0004B464FEA6A0A00F0B9FDBAF1000F80468E
:100F00008946E7D1CDE9026724E0CAF1000A00264C
:100F1000374F14E05FEACA7007D542464B46304669
:100F2000394600F0A3FD06460F4640464946424674
:100F30004B4600F09BFD4FEA6A0A80468946BAF1AB
:100F4000000FE7D1DDE9020132463B4600F060FECA
:100F5000CDE90201BBF1660F216BDFF898900CBF61
:100F600005F10A0006204618142EA8BF13263020CB
:100F70008DF810000DF11107012E3DDBDDE90201B6
:100F800000F086FC07F1080104220A23B0FBF3F30A
:100F900003EB8307A0EB4700303001F8010C0A2077
:100FA000B3FBF0F000EB8007A3EB47033033521E96
:100FB00001F8023DE9D1083E012E01F10807DBDB13
:100FC000DDE9020100F064FC00F082FC02460B4601
:100FD000DDE9020100F08AFC00224B4600F046FDEC
:100FE000CDE90201CAE700BFA0860100000024404D
:100FF0000000F03F84D797410DF11100381A0DF130
:10100000110702E0401E6D1E7F1C39783029F9D08F
:10101000BBF1660F08BF691C04D0BBF1650F0CBFA4
:1010200001210021226B8E1836B2B042B8BF0646AD
:1010300036B231001AD4814204DA785C3528A8BF70
:10104000392000DA30207A18521E00E0761E12F89D
:101050000139491E8342F9D0392802D1785C401CFD
:101060007854002902D57F1E761C6D1C2DB29DF888
:101070003810009533B23A46204600F003F80FB01E
:10108000BDE8F08F2DE9F04786B006468A469046C7
:101090001D4600F006FF012D406A376B90F8009066
:1010A00002DA01250FF278284AF02000BDF9384015
:1010B000662808BF641C12D0672878D114F1040F89
:1010C0007BDBBC4279DA96F83800641C000702D456
:1010D000BD42B8BF2F4624B23F1B48BF002724B2F1
:1010E000F068B169012C23DA4A1C30234354012FE4
:1010F00003DA96F83800000703D5F06800F802908C
:10110000521CE742B8BF7C4224B260427062E719C9
:10111000AF42B261B8BF3D46F068B3692DB2F56128
:101120002A464146184400F0CDF9781BB062BCE075
:1011300022469542084416DA2A46414600F0C2F992
:10114000B1696918601B012FB161706203DA96F80A
:101150003800000705D5F06800F80190F069401CE0
:10116000F061B762A1E0414600F0ACF9B069201827
:101170002D1B012F03DA96F83810090703D5F16803
:1011800001F80090401CB0612DB2AF42B8BF3D469F
:10119000F068B3692DB22A4608EB0401184400F048
:1011A00091F9B0692818B061781B70627DE0BAF1DE
:1011B000610F14D14FF0700A16E0BD4204DA96F8C0
:1011C0003810090758BF2F467F1E48BF0027BAF1C5
:1011D000670F14BF4FF0450A4FF0650A04E0BAF1FB
:1011E000410F08BF4FF0500AB169F368481CB06165
:1011F000012F18F8012B5A5403DA96F83810090712
:1012000017D5F168431CB36101F80090012F10DB82
:101210006D1E2DB2AF42B8BF3D46F0682DB22A46D2
:101220004146184400F04EF9B0692818B061781BA7
:101230007062F068B1690144200081F800A004D414
:101240002B20487001F1020804E02D224A7001F1C0
:1012500002086442002502AF08E00A22684600F056
:1012600039FE019807F8010B6D1C009C21B2012981
:10127000F3DA022D06DA4AF02000652804BF302098
:1012800008F8010B4DB9302008F8010B07E06D1E7E
:1012900002A8405D303008F8010B012DF7DAF06844
:1012A000B1690844A8EB0000F06196F8380000F03E
:1012B000140010280DD17069B1690818716A0818F6
:1012C000F1690818B16A0818716B8842BCBF081A26
:1012D000306206B0BDE8F087F8B504460D46164604
:1012E0001F46002077B116F8011BA868A047A86028
:1012F00030B1E86A401CE86200207F1EF3D1F2BDE5
:101300004FF0FF30F2BD00000000000000000000C0
:101310006E616E004E414E00696E6600494E460099
:101320003000F8B504460D4616461F4600F0DAFDBB
:101330003B4632462946204601B0BDE8F04000F069
:10134000E8BD00000278C9B28A421AB11CBF10F889
:10135000012FF9E718BF00207047000000F10103DA
:10136000810704D010F8011B89B18107FAD1026806
:10137000B2F10131914311F0803F04BF50F8042FC6
:10138000F6E710F8011B11B110F8011BFBE7C01ABA
:1013900070470000C9B2830706D0521E22D310F84E
:1013A000013B9942F7D11FE0083A13D302F104023E
:1013B00041EA012141EA014150F8043B121F21BFDB
:1013C0004B40A3F1013C2CEA030C1CF0803FF3D00E
:1013D000C9B2001F083210F8013B521E28BF91EA23
:1013E000030FF8D818BF0120401E704780B500F0E9
:1013F00079FD012002BD000070B5054605F10F0022
:10140000C408AFF30080E400A54232D2082C04D215
:10141000082402E0083000F091F822480268110028
:101420000CD1011D0A6802B31368A34238BF111D15
:10143000F8D310E01D68A5420DD2191D0B68002BD2
:10144000F8D11268011D00E0191D0B6893420CD001
:101450001D68A542F8D361B10D682A68A2F108039E
:10146000A3420AD26A680A600FE000F075FD002806
:10147000D0D1AFF30080002070BD2B190B60121B80
:101480006E685E600B681A602C60096800291DBFD9
:101490004A68002A091D00210160AFF3008005F1B0
:1014A000080070BD0429002070B504460D4616469C
:1014B00000F018FD324629462046BDE8704000F095
:1014C0001BBD000062B38B0708D0521E11F8013B10
:1014D00000F8013B00F024808B07F6D1830740F031
:1014E000208000BF103A07D330B4B1E83810103A6A
:1014F000A0E83810F9D230BC530724BFB1E8081077
:10150000A0E8081044BF51F8043B40F8043BD20760
:1015100024BF31F8022B20F8022B44BF0B78037054
:101520007047083A07D3B1E80810083A40F8043B7E
:1015300040F804CBF7D25307E4E7000000B9704746
:1015400038B5A0F108042068082833D310F0070F3D
:1015500030D1AFF300801848416809B18C4203D202
:101560006160446017E019464B680BB1A342FAD39F
:101570000B68CD18AC421BD3A54204D12268D21807
:101580000A600C4607E04A681AB1236823449A426D
:101590000ED362604C60616851B12268A3188B421F
:1015A00006D10023036008688018206048686060E6
:1015B000AFF3008031BD0000042900201B4213D18D
:1015C000094236D12AB18446B0FBF2F002FB10C2C8
:1015D000704700F0D7BCFCD30022002370470B00FB
:1015E0000200002100207047904271EB030CF6D3FB
:1015F00070B5B1FA81F4B3FA83F52C1BA340C4F1A2
:10160000200532FA05F63343A2405FF00046E6407B
:1016100002E05B085FEA3202841A71EB030524BF23
:10162000204629467641F4D302000B003000002109
:1016300070BD012ACFD970B5140C20D0B1FA81F455
:10164000B2FA82F5C4F120046419B4F12006D6D3AD
:10165000B2405FF00044F440002502E052085FEA27
:101660003303C61A71EB020E24BF30467146644143
:101670006D41F3D302000B002000290070BD0C4621
:10168000B1FBF2F102FB11452D0445EA1045B5FB13
:10169000F2F402FB145580B240EA0545B5FBF2F0C6
:1016A00002FB105240EA044070BD30B4436803F0BE
:1016B00000420121C3F313034360002B04BF0368FE
:1016C000002B08D10DE00368DD0F45EA44044460B7
:1016D0005B000360491E4468E302F4D5C4F31303BE
:1016E000436043681A434260084630BC70470000BC
:1016F0004FF4001C1CEB410F94BF1CEB430F09E09F
:1017000041EA030C50EA4C0C52EA0C0C03D2994209
:1017100008BF9042704714BF8B428242704700005E
:101720004FF4001C1CEB410F94BF1CEB430F09E06E
:1017300041EA030C50EA4C0C52EA0C0C03D28B42E7
:1017400008BF8242704714BF994290427047000020
:1017500070B504460D466068C0F30A5040F2FF7150
:10176000884207D16068000304BF2068002817D0B2
:10177000022070BD20B92046FFF797FF012866DAE6
:10178000012D0FDB40F2FF71091A8D420AD3606808
:1017900000284CBF9FED2F0B9FED300B84ED000B0D
:1017A000012070BD4142A942616806DA6FF31E5103
:1017B000401941EA0050606040E0401E63684519EE
:1017C000012205F1350062F31F53352801F0004175
:1017D000636003D361600020206070BD002015F1BC
:1017E0001F0F04DA206823600022203562606A42FD
:1017F00012D0401E25688041C2F12003C0439D40A5
:1018000045EAD07025686668D54006FA03F32B4395
:1018100023606368D340636062680A43B0F1004F9D
:10182000626003D80DD12078C0070AD52068401C1B
:101830002060206828B96068401C60604FF0FF306D
:1018400070BD6068884204BF20680028F6D100207F
:1018500070BD00BF000000000000F0FF00000000AD
:101860000000F07FF446400D40EAC120490006D256
:1018700000F014F8004248BF6FF00040604700F0ED
:101880000DF84FF0004188428CBF08464042604747
:10189000400D40EAC120490080F00D8040F000403A
:1018A000490DA1F58061491C05D4D1F11F0154BF38
:1018B000C840C01770474FF000007047010040F16A
:1018C0000980F446404200F005F851F000416047BD
:1018D000010000BF09D0B0FA80F18840C91CC1F5F1
:1018E0008461090501EBD02140057047F0B44FF049
:1018F000004591EA030F44BF6B4000F04FBB00BFAF
:10190000841A71EB030604D26E40001BB141121918
:1019100073414FF4001C1CEB410F34BF7CEB4306BA
:1019200084E00C0DA4EB1356362E7DDC012E43DC37
:1019300045EAC32343EA525312BFD20292025B0824
:10194000240545EAC12141EA5051D2EBC02099411A
:1019500025D407D1B0FA80F610FA06F164D0002041
:10196000203608E0B1FA81F6B140C6F1200220FA33
:1019700002F21143B0404FEAF474B4EB465434F031
:1019800001064FEA74040AD8D6F50016760D04F065
:101990000044F04061FA06F25040F1404840C00A6D
:1019A00040EA415021F0004128BF5FEA500550F164
:1019B000000044EBD12137E045EAC323DB0A45EAC6
:1019C000C121C90AB6F120050EDD42EA0242120C1D
:1019D000C5F1200603FA06F6EB4042EA06056D4221
:1019E000984161F100010DE062FA06F5F2405540C0
:1019F00063FA06FC82EA0C02F3405A406D429041C1
:101A000061EB030111F4801F05D1641E620502D051
:101A10006D004041494121F48011430875F10043B4
:101A200050F1000041EB0451F0BC70471CEB410F3A
:101A300015D223F0004352EA43060BD04FEA4C0C78
:101A4000BCEB410F04D80C0D661E342EB7DDEBE75E
:101A5000801A994150EA410608BF0021E4E708BF17
:101A60001CEB430F28BF6FF00001DDE7B0B581EA42
:101A7000030C0CF0004C40F2FF7515EA11541DBF29
:101A800015EA1357AC42AF4239E0E41923EA455353
:101A900043F48013C90241F0004141EA505EC7029D
:101AA0001100A7FB020200284FF00000EEFB01200E
:101AB0004FF00001E3FB072118BF42F0010240187C
:101AC00000214941E3FB0E01A4F580640F0302D21B
:101AD00052004041494154F101046CDD470872F164
:101AE000004250F1000051EB0451A1F580115CBFA0
:101AF00041EA0C01B0BD4CEA05510020B0BD05EA39
:101B00001357AC4214BFAF4241E050EA410E1CBF34
:101B100052EA430E02E061460020B0BD24423C443C
:101B20001BD15FEA070EF6D0090302BF0146002071
:101B3000AEF1140EB1FA81F7AEEB070401FA07FE1D
:101B40000C37C7F1200100FA07F7C8404EEA000E33
:101B500023EA455343F48013A2E733F00043B3FA7A
:101B600083F704BFB2FA82FE77440B3FE41BB7F160
:101B7000200E2FBF02FA0EF3BB40C7F1200E22FA4F
:101B80000EFE38BF43EA0E03BA40641C82E750EAF7
:101B9000410E14BF52EA430E6FF000014FF40017DC
:101BA00017EB430F8ABF194617EB410FB5E74CEA15
:101BB00005510020B0BDD4F10104B4F120070FDAC3
:101BC000C4F12007520828BF42F0010210FA07F5BD
:101BD00001FA07F7E1BF2A43E0403843E1400FE054
:101BE000352C98DCC7F1200452EA400220FA07F2B3
:101BF00018BF42F0010231FA07F0A1400A43002168
:101C000072F1004250F1000051EB0C01B0BD000038
:101C10002DE9F04140F2FF7581EA030C0CF0004C15
:101C200015EA11541DBF15EA1357AC42AF42E9E063
:101C3000BC41C1F31301C3F31303801A994143F468
:101C4000801304D2641E4000494180185941C902E2
:101C500041EA5051B1FBF3F603FB1611A2FB0675E6
:101C6000D7EBC020A94102D2761E80185941C90283
:101C700041EA5051B1FBF3FE03FB1E11A2FB0E75AE
:101C8000D7EBC020A94103D2AEF1010E8018594113
:101C9000890241EA9051760546EA8E2EB1FBF3F6B1
:101CA00003FB1611A2FB0675D7EB8020A94102D2D7
:101CB000761E80185941C90241EA50514EEA060E7B
:101CC000B1FBF3F603FB1611A2FB0675D7EBC020A0
:101CD000A94102D2761E80185941C90241EA5051E9
:101CE000B1FBF3F703FB1711A2FB0735D3EBC020C1
:101CF000A94167F100070CBF004247F0010766F3F6
:101D0000D5274FEA1E31B80814F5806414DDBD07ED
:101D100075F1004250EB0E5051EB045111F5801F4C
:101D20005CBF41EA0C01BDE8F0814CF07F6141F0FD
:101D3000E0410020BDE8F081BD076D0840EA0E508B
:101D400041F48011D4F10104B4F120060ADAC4F19F
:101D500020060200E04001FA06F3E1401843B240D9
:101D600015430EE0342C14DCC6F1200445EA40058E
:101D70006D0820FA06F2154321FA06F0A1400D4342
:101D8000002175F1004250F1000051EB0C01BDE85B
:101D9000F08100205FEA0C01BDE8F081CFB9921814
:101DA0005B41B3FA83F704BFB2FA82F6BF190B3F67
:101DB000B7F120062FBF02FA06F3BB40C7F1200699
:101DC00022FA06F638BF3343BA401CB1E419641E48
:101DD0002FE77F4231F00041B1FA81F404BFB0FA3D
:101DE00080F6A4190B3CB4F120062FBF00FA06F1CF
:101DF000A140C4F1200620FA06F638BF3143A040C6
:101E00003C1B16E7AC421ABF05EA1357AF4214E079
:101E100050EA41061CBF52EA4306BFE750EA4107B9
:101E2000304661461CBF41EA0551BDE8F08152EAE7
:101E3000430C08BFC143BDE8F08100204FF40016F9
:101E400016EB410F98BF16EB430F08BF16EB410F7F
:101E500024BFC14305E016EB430F0CBF61464CEABB
:101E60000551BDE8F081000080B5134800F000F98D
:101E70000FF24C020FF244010160426241600FF226
:101E80004402826381600FF24402C16001614161DA
:101E900081618162C16201634163C2630164416423
:101EA00001BD10B5044800F0E3F80446206808B905
:101EB000FFF7DAFF204610BDD00000200000000030
:101EC0002E00000066616C73650000007472756519
:101ED0000000000091FBF2F303FB1211C0E9003196
:101EE0007047000080B5DFF80C0000F0C1F8806991
:101EF00002BD00006001002030B430B90FF248008C
:101F0000D0E90045C2E900451BE00170012030BC6A
:101F1000704730B431B90FF23800D0E90045C3E959
:101F200000450EE01AB930BC6FF00100704708B1EF
:101F30000A7802800978481E804130BCC043C00F37
:101F40007047002030BC7047000000000000000017
:101F500000000000000000000749086808B10020E8
:101F600070470648C008C00008600549C908C90094
:101F7000091A0160704700BF0C290020D705002016
:101F8000D007002070470000F0B44FF0004591EA00
:101F9000030C44BF6B40FFF7B3BC00BF841A71EB66
:101FA000030603D2001BB141121973414FF4001C08
:101FB0001CEB410F34BF7CEB430443E00C0DA4EB5E
:101FC0001356352E50DC45EAC323DB0A45EAC1210E
:101FD000C912B6F120050DDD63FA05F6EB4086EA7D
:101FE0000305124218BF45F00105C01851F1000168
:101FF0000CD213E062FA06F5F2405540F3415A4024
:10200000B340F3405A408018594107D349085FEA6A
:1020100030005FEA350528BF45F0010501F5801164
:10202000420875F1004250F1000041EB0451F0BC50
:102030004FF4001C1CEB410F38BF70470020090D06
:10204000090570471CEB410F10D252EA43060BD032
:10205000BCEB410F05D80C0DAB43661E342EB5DD2D
:1020600002E0AB4380185941F0BC7047F0BC7047A8
:1020700070470000DFF8781D486001F1080001F0AA
:10208000A5B80021002001F029B910B540F2531085
:1020900001F06CF904464FF4AA7001F067F940EAC8
:1020A000042010BD00B583B000208DF8000001228F
:1020B0006946C02001F0CBF89DF800008DF80400BF
:1020C000019803B000BDDFF8280D0078704701B516
:1020D00082B09DF808009DF80810C000490000F08B
:1020E000080001F0040108439DF80810490801F0B8
:1020F000020108439DF80810C1F3C00108438DF8A0
:1021000000000020DFF8E81C0870012269468420E6
:1021100000F0EEBB01B501226946802001F071F8A4
:102120009DF80000DFF8C81C00280CBF0120022029
:10213000087001BD80B500220021C12001F061F8C6
:10214000DFF8AC1C0320087001BD11B583B001AAF3
:102150009DF80C00BDF80E10DFF8944C8DF80400CB
:102160009170080A50700222FF208DF800008DF84F
:1021700001006946972001F044F86078022808D1F0
:1021800001208DF8020001220DF10201A32001F0CF
:1021900038F8032201A9832001F033F8042029E054
:1021A00011B583B001AA9DF80C00BDF80E10DFF840
:1021B000404C8DF804009170080A50700222FF20F4
:1021C0008DF800008DF801006946972001F019F89C
:1021D0006078022808D100208DF8020001220DF15C
:1021E0000201A32001F00DF8032201A9822001F0D1
:1021F00008F80520207004B010BD00B583B08DF83C
:102200000000080A8DF801008DF80210100A8DF800
:1022100003008DF8042069460522942000F0F1FFA8
:10222000DFF8CC1B0520087003B000BD80B500228C
:102230000021C52000F0E5FF4EE000220021D12062
:1022400000F0DFBF00220021D22000F0DABF01B58C
:10225000DFF89C1B4870012269468A2066E3DFF89C
:10226000900B40787047000038B5FFF731FB04460B
:102270000D469FED951B9FED960B01F021FB53EC56
:10228000102B0020DFF8741BFFF7C2FC02460B4640
:1022900020462946FFF7BCFCFFF7FAFA010C8DF83F
:1022A00000108DF80200010A8DF801100322694622
:1022B000862000F0A6FF31BD80B512308DF80000F9
:1022C0008DF80110022269468E202FE301B501220C
:1022D0006946882000F095FFDFF8141B062008707F
:1022E00001BD80B58DF800008DF80110022269460D
:1022F0008F201BE330B50446DFF8F45A697883B0C9
:102300002078814207D08DF804006870012201A96D
:102310008A2000F076FF207878B1012818BF0228C3
:1023200013D003281DD0042823D00F2802BF00207B
:10233000ADF800008DF8020024E060788DF8000010
:10234000A1788DF80110E1781AE020798DF800006D
:1023500061798DF80110A1798DF802106079A8706B
:1023600010E0E0798DF80000217A8DF80110617A93
:1023700006E0A07A8DF80000E17A8DF80110217B4B
:102380008DF80210032269468B2000F03AFF03B05B
:1023900030BD10B50446DFF8581A4A7884B020786A
:1023A000824207D08DF808004870012202A98A20D5
:1023B00000F027FF207880B1012818BF022820D024
:1023C000032831D0042843D00F2801BF00200090FB
:1023D000ADF804008DF806004BE060788DF8000041
:1023E000A1788DF80110E1788DF8021021798DF82F
:1023F000031061798DF80410A1798DF80510E17949
:1024000035E0207A8DF80000617A8DF80110A17A0C
:102410008DF80210E17A8DF80310217B8DF80410FD
:1024200000218DF8051022E0607B8DF80000A17B73
:102430008DF80110E17B8DF80210217C8DF80310DE
:10244000617C8DF80410A17C8DF80510E17C0EE014
:10245000207D8DF80000617D8DF80110A17D8DF843
:102460000210E17D8DF803100021ADF804108DF805
:102470000610072269468C2000F0C3FE04B010BD90
:1024800070B582B005460C4602226946172000F05E
:10249000DEFEDFF85C69707801280AD140F603108F
:1024A00000F064FFC00904D040F6011000F05EFFA8
:1024B00005E0707804289DF8000008BF801C287093
:1024C0009DF80100207073BD000000000000324044
:1024D00000000000000000401CB5044605226946CB
:1024E0001D2000F0B4FEDFF808094078207068B1C4
:1024F000012818BF02286BD0032800F0D3800428DD
:1025000000F044810F2800F0A08113BD9DF8000069
:102510004008404260709DF8011049084942A1708E
:102520009DF80220E178920901F0FE0102F001021B
:102530001143E17001F0FD019DF80220520902F003
:10254000010241EA4201E17001F0FB019DF8022025
:10255000120902F0010241EA8201E17001F0F70183
:102560009DF80220D20802F0010241EAC201E170A6
:1025700001F0EF019DF80220920802F0010241EA09
:102580000211E17001F0DF019DF80220520802F013
:10259000010241EA4211E17001F0BF019DF8022001
:1025A00002F0010241EA8211E1709DF803202179D5
:1025B000520901F0FE0102F001021143217101F004
:1025C000FD019DF8032002F0010241EA420134E1DD
:1025D0009DF800004008404260709DF8011080297D
:1025E000B8BF890805DBA1F580714A1001EB927133
:1025F0008910A1709DF80220E178920901F0FE0196
:1026000002F001021143E17001F0FD019DF802208A
:10261000520902F0010241EA4201E17001F0FB01BE
:102620009DF80220120902F0010241EA8201E170E4
:1026300001F0F7019DF80220D20802F0010241EA00
:10264000C201E17001F0EF019DF80220920802F052
:10265000010241EA0211E17001F0DF019DF8022060
:10266000520802F0010241EA4211E17001F0BF019B
:102670009DF8022002F0010241EA8211E1709DF80A
:1026800003202179520901F0FE0102F001021143F9
:10269000217101F0FD019DF8032002F0010241EAE1
:1026A0004201CAE09DF800004008404260709DF879
:1026B000011049084942A1709DF80220E178920971
:1026C00001F0FE0102F001021143E17001F0FD0191
:1026D0009DF80220520902F0010241EA4201E17034
:1026E00001F0FB019DF80220120902F0010241EA0B
:1026F0008201E17001F0F7019DF80220D20802F09A
:10270000010241EAC201E17001F0EF019DF80220EF
:10271000920802F0010241EA0211E17001F0DF01CA
:102720009DF80220520802F0010241EA4211E170D4
:1027300001F0BF019DF8022002F0010241EA82117E
:10274000E17021799DF8032001F0FC0141EA92112A
:10275000217101F0FB019DF80320520902F00102F2
:1027600041EA8201217101F0F7019DF8032012096D
:1027700002F0010241EAC201217101F0EF019DF86E
:10278000032002F0010241EA021156E09DF8000028
:102790004008404260709DF8011049084942A1700C
:1027A0009DF80220E178920901F0FE0102F0010299
:1027B0001143E17001F0FD019DF80220520902F081
:1027C000010241EA4201E17001F0FB019DF80220A3
:1027D000120902F0010241EA8201E17001F0F70101
:1027E0009DF80220D20802F0010241EAC201E17024
:1027F00001F0EF019DF80220920802F0010241EA87
:102800000211E17001F0DF019DF80220520802F090
:10281000010241EA4211E17001F0BF019DF802207E
:1028200002F0010241EA8211E1709DF80320217952
:1028300001F0FE0102F00102114321719DF8040034
:10284000617960F30201617113BD0621204601F038
:1028500057FA0F20207013BD80B500208DF80000BE
:10286000012269461F2000F0F2FC9DF8000040089C
:10287000404240B202BD1CB58DF801008DF8031036
:102880008DF80520040A080A8DF802008DF807303B
:10289000100A8DF804008DF80040180A8DF8060023
:1028A000082269468D2000F0ACFC13BD80B50222E1
:1028B0006946152000F0CBFC9DF800009DF8011042
:1028C00041EA002002BD80B5010A8DF800108DF8A4
:1028D000010002226946972028E001B582B001225A
:1028E0009DF8080000F03F008DF80000694689203F
:1028F00000F087FC03B000BD01B5012269469620B7
:1029000014E000220021D52000F07BBC80B52138E6
:1029100080B2010A8DF800108DF8010003E080B547
:102920000020ADF8000002226946982000F069FC02
:1029300001BD01B5012269469E20F7E701B50122DC
:1029400069469B20F2E70A460146002000F016BDCA
:10295000F8B504460D46164602226946172000F0D7
:1029600076FCDFF82078787801280AD140F6031049
:1029700000F0FCFCC00904D040F6011000F0F6FCA9
:1029800005E0787804289DF8000008BF801C2870B6
:102990002A78964201D20120F2BD9DF8010021461D
:1029A00000F01AFD0020F2BD10B514460A4601469B
:1029B000002000F0E3FC2046BDE81040FFF7C5BB57
:1029C00080B5DFF8C027527822B1032A16D0042A36
:1029D00021D025E00522012804D021D303280AD0E4
:1029E00006D31DE040F6CE1000F05BFC002002BDD7
:1029F00040F6D310F8E740F6D810F5E70422012896
:102A00000BD00DD3032803D00AD240F6D410EBE745
:102A100040F6D910E8E7012802D140F6CF10E3E7ED
:102A2000012002BD38B5044640F6CD15284600F019
:102A30009DFC00F0F00004F00F01014397E080B529
:102A40008DF80100010ADFF83C0740788DF800108E
:102A5000002818BF032805D10222694640F6C81095
:102A600000F01FFC01BD10B50446210E40F6CF104A
:102A700000F034FC2102090E4FF41D6000F02EFC22
:102A80002104090E40F6D11000F028FCE1B2BDE8A7
:102A9000104012E080B58E2140F6CF1000F01EFCF1
:102AA00089214FF41D6000F019FCBE2140F6D110C1
:102AB00000F014FCBDE80440D62140F6D21000F02E
:102AC0000DBC80B58DF80100010ADFF8B80640782A
:102AD0008DF80010002818BF032805D1022269468E
:102AE00040F6C61000F0DDFB01BDDFF8981649780E
:102AF00011B1C91E012904D8014640F6C51000F0E5
:102B0000EDBB704710B540F69F04204600F02EFC48
:102B100040F08001204600F0E1FB40F6950420469D
:102B200000F024FC00F0FE0111E010B540F69F0417
:102B3000204600F01BFC00F07F01204600F0CEFB99
:102B400040F69504204600F011FC40F001012046BB
:102B5000BDE8104000F0C2BB38B5044640F69E0503
:102B6000284600F003FC00F0F00044EA000128468B
:102B7000BDE8344000F0B2BB10B548B101280FD118
:102B800040F69104204600F0F1FB40F0C00106E061
:102B900040F69104204600F0E9FB00F03F01D6E743
:102BA00010BD38B50446DFF8DC05407802280ED1A8
:102BB00040F63115284600F0D9FB00F03F0040EA0E
:102BC00084112846BDE83440C9B200F087BB31BD4E
:102BD00080B5010E8DF800108DF803006946020CD7
:102BE0004A70020ADFF89C0540788A70022804D1F6
:102BF000042240F6161000F054FB01BD80B5010E12
:102C00008DF800108DF803006946020C4A70020A24
:102C1000DFF8700540788A70022804D1042240F65B
:102C2000121000F03EFB01BDF8B5714D04462DEDCC
:102C3000028B6878022882B09FED6E8B40F08F8007
:102C400001208DF8000001226946802000F0D9FAA9
:102C50009DF8000000280CBF01200220287040F6DB
:102C60007F16304600F082FB40F00201304600F053
:102C700035FB40F62416304600F078FB210100F0C9
:102C8000CF0001F030010143304600F027FB40F651
:102C9000611000F06BFB064640F6621000F066FB28
:102CA000000240EA064640F6631000F05FFB064370
:102CB00000208DF8000001226946802000F0A1FA72
:102CC0009DF8000000280CBF01200220042C287071
:102CD00045D8DFE804F00335353507003046FEF708
:102CE000F7FD3AE0B6F5000F28BF06F17F46A87859
:102CF00000270A2808D0182809D026280AD0342806
:102D000008BFDFF8847407E0DFF8807404E0DFF8C0
:102D1000807401E0DFF87C743046FEF7CFFD044696
:102D20000D463846FEF7CAFD02460B4620462946A8
:102D3000FEF76EFF0022DFF86034FEF797FE0CE02E
:102D40003046FEF7C5FD0022DFF85034FEF78EFE58
:102D50000022DFF84C34FEF75BFF41EC180B02B0A9
:102D6000B0EE480AF0EE680ABDEC028BF1BD10B57A
:102D700082B001208DF8000001226946802000F019
:102D800040FA9DF80000DFF8FC1300280CBF01207A
:102D90000220087040F67F14204600F0E7FA40F069
:102DA0000201204600F09AFA40F62414204600F072
:102DB000DDFA00F0CF01204600F090FA40F66410F2
:102DC00000F0D4FA16BD10B50446DFF8B803407819
:102DD00002280BD1210A40F62C1000F07FFAE1B254
:102DE000BDE8104040F62D1000F078BA10BD00008C
:102DF0000C0000200000000000000000A8CB88416B
:102E000038B540F62314204600F0B0FA054645F0E8
:102E10002001204600F062FA05F0DF012046A7E617
:102E20007F28B8BF7F20014640F61E1000F056BA3A
:102E300080B58DF8000001226946A32076E50000E8
:102E400070B5DFF840436078401E01289FED310BDC
:102E50004DD840F6541000F089FA054640F655105A
:102E600000F084FA000240EA054540F6561000F0F2
:102E70007DFA2843C0F31300B0F5002F28BFA0F55A
:102E80008010A17800260A2908D0182909D02629FF
:102E90000AD0342908BFDFF8F06207E0DFF8EC62FF
:102EA00004E0DFF8EC6201E0DFF8E862FEF706FD1F
:102EB000DFF8F022DFF8F032FEF7D8FD04460D46C9
:102EC0003046FEF7FBFC02460B460020DFF8DC1222
:102ED000FEF79EFE0022DFF8D832FEF7C7FD02465D
:102EE0000B4620462946FEF793FE41EC100B70BDC1
:102EF000DFF8C012012008707047AE49002008704A
:102F00007047AC480078002808BF00F007B8704749
:102F100000000000000000000000000070B5994CA7
:102F20002078002882B000F02B8166780222694662
:102F3000152000F08CF99DF800009DF8011041EA81
:102F40000025FF208DF800008DF80100022269465F
:102F5000972000F056F9042E00F21281DFE816F0F7
:102F600005004500C300050005002078042800F096
:102F70008980052840F00481A80718D56068690693
:102F800005D5E0B18169080011D0022008E02907C9
:102F900008D5002800F0F4808169080007D00120DE
:102FA000884704E0B0B14068010018BF8047680757
:102FB00005D5606870B18068010018BF8047280798
:102FC00008D56068002800F0DB80816908001CBF1C
:102FD00001208847680448D56068002800F0D08048
:102FE0004069010041D080473FE02078042849D063
:102FF000C0F0C680062858D080F0C280A8070ED541
:103000006068690606D590B18169080007D0022082
:10301000884704E058B14068010018BF8047E806BF
:1030200005D5606860B1C068010018BF8047A80678
:1030300006D5606870B1816908001CBF0020884710
:10304000680407D56068002800F09A804069010094
:1030500018BF8047E80508D56068002800F0908018
:10306000816908001CBF03208847E80740F1888079
:103070006068002800F084800068010000F0808013
:10308000804773BDE80706D56068002878D00068DF
:10309000010018BF8047680472D5606800286FD0AF
:1030A000006901006CD0804773BDE80411D56068E9
:1030B000A90406D5002863D0016A080060D0012069
:1030C00005E000285CD0016A080059D0002088473C
:1030D00073BD680454D56068002851D04069010070
:1030E0004ED0804773BD2078042837D0052847D1BB
:1030F000E80506D5606868B1C16908001CBF0020FA
:103100008847280506D5606868B1C16908001CBFFA
:1031100001208847280606D5606868B1C1690800A3
:103120001CBF01208847680406D5606840B3C169A8
:1031300008001CBF00208847E80605D56068F8B184
:10314000C068010018BF8047A80619D56068B8B1EB
:103150008169080014D00020884773BD680506D532
:10316000606868B1C16908001CBF02208847A805D3
:1031700006D5606820B1C16908001CBF03208847DC
:1031800073BD00000C00002075190300A8CB1800C7
:10319000D4650C00EA320600A3E1E14000003440AF
:1031A00000005940CDCCCCCCCCCCF83F00009940AD
:1031B00000408F401029002080B54FF400714FF07F
:1031C000904000F07FFE0128F7D001BDFFE780B5F9
:1031D000142000F095FE00224FF480614FF09040E3
:1031E00000F077FE322000F08BFE01224FF4806168
:1031F0004FF0904000F06DFEBDE80240142000F05A
:103200007FBEF8B504460D461646FFF7D5FF0022EF
:103210004FF480714FF0904000F05BFE844F3246D7
:103220003C702946781CFEF74DF9711C89B238466E
:1032300000F08FFE01224FF480714FF0904000F0BB
:1032400048FE842C02D0BDE8F140B5E7F1BDF8B5E9
:10325000774F3870002015467870AE1C28000C4659
:1032600006D03846294600228270401C491EFBD1F8
:103270004FF400714FF0904000F024FE0128F7D089
:1032800000224FF480714FF0904000F022FE4FF486
:1032900080503918B2B2384600F050FE41F20200B8
:1032A0004FE038B51446624D18222A70A870020A01
:1032B0006A70E81C2246FEF705F94FF400714FF0E2
:1032C000904000F0FFFD0128F7D000224FF48071FC
:1032D0004FF0904000F0FDFDE11C69E002B50122D5
:1032E0006946FFF7DEFF01BDF8B50C46504FB870D8
:1032F0001921154639702E1D010A0020F8707970C9
:10330000280006D03846294600220271401C491E7A
:10331000FBD14FF400714FF0904000F0D3FD012835
:10332000F7D000224FF480714FF0904000F0D1FDB3
:103330004FF480503918B2B2384600F0FFFD41F228
:10334000040039182A462046FEF7BCF801224FF443
:1033500080714FF0904000F0BCFD4FF400714FF0D1
:10336000904000F0AFFD0128F7D0F1BD80B50122FB
:103370006946FFF7B9FF9DF8000002BD38B5144655
:103380002B4D1A222A7068702246A81CFEF79AF864
:103390004FF400714FF0904000F094FD0128F7D0F9
:1033A00000224FF480714FF0904000F092FDA11C7C
:1033B00089B2284600F0CDFD01224FF480714FF014
:1033C000904000F086FD4FF400714FF0904000F007
:1033D00079FD0128F7D031BDF8B516460C46F71C2B
:1033E000134D68700020A8701B213000297003D095
:1033F0003146E81C00F084FC4FF400714FF090401F
:1034000000F060FD0128F7D000224FF480714FF0EA
:10341000904000F05EFD4FF480502918BAB2284663
:1034200000F08CFD41F20300291832468BE70000C2
:10343000D00700204FF400714FF0904000F042BDE3
:103440002DE9FF4D2DED088B86B040F2FF710F98EE
:103450009DED100B8DED040BC0F30A50884208D18E
:103460000F980024000305BF0E98002802250125AF
:1034700012E0012807DA0EA8FEF717F9012802DB8F
:103480000024002508E00F9A40F2FE3161F31E523D
:103490000F92441A4FF0FF35002104A800F0A0FE5F
:1034A0001A9F06460FB10020388036B9DDE9102397
:1034B0000020002100F0D4FE12D0002D13D524B23C
:1034C000012C15D1DDE90E230020DFF88C1300F06C
:1034D000C7FE05D0012E0BD1DE4900F0C1FE3ED162
:1034E00006B0CD49E7E1022D04D1DDE90E01E1E1AD
:1034F000012E6FDB022E08BFDDE9100100F0DA813A
:10350000012D2AD10F980028119806D4002854BF05
:103510009FEDD40B9FEDD50BCAE100280ED456B910
:103520004FF0FF3104A800F05BFE002848BF9FED7C
:10353000D10B00F1BD819FEDCB0BB9E156B94FF036
:10354000FF3104A800F04CFE002848BF9FEDB30BEC
:1035500000F1AE819FEDC50BAAE1012E11D11198AA
:10356000002824B206D4012CACBF9FEDBE0B9FED0A
:10357000BF0B9DE1012CACBF9FEDBC0B9FEDB90BC8
:1035800096E11198002810D466B94FF0FF3104A8D5
:1035900000F026FE002842BF0F9800289FED9F0BE9
:1035A00000F186819FEDB10B82E100F069FE2221DE
:1035B000016066B94FF0FF3104A800F011FE002849
:1035C00042BF0F9800289FEDAB0B00F171819FED7A
:1035D000A50B6DE10F98002848BF002E0BD500F019
:1035E0004FFE2121016006B04FF0FF30BDEC088B8B
:1035F0006FF0004161E1DDE90E0100220023FEF7DA
:103600008FF838BF002509D381F00041CDE90E01C4
:103610004FF0FF3104A800F0E3FD0546012C13D163
:10362000DDE90E017F4A804BFEF762F80CD2DDE93E
:103630000E2300204FF08041FEF718FACDE90E016D
:1036400000269FED7A8B1DE0DDE90E2300207949ED
:10365000FEF70CFA9FED788B53EC182BFEF794FCD9
:10366000FEF700F9A0F120063046FEF727F9002208
:10367000734BFEF7FBF953EC182BFEF785FC41EC7E
:10368000180B76010FF258200644DDE90E0153ECC9
:10369000182BFEF72BF9DDE90E2341EC190B51EC49
:1036A000180BFEF771FC02460B4651EC190BFEF7A6
:1036B000AFFA41EC1A0B53EC1A2BFEF7D7F941EC99
:1036C0001B0B8DED0E9B00F0E1FD53EC1B2BFEF769
:1036D000CDF9DDE90E23FEF709F982468B4600207D
:1036E0004D4953EC182BFEF701F900224FF08043AF
:1036F000FEF7BCF952465B46FEF746FC53EC1A2B2C
:10370000FEF7B4F9DDE90E23FEF73EFC41EC180BA1
:103710004C4A4D4BFEF77CFACDE904012046FEF7FA
:10372000CDF841EC190BD6E9000153EC192BFEF74B
:103730002BFCDDE90423FEF727FCCDE90401DDE9DC
:103740001023FEF793F90022404BCDE90201FDF76B
:10375000CFFFC0F0938001223D4BFDF7E1FF40F227
:10376000918000220023FDF7C3FFDDE9022339BF6A
:103770000020384900203849FEF706FCFEF772F8B1
:103780000446D6E9000153EC192BFEF7FDFBDDE9F9
:103790001023FEF76BF982468B462046FEF78EF823
:1037A00002460B4650465946FEF7A0F89FED2BAB5C
:1037B00053EC1A2BFEF75AF982468B46D6E90201E2
:1037C000D6E90423FEF7E0FBDDE91023FEF74EF90E
:1037D00053EC1A2BFEF74AF906468846DDE910013C
:1037E00053EC182BFEF742F932464346FEF7CCFB6A
:1037F00052465B46FEF7C8FBCDE902010FB13C80A3
:10380000002400940022044B02A800F097FDA8B306
:10381000012837D042E000BF0000F03F0000000068
:1038200000000080CD3B7F669EA0E63F00000000C8
:103830000000F03F00005040000000000000E03FAA
:103840000000903FEF39FAFE422EE63F0000E0C054
:103850000000E0400000E0BF0000E03FEF39FAFE6A
:10386000422EE63F000000000000F07F0000000054
:1038700000000000000000000000F0FF0020CDE983
:10388000020007E00020014902E000BF0000F07FD5
:10389000CDE9020100F0F4FC22210160002D1DBFE2
:1038A000DDE9020181F0004141EC100B9DED020BBE
:1038B00051EC100B06B0BDEC088B04B0BDE8F08DE8
:1038C00080B50020009053EC112B51EC100BFFF74A
:1038D000B7FD41EC100B01BD00000000000000002E
:1038E000000000000000F0BF0000000000000080A9
:1038F0000000000000000080000000000000000048
:10390000000000C05294EEBF00000048204E51BE9F
:10391000000000F86467BCBC00000000000000006C
:10392000000000208133EDBF00000080B3DB14BE37
:10393000000000506706A3BC00000000000000006B
:10394000000000D0E9DCEBBF00000008C39259BEC4
:1039500000000080B0D3B8BC0000000000000000F0
:1039600000000070F98FEABF000000C0A51028BE5B
:10397000000000E8BFC0B0BC000000000000000074
:1039800000000070284CE9BF00000060134B42BEED
:10399000000000C03D20B8BC000000000000000096
:1039A00000000050FA10E8BF000000C05FF62BBE18
:1039B000000000905C71A7BC000000000000000047
:1039C00000000020FCDDE6BF000000C0F8F154BE9E
:1039D00000000018E9F6B9BC00000000000000007B
:1039E000000000D0C3B2E5BF00000070E43254BE56
:1039F00000000050DB06B4BC000000000000000026
:103A000000000010EF8EE4BF00000020F36252BE01
:103A1000000000C02A879ABC0000000000000000DF
:103A2000000000B02272E3BF000000F0E8E056BEE4
:103A300000000028352DBDBC000000000000000083
:103A4000000000000A5CE2BF000000B0FA8E41BE38
:103A500000000040AE6FBDBC000000000000000090
:103A600000000000564CE1BF000000F015CD5FBE25
:103A700000000000141C90BC0000000000000000CA
:103A800000000040BD42E0BF00000030F93457BEE6
:103A9000000000E06C1E93BC00000000000000006D
:103AA000000000E0F57DDEBF000000B08A535EBE7E
:103AB00000000080DA77AABC0000000000000000CF
:103AC000000000C09D81DCBF00000000FFA226BEF8
:103AD0000000006057E2B0BC0000000000000000E1
:103AE00000000060F98FDABF000000580A8151BE63
:103AF000000000F05F60B8BC0000000000000000A3
:103B00000000000098A8D8BF000000607A7F45BE82
:103B1000000000D05433A3BC0000000000000000EF
:103B2000000000600FCBD6BF000000D091CB40BE9C
:103B3000000000406D1BA0BC000000000000000061
:103B4000000000A0FBF6D4BF00000098C5CE52BE16
:103B5000000000003A397EBC0000000000000000B8
:103B6000000000E0FE2BD3BF0000004073872BBE97
:103B700000000000926879BC000000000000000016
:103B800000000040C069D1BF00000058F16353BE7F
:103B900000000080438D7CBC00000000000000009D
:103BA00000000080D85FCFBF000000181F8354BE04
:103BB000000000B03F42A2BC000000000000000076
:103BC0000000008067FCCBBF00000060FAFF53BE1E
:103BD00000000050E00DB8BC000000000000000034
:103BE0000000000098A8C8BF000000607A7F35BEC2
:103BF000000000C0543393BC00000000000000002F
:103C000000000000DC63C5BF00000058D6FF54BEB2
:103C100000000000396490BC0000000000000000BB
:103C2000000000C0AD2DC2BF00000080A45915BE29
:103C3000000000E0484BABBC0000000000000000AA
:103C4000000000801A0BBEBF00000050BF3C5ABEEF
:103C5000000000A0B364B6BC00000000000000003B
:103C60000000008004D6B7BF00000040BBCF36BEC6
:103C70000000008076CEA8BC00000000000000001C
:103C80000000008032BBB1BF000000402A0043BEEC
:103C900000000028C60CBDBC0000000000000000B1
:103CA000000000009473A7BF000000182B3B59BE12
:103CB000000000C0E55DA5BC0000000000000000A1
:103CC00000000000EE4397BF000000A0E6C340BE26
:103CD00000000020958DB5BC000000000000000031
:103CE00000000000000000800000000000000080D4
:103CF0000000000000000080000000000000000044
:103D0000002200F07FBC00002DE9F84F0026734A26
:103D1000734BDFF8D0814FF00F092EE0BD402C43EC
:103D200043F82C406FEA0A05146805EA040E4C6853
:103D3000E40348BF4AEA0E0EC2F800E0546805EA00
:103D4000040E4C68A40348BF4AEA0E0EC2F804E011
:103D5000946805EA040E4C68E40248BF4AEA0E0E75
:103D6000C2F808E0D46805EA040C4C68A40248BF15
:103D70004AEA0C0CC2F80CC0761C0D6835FA06F441
:103D800000F09E80012707FA06F414EA050AF3D032
:103D90004FEA460C032505FA0CF56FEA050E4D684F
:103DA000012D18BF022D03D0112D18BF122D0FD1D8
:103DB0008568CF680EEA050507FA0CF73D43856074
:103DC00045684F68C7F30017A543B7403D434560BA
:103DD0004D6805F00307032F07D1C76AC5F3C00577
:103DE00027EA0404B5402C43C462C4688D680EEA17
:103DF000040405FA0CF52C43C4604C68022C18BF6F
:103E0000122C10D1F40800EB8404B500276A05F0E9
:103E10001C0509FA05FB27EA0B07D1F810B00BFACD
:103E200005F53D43256204680EEA04050C7904F0AB
:103E3000030404FA0CF42C4304604C68E4009BD5A2
:103E4000D8F8004044F00104C8F800404FEA960C4E
:103E5000D8F8004004F001040094B500009C53F829
:103E60002C4005F00C0709FA07F5AC43B0F1904F70
:103E700008BF00253FF452AF1B4DA84208BF0125E3
:103E80003FF44CAF194DA84208BF02253FF446AF9E
:103E9000174DA84208BF03253FF440AF154DA84277
:103EA00008BF04253FF43AAF134DA84208BF0525CB
:103EB0003FF434AF114DA8420CBF062507252DE76E
:103EC000BDE8F18F00690840401E8041C043C00F2B
:103ED00070470AB1816170478162704700040140F8
:103EE000080001406010024000040048000800483B
:103EF000000C00480010004800140048001800485A
:103F000038B5044600F0AEFB14F1010F054602D0AF
:103F100004480078241800F0A5FB401BA042FAD307
:103F200031BD00BF0000002001B54FF6FF73012234
:103F30006946A04800F0CFFB009802BD80B54FF065
:103F4000FF33009313460A4601469B4801F062F88E
:103F500001BD0A4601464FF0FF33974800F093BF7A
:103F600080B501F06BFA00F03EF800F079F8924865
:103F7000924901604FF482714160002181604FF4E9
:103F8000E061C1600021016141614FF40071816114
:103F90003021C16100210162416281620721C16259
:103FA00000210163416300F001FF08B172B6FEE732
:103FB0008048834901604FF4E13141600021816014
:103FC000C16001610C21416100218161C161016217
:103FD000416200F04DFB08B172B6FEE701F044FA11
:103FE00001F09CFAFCE700B597B005A8442101F068
:103FF0007BFB68460021002200230EC006C04FF460
:10400000007001F07BFB08B172B6FEE7022005905C
:104010004FF4807008901020099002200F901090AB
:10402000012011900A201290072013900220149072
:10403000159005A801F09CFB08B172B6FEE70F20B1
:10404000009004210320019000200290039004902E
:10405000684601F0F1FD08B172B6FEE717B000BD89
:1040600010B586B001A80021002200230EC006C0B2
:104070005448554C016841F0040101600122016877
:1040800001F0040100910099016841F08001016094
:10409000016801F0800100910099016841F001017F
:1040A0000160016801F0010100910099016841F08F
:1040B00002010160016801F00201009100990168AC
:1040C00041F0080101604FF48071006800F00800C1
:1040D000009000984FF09040FFF7FBFE00224FF455
:1040E00080614FF09040FFF7F4FE4FF400500190D4
:1040F00001A936480290002003902046FFF704FEF5
:1041000003200190029001A9002003903048FFF79E
:10411000FBFD41F6FF70019001A9032002900020F1
:1041200003902046FFF7F0FD40F20120019001A925
:104130000020029003904FF09040FFF7E5FD49F614
:104140001200019001A903200290002003904FF07B
:104150009040FFF7D9FD4FF6F770019003200290D1
:104160000020039001A91B4C2046FFF7CDFD4FF422
:10417000A060019001A9012002900020039004900A
:104180004FF09040FFF7C0FD0420019001A90320EB
:104190000290002003901048FFF7B6FD0820019020
:1041A00001A90020029003902046FFF7ADFD06B064
:1041B00010BD0000D0270020502800200030014012
:1041C000004400404C10024000080048000021104C
:1041D000001C004800040048000C004872B6FEE7CE
:1041E0004268C2F30A5240F2FF739A4209D1416811
:1041F000090304BF0068002801D101207047022094
:10420000704743685B0004BF0368002B25D040F271
:1042100033439A1A521A012A1FDB352A06DB4168FA
:1042200001F0004141600021016013E0012102F032
:104230001F039940491E920607D5426811404A4023
:10424000426002681143002202E0026811404A40C5
:10425000026011B14FF0FF3070470020704700003E
:1042600090420CD141EA030C50EA4C0C07D0994221
:1042700005D14FF4001C1CEB410F38BF8942704739
:104280000148FDF7F5BE0000CC00002080B52DED03
:10429000028B41EC180B53EC182B1A481A49FDF706
:1042A000E5FB1A4A1A4BFDF76FFE53EC182BFDF78E
:1042B000DDFB184A184BFDF767FE53EC182BFDF792
:1042C000D5FB164A164BFDF75FFE53EC182BFDF796
:1042D000CDFB144A144BFDF757FE53EC182BFDF79A
:1042E000C5FB124A124BFDF74FFE53EC182BFDF79E
:1042F000BDFBBDEC028B0F4A0F4BBDE80050FDF734
:1043000043BE0000F7DE29BFD8F8C23FF4B3FECCAD
:104310001A99C33F62CB68D96F46C73FC6C912DA44
:10432000C471CC3F4AE98A942449D23FF75F9799F8
:104330009999D93FBC5555555555E53F2DE9704CD8
:1043400004462DED088B94ED009B43EC182B51ECAB
:10435000190B01F0B3FD064651EC180B01F0AEFD50
:1043600031000E9D06D500284DD4022805D184EDDC
:10437000008B42E1022EF8D121E050B951EC190B2B
:104380000022344BFFF76CFF0FD084ED008B002030
:1043900033E1012818D151EC190B00222E4BFFF705
:1043A0005FFF18BF84ED008B51D1FFF769FF21211A
:1043B00001604FF0FF306FF00041C4E90001BDEC37
:1043C000088B0220BDE8708C7EB984ED008B2946F5
:1043D0002046FDF7BDF9040018BF012C40F00C8108
:1043E000FFF74EFF2221016006E151EC190B00227C
:1043F000184BFFF735FF0DD151EC180BFDF736FBCD
:10440000C4E9000123E051EC190B0022134BFDF726
:104410006FF90BD251EC180B0023FDF727FBC4E911
:104420000001BDEC088B0020BDE8708C01220C4B14
:10443000FDF776F916D851EC180B0022054BFDF765
:1044400015FBC4E90001FFF71BFF222101600120D9
:10445000D3E000BF0000F07F0000F0FF00C89CC068
:1044600000C89C403B4A3C4BFDF700FB0022002368
:10447000FDF73EF934BF9FED390B9FED3A0B53EC3E
:10448000102BFDF781FDFDF7EDF90646FDF716FA55
:1044900041EC1A0B4FF07842344BFDF7E7FA024635
:1044A0000B4651EC190BFDF721FA82468B4653EC73
:1044B0001A2B2F482F49FDF7D9FA02460B465046D2
:1044C0005946FDF713FA4FF0FF322B4BFDF728F951
:1044D00041EC190B05D80022284BFDF709F9C0F073
:1044E0007D8053EC192BFDF7C1FA41EC1A0B244ADD
:1044F000244BFDF7BBFA244A244BFDF745FD53EC52
:104500001A2BFDF7B3FA41EC1B0B51EC1A0B204AA6
:10451000204BFDF7ABFA204A204BFDF735FD53EC5D
:104520001A2BFDF7A3FA00221D4BFDF72DFD53ECCE
:10453000192BFDF79BFA41EC190B51EC1B0B53ECBB
:10454000192BFDF721FD9FED01AB2BE000000000D2
:104550000000F03FFE822B654715F73F000000008A
:104560000000E0BF000000000000E03F422EE63FF8
:10457000F2E4D5BCE7E84B3EFFFF8FBC0000903C67
:10458000112E5781A03F503F5843128C8F71BC3F72
:104590004BE8A541B752013F0BBDF3DAE8708C3F01
:1045A0000000E03F53EC1A2BFDF7EEFC82468B46F1
:1045B00051EC1B0B53EC192BFDF798F953EC1A2B0C
:1045C000FDF7E2FC02460B4650465946FDF720FB3C
:1045D00053EC182BFDF74AFA41EC180B84ED008BD5
:1045E000A9192046FDF7B4F8040018BF012C03D127
:1045F000FFF746FE222101602046BDEC088BBDE896
:10460000708C0000401810F0030308D0C91A1FD3A3
:10461000DB0748BF00F8012D28BF20F8022D13004A
:1046200030B414461546103928BF20E93C00FAD8AA
:10463000490728BF20E90C0048BF40F8042D890035
:1046400028BF20F8022D48BF00F8012D30BC70476C
:10465000C91818BF00F8012DCB0728BF00F8012D9D
:104660007047000001484068704700BF000000200C
:1046700038B5040013D004F17005686818B92870C3
:10468000204601F080FC2420686020680168490809
:1046900049000160204600F08DF9012801D1012078
:1046A00032BD606A10B1204600F0A8FA2068416867
:1046B00021F4904141602068816821F02A01FFE7E0
:1046C00081602068016841F0010101602046BDE879
:1046D000324000F0F6BA2DE9F047054605F17007C3
:1046E00089467868202816469A4640F09880B9F1A5
:1046F000000F14BF002E012000F0928038780128AE
:1047000000F08D800120387005F150040020F86021
:1047100021207860FFF7A6FF268080466680A86883
:10472000B0F5805F04BF286900280EBF00264E4602
:104730004FF000090020387003E001856088401EBA
:1047400060806088002841D02868C169090634D497
:104750001AF1010FF8D0FFF785FFA0EB08008245A2
:104760001DD3BAF1000F1AD0286801684907EBD5AC
:10477000C1690905E8D54FF4006101622868016844
:1047800021F4D0710160286881684908490081607E
:1047900020207860B860F8600020387042E0286817
:1047A000016821F4D07101602868816849084900D6
:1047B000816020207860B860EEE7002E06BF39F8EF
:1047C000021BC1F3080116F8011BB6E72868C0698F
:1047D000400621D41AF1010FF8D0FFF743FFA0EBF8
:1047E000080082450AD3BAF1000F07D02868016893
:1047F0004907EBD5C1690905E8D5BCE72868016818
:1048000021F4D071016028688168490849008160FD
:1048100020207860B860BFE72020786005E00220A3
:10482000BDE8F0870320BDE8F0870020BDE8F087F1
:1048300038B5044640F60F052068C16902688368F0
:104840000D400DD18D0640F18C80950640F1898098
:10485000216E080000F0AD802046BDE834400847D6
:10486000DD0703D4DFF868532A427AD0CD0707D595
:10487000D50505D501250562E06F40F00100E06730
:10488000880708D5D80706D5256802202862E06F7A
:1048900040F00400E067480708D5D80706D525682A
:1048A00004202862E06F40F00200E06708070AD5A4
:1048B000900601D4D80706D5236808201862E06F57
:1048C00040F00800E067080509D5500107D52368C6
:1048D0004FF400601862E06F40F02000E067E06F86
:1048E000002866D0880606D5900604D5216E0800FB
:1048F0001CBF20468847E06F21688A68520602D4B0
:1049000010F0280F27D0086820F490700860206805
:1049100081684908490081602020A0670020206646
:1049200020688168490611D5816821F040018160C5
:10493000E06E58B10FF265418163E06E01F072FBE9
:10494000B8B3E06E816BBDE8344008472046BDE84F
:10495000324001F08DBB204601F08AFB0020E06769
:1049600031BDCD0209D55B0207D54FF4801101623C
:104970002046BDE8324001F07CBB0B0608D513068B
:1049800006D5616E080014D02046BDE834400847C3
:1049900049060ED551060CD5016821F04001016091
:1049A00020206067002060662046BDE8324001F0AC
:1049B00061BB31BD70B50446874A2068016811406B
:1049C000A26811432269114362691143E2691143EC
:1049D000016000254168E26821F4405111434160C3
:1049E000A2697C4988421CBF236A1A43836823F466
:1049F00030631A438260794A904231D1784A126812
:104A000002F00302032A39D8DFE802F00271618460
:104A10000122E069B0F5004F40F0AE80082A00F2B4
:104A2000D180DFE802F005A1A4CFA6CFCFCF0A0046
:104A300001F0D4F9002800F0C68061684A0802EB52
:104A40004000B0FBF1F080B24FF6F071A0F110021F
:104A50008A4280F0B7800140C0F342000843A3E0DF
:104A6000604A904224D15E4A126812F00C0263D070
:104A7000042A3CD0082A2AD00C2A4BD01022884283
:104A8000C7D132B1022A59D0042A59D0082A5AD0A3
:104A900098E001F0A3F9002800F09580626802EB2D
:104AA00042018842C0F08E80110381424ED289E0DB
:104AB0004D4A90420DD14A4A126812F030023BD062
:104AC000102A14D0202A02D0302A23D0D6E702227E
:104AD000D5E7464A90420CD1414A126812F0C00212
:104AE0002AD0402A03D0802AF1D0C02AEDE7042240
:104AF000C5E73F4A90420FD1394A126812F440721A
:104B00001AD0B2F5807FF2D0B2F5007FDFD0B2F5D7
:104B1000407FB3D10822B2E78842AFD1304A126851
:104B200012F4406208D0B2F5806FE0D0B2F5006FA9
:104B3000CDD0B2F5406FC8E70022A0E72D48ADE721
:104B400001F003F9A7E74FF40040A7E7010E56086C
:104B500016EB002069410023FCF730FDA0F5407101
:104B6000254A91422ED21FE001F040F962E7214828
:104B700063E701F0EAF85DE7082A23D8DFE802F0EE
:104B800005171A221C2222221F0001F027F9D0B19A
:104B9000616800EB5100B0FBF1F080B2A0F11001B0
:104BA0004FF6F07291420DD22168C8600BE001F01F
:104BB0001DF9ECE70F48EBE701F0C7F8E7E74FF422
:104BC0000040E5E70125002020666066284670BDAC
:104BD0002001000400800040F369FFEF003801402D
:104BE000881002400044004000480040004C004053
:104BF000005000400024F40000FD0F0090F8241045
:104C0000C90706D501684A68836A22F400321A434C
:104C10004A6090F82410890706D501684A68C36A7B
:104C200022F480321A434A6090F82410490706D5CE
:104C300001684A68036B22F480221A434A6090F8A4
:104C40002410090706D501684A68436B22F4004224
:104C50001A434A6090F82410C90606D501688A688C
:104C6000836B22F480521A438A6090F824108906DC
:104C700006D501688A68C36B22F400521A438A6021
:104C800090F82410490610D501684A68036C22F494
:104C900080121A434A60026CB2F5801F05D14A683F
:104CA000436C22F4C0021A434A6090F824100906AB
:104CB00006D501684A68806C22F4002210434860DF
:104CC000704770B5054605F170040020E060FFF7FD
:104CD000C9FC064628680068000722D52868C06914
:104CE00080021ED4FFF7BEFC801BB0F1007F286855
:104CF00001683DD24907F1D5C1690905EED54FF4E8
:104D0000006101622868016821F4D071016028689F
:104D1000816849084900816020206060A060E060EF
:104D200031E028680068400731D52868C069400232
:104D30002DD4FFF797FC801BB0F1007F2868016835
:104D400016D24907F1D5C1690905EED54FF40061C6
:104D500001622868016821F4D071016028688168C7
:104D600049084900816020206060A060E0600AE09E
:104D700021F4D07101602868816849084900816088
:104D800020206060A06000202070032070BD2020E3
:104D90006060A0600020207070BD0000806A00F19B
:104DA000520100220A810A8001F062B938B504007C
:104DB00001D1012032BD606A30B96068B0F5827FF0
:104DC00005D00020E06102E0002020616061002049
:104DD000A06204F15C05687818B92870204601F0DB
:104DE000A3F8022068702068016821F0400101608A
:104DF000E168B1F5E06F04D90020B1F5706F03D11F
:104E000004E04FF4805001D00021A1626168A268E3
:104E100001F4827102F404421143227C02F0020286
:104E20001143227D02F001021143A26902F40072D3
:104E30001143227F02F03802114394F8202002F03F
:104E400080021143A26A02F40052114322681160E9
:104E5000A16994F82420090C01F0040102F0100269
:104E6000114394F8342002F008021143E26802F47E
:104E70007062114308432168486000206860012087
:104E80006870002032BD2DE9F047064606F1440562
:104E900082B0287E00240128894617469A4608BF1A
:104EA000022000F0B58001202876FFF7DBFB697E49
:104EB0000129804618BF022440F0A580B9F1000FF7
:104EC00018BF002F00F09E8003216976EC61C6F8C0
:104ED0003890B787F78734642C806C80EC60AC60C6
:104EE000B168B1F5004F09D131680A6822F040027B
:104EF0000A6031680A6842F480420A6031680A68D0
:104F0000520603D40A6842F040020A60F2687168EF
:104F1000B2F5E06F26D9002918BF012F0DD1B06B73
:104F200031680088C86002E0B16B0988C160B06B6D
:104F3000801CB063F08F401EF087F08F00284ED0A9
:104F4000306881688907EFD4FFF78CFBA0EB08007D
:104F5000504503D31AF1010FEFD03EE0BAF1000F34
:104F6000EBD13AE0002918BF012F17D1B06B31689F
:104F7000F28F022A02D30088C86009E00078087323
:104F8000B06B401CB063F08F401E06E00988C16022
:104F9000B06B801CB063F08F801EF087F08FF0B193
:104FA0003068816889070BD5B16BF28F022AEDD288
:104FB00009780173B06B401CB063F08F401EECE7C2
:104FC000FFF750FBA0EB0800504503D31AF1010F87
:104FD000E4D002E0BAF1000FE0D1032413E042462E
:104FE0005146304600F098F908B12020E861B068D9
:104FF00030B900903068C1680091806800900098D6
:10500000E86900B101240120687600202876204656
:10501000BDE8F6872DE9F84F044604F14406002563
:10502000307E0128884691461F464FF0010B08BF8D
:10503000022000F00E8186F818B0FFF713FB727E95
:10504000012A824609D06368B3F5827F02BFA36854
:10505000002B042A01D00225F6E0B8F1000F18BF9A
:10506000B9F1000F00D00FB90125EDE0727E042ADE
:105070001CBF05227276F561C4F8409077803780B6
:10508000C4F83880E787A787B560F56040F2017201
:10509000E368934238BF022F04D321684B6823F49E
:1050A000805303E021684B6843F480534B602168D0
:1050B0000B685B0603D40B6843F040030B60E368A6
:1050C0006168DDF82880934243D3002918BF012F7F
:1050D00009D1A06B21680088C860A06B801CA06308
:1050E000E08F401EE087E08F002804BF7088002812
:1050F00000F0A1802068816889070FD5E18F002921
:1051000018BFBBF1000F09D0A16B0988C160AB4685
:10511000A06B801CA063E08F401EE0872068816840
:10512000C9070CD5718851B1C068216C08804FF057
:10513000010B206C801C20647088401E7080FFF77B
:1051400091FAA0EB0A004045CDD318F1010FCAD067
:105150006FE0002918BF012F14D1A06B2168E28FE6
:10516000022A07D30088C860A06B801CA063E08F70
:10517000801E06E000780873A06B401CA063E08FDF
:10518000401EE087E08F002804BF7088002852D0BE
:105190002068816889071AD5E18F002918BFBBF103
:1051A000000F14D0A16BE28F022A07D30988C160D7
:1051B000A06B801CA063E08F801E06E0097801735D
:1051C000A06B401CA063E08F401EE087AB462068C8
:1051D0008168C90720D57188F1B1216C7288022AD3
:1051E00010D3C0680880206C801C20647088801EEA
:1051F0007080708802280DD22068416841F4805187
:10520000416007E0007B0870206C401C20647088BF
:10521000401E70804FF0010BFFF724FAA0EB0A004C
:10522000404503D318F1010FACD002E0B8F1000FF4
:10523000A8D1032508E052464146204600F06CF80C
:1052400010B120200125F061012070760020307619
:105250002846BDE8F28F2DE9F84304460D469146F5
:105260001E46FFF7FFF90899301A0F18FFF7FAF9F1
:105270008046254800684001000D784304E000980E
:1052800000B900270098401E0090206880682840E0
:10529000A8420CBF01200020484534D016F1010F70
:1052A000F3D0FFF7DFF9A0EB0800B84201D2002FDE
:1052B000E5D12068416821F0E00141606068B0F507
:1052C000827F0BD1A068B0F5004F18BFB0F5806F9A
:1052D00004D12068016821F040010160A06AB0F5A6
:1052E000005F09D12068016821F400510160206845
:1052F000016841F40051016004F15C00012141703A
:105300000021017002E004E0880000200320BDE8D5
:10531000F2830020BDE8F2832DE9F04782B0044615
:1053200089461646FFF79EF9A9EB00003718FFF7EC
:1053300099F9DFF804A18046DAF8000023256843D4
:10534000000D784304E0009800B900270098401E43
:1053500000902068806810F4C05F0BD019F1010F35
:10536000F7D0FFF77FF9A0EB0800B84231D2002F49
:10537000E9D12EE000964B46002280212046FFF71F
:105380006AFF10B104F15C004CE0FFF76BF9A9EB88
:1053900000003718FFF766F90646DAF800006843A0
:1053A000000D784304E0009800B900270098401EE3
:1053B00000902068816811F4C06F3AD0007B19F129
:1053C000010FF6D0FFF74EF9801BB84201D2002F33
:1053D000E9D12068416821F0E00141606068B0F5E2
:1053E000827F0BD1A068B0F5004F18BFB0F5806F79
:1053F00004D12068016821F040010160A06AB0F585
:10540000005F09D12068016821F400510160206823
:10541000016841F40051016004F15C000121417018
:1054200000210170416841F0200141600320BDE886
:10543000F6870020BDE8F68788000020094810B5EF
:10544000016841F480710160032000F015FE002026
:1054500000F072FE0024002814BF012400F04EFD6D
:10546000204610BD00200240F8B55F4C5F4D21681A
:105470005F4E05F128008847616B0120884731782D
:10548000301D00F031F90FF2A4110FF26C1000F092
:1054900077FE206B804701460FF2AC1000F070FEE3
:1054A0000FF2CC1000F06CFE00202876EF2068761A
:1054B0000320A8761020E8760020287070206870FD
:1054C0000820A8701020E87020202871142068712E
:1054D0003020A8710020E871A76BB847287EE16BE7
:1054E0008847216C05F118008847616C2846884779
:1054F000A16C40488847E26C002100209047226D53
:1055000000210D209047FDF7F3FC318B646D0023E3
:1055100000220846A0470120B847F1BDF8B5344C39
:10552000314D218B6E6D002300220846B047A96BD8
:105530000FF26016012088470FF27810E96D0068BD
:1055400088470020607002E00A20FEF7D9FCFDF7D2
:10555000ADF90746FDF7B7F93946304600F010FEC1
:10556000F807F1D53946304600F00AFE0FF2481030
:1055700000F006FE2B6E14222146201D98470025C0
:10558000261D17A705E016F8011B384600F0F8FDA8
:105590006D1C20788542F6DB12A000F0F1FD04F1CD
:1055A0001C00BDE8F240FCF797BF11490420487089
:1055B00070470F490120487070470D490520487019
:1055C0000FF2041000F0DCBD09490220487070475A
:1055D0000749032048700FF2001000F0D1BD000011
:1055E00025632C000A000000346700081800002022
:1055F0006400002000214A8F0A0A0D20202020206C
:105600005358313238302050696E6720506F6E67C2
:105610002044656D6F204170706C69636174696FBF
:105620006E2E2025730A0A0D000000004669726D77
:10563000776172652056657273696F6E3A203537EF
:1056400030396465326400000A0A0D2020202020D1
:10565000526164696F206669726D77617265207648
:10566000657273696F6E20307825780A0A0D000024
:105670000A50696E6720506F6E672072756E6E6992
:105680006E6720696E204746534B206D6F64650A34
:105690000D0000002D2D2D2D2D74686520495251CF
:1056A00020737461747573206973203078253034E9
:1056B000780A00000200881372782066696E6973A8
:1056C0006865640A000000003C3E3E3E3E3E3E3EB1
:1056D0003E5458450A0D00005258453C3E3E3E3E61
:1056E0003E3E3E3E0A0D0000002200F05BBD000081
:1056F000DFF87000006800F4C0607047DFF86410E5
:10570000B0F5007F086800F4C0601FD1B0F5007FDD
:1057100025D00868DFF8503020F4C06040F40070F5
:1057200008603222DFF8440000685043A0FB0332D7
:10573000D00C401C00E0401E4A69520501D50028EB
:10574000F9D1486940050AD503207047B0F5806F4C
:1057500005D0086820F4C06040F480600860002034
:10576000704700000070004006BD378688000020AA
:105770002DE9F047040082B000F0A380DFF8FC566A
:10578000A86800F00C09E86800F003062078C0065D
:1057900040F18680B9F1000F04D0B9F10C0F08BFB9
:1057A000012E59D12868800703D5A069002800F090
:1057B0008880286800074FBF2868DFF8D006406857
:1057C000000900F0F001206A814215D200F01AFBB6
:1057D000002876D1286840F0080028602868216AEF
:1057E00020F0F000084328606868E16920F47F40F9
:1057F00040EA0120686018E0286840F0080028604E
:105800002868216A20F0F00008432860B9F1000FF1
:105810006868E16920F47F4040EA0120686004D1B3
:10582000206A00F0EFFA00284BD100F08EFAAA6847
:10583000DFF85C16C2F30312895C01F01F01C84057
:10584000DFF83C160860DFF83C06006800F074FCE6
:10585000010025D0BDE8F687A0690028286833D06C
:1058600040F001002860FEF7FDFE0746286880072B
:1058700005D4FEF7F7FEC01B0328F7D3D6E128684E
:1058800040F0080028602868216A20F0F0000843F2
:1058900028606868E16920F47F4040EA0120686080
:1058A0002078C00753D5B9F1080F04D0B9F10C0F17
:1058B00008BF032E17D12868800348D560680028E8
:1058C00045D10120BDE8F687400840002860FEF77A
:1058D000C9FE074628688007E2D5FEF7C3FEC01B55
:1058E0000328F7D3A2E16068B0F5803F03D12868B0
:1058F00040F4803010E0B0F5A02F286806D140F4C5
:1059000080202860286840F4803005E020F4803052
:105910002860286820F480202860606858B1FEF76D
:10592000A1FE07462868800311D4FEF79BFEC01B2A
:105930006528F7D37AE1FEF795FE074628688003CD
:1059400005D5FEF78FFEC01B6528F7D36EE12078E2
:10595000800714D5B9F1040F04D0B9F10C0F08BFBA
:10596000022E24D12868400502D5E0680028A8D07E
:105970006868216920F0F85040EA0160686020788A
:10598000000745D56069DFF804650028706830D0ED
:1059900040F001007060FEF765FE07467068800702
:1059A00036D4FEF75FFEC01B0328F7D33EE1E06864
:1059B000002828680ED040F480702860FEF752FE60
:1059C000074628684005D3D4FEF74CFEC01B0328C9
:1059D000F7D32BE120F480702860FEF743FE0746E2
:1059E00028684005CBD5FEF73DFEC01B0328F7D342
:1059F0001CE1400840007060FEF734FE0746706806
:105A0000800705D5FEF72EFEC01B0328F7D30DE156
:105A10002078400763D5A86DC0004FF000080AD475
:105A2000A86D40F08050A8654FF00108A86D00F007
:105A3000805000900098DFF85C643068C0050FD497
:105A4000306840F480703060FEF70CFE0746306826
:105A5000C00505D4FEF706FEC01B0328F7D3E5E01A
:105A6000A068DFF82864012803D1306840F0010005
:105A70000FE00528306806D140F00400306030683F
:105A800040F0010005E0400840003060306820F040
:105A900004003060A06868B1FEF7E4FD074641F2FB
:105AA000893A3068800713D4FEF7DCFDC01B5045EF
:105AB000F7D3BBE0FEF7D6FD074641F2893A3068DE
:105AC000800705D5FEF7CEFDC01B5045F7D3ADE0EE
:105AD000B8F1000F03D0A86D20F08050A865A06A2F
