:020000040800F2
:10000000C00500206D700008917000089570000810
:10001000997000089D700008A170000800000000A1
:10002000000000000000000000000000A5700008B3
:10003000A970000800000000AD700008D96F00082A
:10004000B1700008B5700008B9700008BD700008F4
:10005000C1700008C5700008DD6F0008C970000895
:10006000CD700008D1700008D5700008D970000864
:10007000DD700008E1700008E5700008E970000814
:10008000ED700008F1700008F5700008F9700008C4
:10009000FD70000801710008057100080971000871
:1000A0000D71000811710008157100081971000820
:1000B0001D710008217100082571000829710008D0
:1000C0002D71000831710008357100083971000880
:1000D0003D71000841710008E36F00084571000898
:1000E000ED6F0008497100084D710008517100085A
:1000F00055710008597100085D71000861710008B0
:1001000065710008697100086D710008717100085F
:1001100075710008797100087D710008817100080F
:1001200085710008897100088D71000891710008BF
:1001300095710008997100089D710008A17100086F
:10014000A5710008456E0008A9710008AD7100088E
:10015000B1710008B5710008B9710008BD710008DF
:10016000C1710008C5710008C9710008CD7100088F
:10017000D1710008D5710008D97100080000000095
:10018000DD710008E17100082DE9F04F82460FF2A1
:100190005860A5B015461E46D0E90023CDE91223CC
:1001A00003AF00207960B8620DF1500900E04544CA
:1001B0000020ADF8020012AB4FF0FF3229460DF1DE
:1001C000020001F0AEF88046B8F1010F08DA287895
:1001D000B0F1010868EB08086FEA08004FEAD07830
:1001E000BDF8020025280CBFA8F1010BC346BBF1E6
:1001F000010F0EDB2C4614F8011B7868D04700284D
:10020000786000F0F880B86A401CBBF1010BB8625E
:10021000F1D1BDF80200252807D1002038617861AE
:10022000B861F8613862786205E00028BFD1B86A29
:10023000E2E240F0010015F8011F2029F9D023293E
:100240000DD02B2904D02D2906D030290AD00CE05E
:1002500040F0020080B2EEE740F00400FAE740F020
:100260000800F7E740F01000F4E72A290ED13168C2
:10027000316051F8042B3160002A3A6304D55142B1
:1002800040F00400396380B26D1C13E00021396333
:100290000BE0396B6FF00043994205D001EB81030D
:1002A00002EB4301303939636D1C2A78A2F1300129
:1002B0000A29EED329782E2903D04FF0FF31F962B5
:1002C0001FE015F8011F2A2907D1316831606D1C24
:1002D00051F8042B3160FA6213E00021F9620BE05F
:1002E000F96A6FF00043994205D001EB810302EBFC
:1002F00043013039F9626D1C2A78A2F130010A29D4
:10030000EED3B8860FF2E840297801F01BF808B167
:1003100015F8010B8DF842009DF84200682802BFD5
:1003200029786829622005D06C2804BF28786C28B9
:1003300003D171208DF842006D1C14A8F86015F8E7
:10034000014BB4F125002AD01C3800F0DB80001FDF
:10035000022840F2D780133800F0FB80093800F003
:10036000D180801E00F06581401E00F03C81401E5F
:10037000022840F2C780001F00F03581401F00F0C6
:100380009280401E00F0E580401E37D0C01E0BD08A
:10039000801E00F0DE80C01E00F0DB806CE12520B6
:1003A0008DF85000012070E19DF842006C28306803
:1003B000306016D050F8048B3060C7F80880FC6AB3
:1003C000002C04D5404600F0C9FF044607E0224651
:1003D0000021404600F0DEFF08B1A0EB08047C617C
:1003E00054E150F8042B306002A9504600F03EFA68
:1003F000002840F14B814FF0FF30FDE13168316062
:10040000002251F8040B31604FF03C0E0021CDE981
:10041000020114A8B860DDE902019142FC6808BF3E
:10042000904201D1FA6AC2B100F00F033033DBB25F
:100430003A2BA8BF2733AEF101020009A354964618
:1004400040EA017009090022914208BF904204D09D
:10045000BA6804EB0E039A42E6D304EB0E01B960CE
:10046000CEF13C00F96A7861884207DA081AF8612F
:100470004FF6EF71B88E0840B88607E1002940F1C9
:10048000058197F8341001F01401102940F0FE8026
:10049000396B3A69891AFA69891A081A0128C0F26F
:1004A000F580F861F2E09DF8420062281AD06828D1
:1004B00006D06A280CD06C281CD0712808D019E00E
:1004C0003068306050F8041B3060B86A0880DDE0A6
:1004D0003068306050F8042B3060B86AC117C2E948
:1004E0000001D3E03068306050F8041B3060B86A17
:1004F0000870CBE03068306050F8041B3060B86A98
:100500000860C3E03068C01D20F007023260D2E905
:10051000000108323260CDE90201002902D53869B4
:100520002D2109E0B88E810702D538692B2103E01F
:10053000C00705D53869202109F80010401C386132
:1005400014A839690844B860214602A800F09AFB53
:100550009CE09DF842006C280DD0712818BF6A28D5
:1005600009D13068C01D20F007023260D2E90001D5
:100570000832326005E03168316051F8040B3160B7
:100580000021CDE902019DF84200682803D1DDE990
:10059000020180B20BE0622803D1DDE90201C0B2A2
:1005A00005E0742818BF7A2804D1DDE90201002192
:1005B000CDE9020197F83400000731D5DDE90223C7
:1005C0000020834208BF82422AD044F020007828CD
:1005D00026D13869302109F80010401C411C3961CE
:1005E00009F800401CE09DF84200314600F007F990
:1005F000CDE90201DDE9022300218B4202DA3869EC
:100600002D2109E0B88E810702D538692B2103E03E
:10061000C00705D53869202109F80010401C386151
:1006200014A839690844B860214602A800F0A4FA69
:100630002CE09DF842006C2809D001203861306818
:10064000306050F8041B30608DF850101EE03068A8
:10065000306001AA50F8041B3060ADF8041000208F
:10066000ADF8060002A94FF0FF30F862504600F0E6
:10067000FDF800280AD5BEE625208DF8500001209F
:1006800038611CB189F8014002203861386B396942
:10069000401AF969401A7969401A396A401AB969E9
:1006A000401A796AA0EB010897F83400400711D48A
:1006B0002020B8F1010F8DF800000BDB4446012328
:1006C0006A4602A9504600F007FE00287FF493AE68
:1006D000641EF4D1D7F810B0BBF1000F14AC0DD0EC
:1006E00014F8011B7868D047002878603FF483AE87
:1006F000B86A401CBBF1010BB862F1D130208DF813
:100700000000FC69012C0ADB01236A4602A950465D
:1007100000F0E2FD00287FF46EAE641EF4D1D7F83D
:1007200014B0BC68BBF1000F0DD014F8011B786841
:10073000D047002878603FF45EAEB86A401CBBF139
:10074000010BB862F1D130208DF800003C6A012C19
:100750000ADB01236A4602A9504600F0BDFD0028CD
:100760007FF449AE641EF4D1B8687969D7F818B03F
:100770004418BBF1000F0DD014F8011B7868D04766
:10078000002878603FF437AEB86A401CBBF1010B1B
:10079000B862F1D130208DF800007C6A012C0ADBB0
:1007A00001236A4602A9504600F096FD00287FF416
:1007B00022AE641EF4D197F8340040077FF5F8AC00
:1007C0002020B8F1010F8DF80000FFF6F1AC0123F5
:1007D0006A4602A9504600F07FFD00287FF40BAE68
:1007E000B8F10108F3D1E3E40000000000000000CC
:1007F000686A6C747A4C000025B0BDE8F08F6228FE
:1008000026D068281DD06A2808D06C2827D07128E7
:1008100004D0742823D07A280CD020E00868C01DAA
:1008200020F007000860D0E900230830086019466E
:10083000104670470A680A6052F8040B0A600021EB
:1008400070470A680A6052F8040B0A6000B20BE0B5
:100850000A680A6052F8040B0A6040B204E00A68B1
:100860000A6052F8040B0A60C11770472DE9F44F73
:100870000D4694B0D5F830A0BAF1000F804648BFBD
:100880006FF0004A00F0B2FD696B401801900FF65E
:100890007820D0E90023CDE9022395F838004007FD
:1008A00002D40198412805D240200DF11009019091
:1008B000002609E000F0A0FD5FEA0009F8D14FF042
:1008C000FF3056E1AAEB040ABAF1010FC0F2CE8064
:1008D0001498018802AA0DF1010000F0E5FD00283E
:1008E000044600F1DE801498008810B9641E00F1FF
:1008F000D880A245C0F2BA80686901992218914255
:1009000080F0A2806E634042296A401AA969401AA9
:10091000696A401AE969401AA96A461A95F83800C6
:10092000400710D42020012E8DF800000BDB374645
:1009300001236A462946404600F0CEFC002840F0DC
:10094000B0807F1EF4D1D5F814B0BBF1000F4F4634
:100950000DD017F8011BA868C0470028A86000F058
:10096000A080E86A401CBBF1010BE862F1D13020A5
:100970008DF800002F6A012F0ADB01236A46294601
:10098000404600F0A9FC002840F08B807F1EF4D187
:10099000D5F818B0EF68BBF1000F0CD017F8011BA9
:1009A000A868C0470028A8607BD0E86A401CBBF15B
:1009B000010BE862F2D130208DF800006F6A012F40
:1009C00009DB01236A462946404600F085FC0028E1
:1009D00067D17F1EF5D1E868A969D5F81CB0471822
:1009E000BBF1000F0CD017F8011BA868C047002806
:1009F000A86056D0E86A401CBBF1010BE862F2D156
:100A000030208DF80000AF6A012F09DB01236A4610
:100A10002946404600F060FC002842D17F1EF5D1F7
:100A200095F8380040070DD52020012E8DF80000E4
:100A300008DB01236A462946404600F04DFC80BB96
:100A4000761EF6D100266E61224668690DF101011D
:100A5000484400F037FD6869201868611498801CCC
:100A60001490801E008800287FF42CAF686B6969A1
:100A7000401A296A401AA969401A696A401AE96944
:100A8000401AA96AA0EB010A95F83800400710D473
:100A9000BAF1010F0DDB5446A8682021C047A860B9
:100AA00010B94FF0FF365DE0E86A401C641EE86252
:100AB000F2D16B694A462946404600F00DFC0028F9
:100AC000EFD12C6A012C0ADBA8683021C04700282E
:100AD000A860E6D0E86A401C641EE862F4D1AB6905
:100AE000EA682946404600F0F7FB0028D9D16C6A35
:100AF000012C0ADBA8683021C0470028A860D0D0AC
:100B0000E86A401C641EE862F4D1E868A969EB69F0
:100B100042182946404600F0DFFB0028C1D1AC6AEC
:100B2000012C0ADBA8683021C0470028A860B8D093
:100B3000E86A401C641EE862F4D195F8380040076A
:100B40000ED5BAF1010F0BDBA8682021C0470028A1
:100B5000A860A6D0E86A401CBAF1010AE862F3D1A5
:100B60006E616E6304A881451CBF484600F0E6FC38
:100B7000304615B0BDE8F08F2DE9F3430546084631
:100B80002F696F2808BF082405D041F0200178297B
:100B900014BF0A2410243C26D5E90023642818BF7A
:100BA00069289046994606D100218B4203DAD8F194
:100BB000000869EB49090020814508BF80450CD138
:100BC000286B50B9082C38D195F83800000734D577
:100BD00030203B2687F83B002FE0701E0090064631
:100BE000404649462246E31700F0E8FC02F1300097
:100BF000C0B23A2803DB9DF8041051390818B855E3
:100C0000494640462246E31700F0D8FC8046894614
:100C10000020814508BF804503D0E868B9198842A3
:100C2000DBD3082C09D195F83800000705D5B85D4D
:100C3000302802D0761E3020B855B919E960C6F1C7
:100C40003C00296BA861884208DA081A28624FF62E
:100C5000EF71288F08402887BDE8F38300290ED55F
:100C600095F8381001F01401102908D1696B6A69F0
:100C7000891A2A6A891A0E1A012EA8BF2E62BDE8A7
:100C8000F38300002DE9F24F04468EB0D4E9000151
:100C9000CDE9020104AF9DF8380040F0200BBBF114
:100CA000610F0AD0206B002848BF062004D408BF7B
:100CB000BBF1670F01D1012020636168C1F30A50C5
:100CC00040F2FF7290421CD1080304BF2068002844
:100CD00009D10320A0619DF8380061381A2835D366
:100CE0000FF2386108E00320A0619DF838006138F8
:100CF0001A2828D30FF21C61E068032200F0E2FBFF
:100D0000BDE1012815DA204600F0CFFC012810DBF8
:100D100000250020BBF1610F1FD1E16830220A706D
:100D20008A1CE2609DF83820612A0CBF7822582284
:100D30000FE0626840F2FE3161F31E52451A6260B4
:100D40004FF0FF30E6E70FF2C851D5E70FF2C85178
:100D5000D2E74A706169891C616110B900260025DB
:100D600084E1BBF1610F40F09880206BD4E900ABC7
:100D700000284CBF2126461CDDE902010022002389
:100D800000F0B6FC36B23ABF8BF00040CDE902A0CD
:100D9000CDE902AB06F101082D1FB8F1010F8DF866
:100DA00010200DF1110736DBDDE9020100220023DE
:100DB00000F0B6FC2FD21C2102A800F0C9FCDDE92E
:100DC000020100F04FFDA8F10708B8F1010F8146BC
:100DD00009DB00F073FD02460B46DDE9020100F07D
:100DE00085FDCDE90201F81D072105E009F00F029C
:100DF00000F8012D4FEA2919B9F1010F01DB491E55
:100E0000F4D5491E5CBF002200F8012DF9D5C71D9D
:100E1000B8F1010FC8DA0DF11100391AB142B8BFAB
:100E20000E4636B230000DF111072FD4884206DA93
:100E300004A9014449780829A8BF0F2100DA00213C
:100E400004AA024400E0761E12F80139401E8B42CB
:100E5000F9D00F2904D104A901444A78521C4A70E0
:100E6000002802D504AF761C2D1D36B2701E0DD49D
:100E700039180A783032D2B23A2A03DB9DF838307A
:100E80003A3B9A18401E01F80129F2D5206B002840
:100E900040F1EC80701E2063E8E0DDE902010022F1
:100EA000002300F025FC3CBF81F00041CDE90201A8
:100EB0002DB247F2975068434B49DFF8309190FBD1
:100EC000F1F52DB2C5F1070ABAF1010F90461CDB0E
:100ED000DDE902675FEACA7007D542464B463046F5
:100EE000394600F0C3FD06460F4640464946424695
:100EF0004B464FEA6A0A00F0B9FDBAF1000F80468E
:100F00008946E7D1CDE9026724E0CAF1000A00264C
:100F1000374F14E05FEACA7007D542464B46304669
:100F2000394600F0A3FD06460F4640464946424674
:100F30004B4600F09BFD4FEA6A0A80468946BAF1AB
:100F4000000FE7D1DDE9020132463B4600F060FECA
:100F5000CDE90201BBF1660F216BDFF898900CBF61
:100F600005F10A0006204618142EA8BF13263020CB
:100F70008DF810000DF11107012E3DDBDDE90201B6
:100F800000F086FC07F1080104220A23B0FBF3F30A
:100F900003EB8307A0EB4700303001F8010C0A2077
:100FA000B3FBF0F000EB8007A3EB47033033521E96
:100FB00001F8023DE9D1083E012E01F10807DBDB13
:100FC000DDE9020100F064FC00F082FC02460B4601
:100FD000DDE9020100F08AFC00224B4600F046FDEC
:100FE000CDE90201CAE700BFA0860100000024404D
:100FF0000000F03F84D797410DF11100381A0DF130
:10100000110702E0401E6D1E7F1C39783029F9D08F
:10101000BBF1660F08BF691C04D0BBF1650F0CBFA4
:1010200001210021226B8E1836B2B042B8BF0646AD
:1010300036B231001AD4814204DA785C3528A8BF70
:10104000392000DA30207A18521E00E0761E12F89D
:101050000139491E8342F9D0392802D1785C401CFD
:101060007854002902D57F1E761C6D1C2DB29DF888
:101070003810009533B23A46204600F003F80FB01E
:10108000BDE8F08F2DE9F04786B006468A469046C7
:101090001D4600F006FF012D406A376B90F8009066
:1010A00002DA01250FF278284AF02000BDF9384015
:1010B000662808BF641C12D0672878D114F1040F89
:1010C0007BDBBC4279DA96F83800641C000702D456
:1010D000BD42B8BF2F4624B23F1B48BF002724B2F1
:1010E000F068B169012C23DA4A1C30234354012FE4
:1010F00003DA96F83800000703D5F06800F802908C
:10110000521CE742B8BF7C4224B260427062E719C9
:10111000AF42B261B8BF3D46F068B3692DB2F56128
:101120002A464146184400F0CDF9781BB062BCE075
:1011300022469542084416DA2A46414600F0C2F992
:10114000B1696918601B012FB161706203DA96F80A
:101150003800000705D5F06800F80190F069401CE0
:10116000F061B762A1E0414600F0ACF9B069201827
:101170002D1B012F03DA96F83810090703D5F16803
:1011800001F80090401CB0612DB2AF42B8BF3D469F
:10119000F068B3692DB22A4608EB0401184400F048
:1011A00091F9B0692818B061781B70627DE0BAF1DE
:1011B000610F14D14FF0700A16E0BD4204DA96F8C0
:1011C0003810090758BF2F467F1E48BF0027BAF1C5
:1011D000670F14BF4FF0450A4FF0650A04E0BAF1FB
:1011E000410F08BF4FF0500AB169F368481CB06165
:1011F000012F18F8012B5A5403DA96F83810090712
:1012000017D5F168431CB36101F80090012F10DB82
:101210006D1E2DB2AF42B8BF3D46F0682DB22A46D2
:101220004146184400F04EF9B0692818B061781BA7
:101230007062F068B1690144200081F800A004D414
:101240002B20487001F1020804E02D224A7001F1C0
:1012500002086442002502AF08E00A22684600F056
:1012600039FE019807F8010B6D1C009C21B2012981
:10127000F3DA022D06DA4AF02000652804BF302098
:1012800008F8010B4DB9302008F8010B07E06D1E7E
:1012900002A8405D303008F8010B012DF7DAF06844
:1012A000B1690844A8EB0000F06196F8380000F03E
:1012B000140010280DD17069B1690818716A0818F6
:1012C000F1690818B16A0818716B8842BCBF081A26
:1012D000306206B0BDE8F087F8B504460D46164604
:1012E0001F46002077B116F8011BA868A047A86028
:1012F00030B1E86A401CE86200207F1EF3D1F2BDE5
:101300004FF0FF30F2BD00000000000000000000C0
:101310006E616E004E414E00696E6600494E460099
:101320003000F8B504460D4616461F4600F0DAFDBB
:101330003B4632462946204601B0BDE8F04000F069
:10134000E8BD00000278C9B28A421AB11CBF10F889
:10135000012FF9E718BF00207047000000F10103DA
:10136000810704D010F8011B89B18107FAD1026806
:10137000B2F10131914311F0803F04BF50F8042FC6
:10138000F6E710F8011B11B110F8011BFBE7C01ABA
:1013900070470000C9B2830706D0521E22D310F84E
:1013A000013B9942F7D11FE0083A13D302F104023E
:1013B00041EA012141EA014150F8043B121F21BFDB
:1013C0004B40A3F1013C2CEA030C1CF0803FF3D00E
:1013D000C9B2001F083210F8013B521E28BF91EA23
:1013E000030FF8D818BF0120401E704780B500F0E9
:1013F00079FD012002BD000070B5054605F10F0022
:10140000C408AFF30080E400A54232D2082C04D215
:10141000082402E0083000F091F822480268110028
:101420000CD1011D0A6802B31368A34238BF111D15
:10143000F8D310E01D68A5420DD2191D0B68002BD2
:10144000F8D11268011D00E0191D0B6893420CD001
:101450001D68A542F8D361B10D682A68A2F108039E
:10146000A3420AD26A680A600FE000F075FD002806
:10147000D0D1AFF30080002070BD2B190B60121B80
:101480006E685E600B681A602C60096800291DBFD9
:101490004A68002A091D00210160AFF3008005F1B0
:1014A000080070BD482A002070B504460D46164657
:1014B00000F018FD324629462046BDE8704000F095
:1014C0001BBD000062B38B0708D0521E11F8013B10
:1014D00000F8013B00F024808B07F6D1830740F031
:1014E000208000BF103A07D330B4B1E83810103A6A
:1014F000A0E83810F9D230BC530724BFB1E8081077
:10150000A0E8081044BF51F8043B40F8043BD20760
:1015100024BF31F8022B20F8022B44BF0B78037054
:101520007047083A07D3B1E80810083A40F8043B7E
:1015300040F804CBF7D25307E4E7000000B9704746
:1015400038B5A0F108042068082833D310F0070F3D
:1015500030D1AFF300801848416809B18C4203D202
:101560006160446017E019464B680BB1A342FAD39F
:101570000B68CD18AC421BD3A54204D12268D21807
:101580000A600C4607E04A681AB1236823449A426D
:101590000ED362604C60616851B12268A3188B421F
:1015A00006D10023036008688018206048686060E6
:1015B000AFF3008031BD0000482A00201B4213D148
:1015C000094236D12AB18446B0FBF2F002FB10C2C8
:1015D000704700F0D7BCFCD30022002370470B00FB
:1015E0000200002100207047904271EB030CF6D3FB
:1015F00070B5B1FA81F4B3FA83F52C1BA340C4F1A2
:10160000200532FA05F63343A2405FF00046E6407B
:1016100002E05B085FEA3202841A71EB030524BF23
:10162000204629467641F4D302000B003000002109
:1016300070BD012ACFD970B5140C20D0B1FA81F455
:10164000B2FA82F5C4F120046419B4F12006D6D3AD
:10165000B2405FF00044F440002502E052085FEA27
:101660003303C61A71EB020E24BF30467146644143
:101670006D41F3D302000B002000290070BD0C4621
:10168000B1FBF2F102FB11452D0445EA1045B5FB13
:10169000F2F402FB145580B240EA0545B5FBF2F0C6
:1016A00002FB105240EA044070BD30B4436803F0BE
:1016B00000420121C3F313034360002B04BF0368FE
:1016C000002B08D10DE00368DD0F45EA44044460B7
:1016D0005B000360491E4468E302F4D5C4F31303BE
:1016E000436043681A434260084630BC70470000BC
:1016F0004FF4001C1CEB410F94BF1CEB430F09E09F
:1017000041EA030C50EA4C0C52EA0C0C03D2994209
:1017100008BF9042704714BF8B428242704700005E
:101720004FF4001C1CEB410F94BF1CEB430F09E06E
:1017300041EA030C50EA4C0C52EA0C0C03D28B42E7
:1017400008BF8242704714BF994290427047000020
:1017500070B504460D466068C0F30A5040F2FF7150
:10176000884207D16068000304BF2068002817D0B2
:10177000022070BD20B92046FFF797FF012866DAE6
:10178000012D0FDB40F2FF71091A8D420AD3606808
:1017900000284CBF9FED2F0B9FED300B84ED000B0D
:1017A000012070BD4142A942616806DA6FF31E5103
:1017B000401941EA0050606040E0401E63684519EE
:1017C000012205F1350062F31F53352801F0004175
:1017D000636003D361600020206070BD002015F1BC
:1017E0001F0F04DA206823600022203562606A42FD
:1017F00012D0401E25688041C2F12003C0439D40A5
:1018000045EAD07025686668D54006FA03F32B4395
:1018100023606368D340636062680A43B0F1004F9D
:10182000626003D80DD12078C0070AD52068401C1B
:101830002060206828B96068401C60604FF0FF306D
:1018400070BD6068884204BF20680028F6D100207F
:1018500070BD00BF000000000000F0FF00000000AD
:101860000000F07FF446400D40EAC120490006D256
:1018700000F014F8004248BF6FF00040604700F0ED
:101880000DF84FF0004188428CBF08464042604747
:10189000400D40EAC120490080F00D8040F000403A
:1018A000490DA1F58061491C05D4D1F11F0154BF38
:1018B000C840C01770474FF000007047010040F16A
:1018C0000980F446404200F005F851F000416047BD
:1018D000010000BF09D0B0FA80F18840C91CC1F5F1
:1018E0008461090501EBD02140057047F0B44FF049
:1018F000004591EA030F44BF6B4000F04FBB00BFAF
:10190000841A71EB030604D26E40001BB141121918
:1019100073414FF4001C1CEB410F34BF7CEB4306BA
:1019200084E00C0DA4EB1356362E7DDC012E43DC37
:1019300045EAC32343EA525312BFD20292025B0824
:10194000240545EAC12141EA5051D2EBC02099411A
:1019500025D407D1B0FA80F610FA06F164D0002041
:10196000203608E0B1FA81F6B140C6F1200220FA33
:1019700002F21143B0404FEAF474B4EB465434F031
:1019800001064FEA74040AD8D6F50016760D04F065
:101990000044F04061FA06F25040F1404840C00A6D
:1019A00040EA415021F0004128BF5FEA500550F164
:1019B000000044EBD12137E045EAC323DB0A45EAC6
:1019C000C121C90AB6F120050EDD42EA0242120C1D
:1019D000C5F1200603FA06F6EB4042EA06056D4221
:1019E000984161F100010DE062FA06F5F2405540C0
:1019F00063FA06FC82EA0C02F3405A406D429041C1
:101A000061EB030111F4801F05D1641E620502D051
:101A10006D004041494121F48011430875F10043B4
:101A200050F1000041EB0451F0BC70471CEB410F3A
:101A300015D223F0004352EA43060BD04FEA4C0C78
:101A4000BCEB410F04D80C0D661E342EB7DDEBE75E
:101A5000801A994150EA410608BF0021E4E708BF17
:101A60001CEB430F28BF6FF00001DDE7B0B581EA42
:101A7000030C0CF0004C40F2FF7515EA11541DBF29
:101A800015EA1357AC42AF4239E0E41923EA455353
:101A900043F48013C90241F0004141EA505EC7029D
:101AA0001100A7FB020200284FF00000EEFB01200E
:101AB0004FF00001E3FB072118BF42F0010240187C
:101AC00000214941E3FB0E01A4F580640F0302D21B
:101AD00052004041494154F101046CDD470872F164
:101AE000004250F1000051EB0451A1F580115CBFA0
:101AF00041EA0C01B0BD4CEA05510020B0BD05EA39
:101B00001357AC4214BFAF4241E050EA410E1CBF34
:101B100052EA430E02E061460020B0BD24423C443C
:101B20001BD15FEA070EF6D0090302BF0146002071
:101B3000AEF1140EB1FA81F7AEEB070401FA07FE1D
:101B40000C37C7F1200100FA07F7C8404EEA000E33
:101B500023EA455343F48013A2E733F00043B3FA7A
:101B600083F704BFB2FA82FE77440B3FE41BB7F160
:101B7000200E2FBF02FA0EF3BB40C7F1200E22FA4F
:101B80000EFE38BF43EA0E03BA40641C82E750EAF7
:101B9000410E14BF52EA430E6FF000014FF40017DC
:101BA00017EB430F8ABF194617EB410FB5E74CEA15
:101BB00005510020B0BDD4F10104B4F120070FDAC3
:101BC000C4F12007520828BF42F0010210FA07F5BD
:101BD00001FA07F7E1BF2A43E0403843E1400FE054
:101BE000352C98DCC7F1200452EA400220FA07F2B3
:101BF00018BF42F0010231FA07F0A1400A43002168
:101C000072F1004250F1000051EB0C01B0BD000038
:101C10002DE9F04140F2FF7581EA030C0CF0004C15
:101C200015EA11541DBF15EA1357AC42AF42E9E063
:101C3000BC41C1F31301C3F31303801A994143F468
:101C4000801304D2641E4000494180185941C902E2
:101C500041EA5051B1FBF3F603FB1611A2FB0675E6
:101C6000D7EBC020A94102D2761E80185941C90283
:101C700041EA5051B1FBF3FE03FB1E11A2FB0E75AE
:101C8000D7EBC020A94103D2AEF1010E8018594113
:101C9000890241EA9051760546EA8E2EB1FBF3F6B1
:101CA00003FB1611A2FB0675D7EB8020A94102D2D7
:101CB000761E80185941C90241EA50514EEA060E7B
:101CC000B1FBF3F603FB1611A2FB0675D7EBC020A0
:101CD000A94102D2761E80185941C90241EA5051E9
:101CE000B1FBF3F703FB1711A2FB0735D3EBC020C1
:101CF000A94167F100070CBF004247F0010766F3F6
:101D0000D5274FEA1E31B80814F5806414DDBD07ED
:101D100075F1004250EB0E5051EB045111F5801F4C
:101D20005CBF41EA0C01BDE8F0814CF07F6141F0FD
:101D3000E0410020BDE8F081BD076D0840EA0E508B
:101D400041F48011D4F10104B4F120060ADAC4F19F
:101D500020060200E04001FA06F3E1401843B240D9
:101D600015430EE0342C14DCC6F1200445EA40058E
:101D70006D0820FA06F2154321FA06F0A1400D4342
:101D8000002175F1004250F1000051EB0C01BDE85B
:101D9000F08100205FEA0C01BDE8F081CFB9921814
:101DA0005B41B3FA83F704BFB2FA82F6BF190B3F67
:101DB000B7F120062FBF02FA06F3BB40C7F1200699
:101DC00022FA06F638BF3343BA401CB1E419641E48
:101DD0002FE77F4231F00041B1FA81F404BFB0FA3D
:101DE00080F6A4190B3CB4F120062FBF00FA06F1CF
:101DF000A140C4F1200620FA06F638BF3143A040C6
:101E00003C1B16E7AC421ABF05EA1357AF4214E079
:101E100050EA41061CBF52EA4306BFE750EA4107B9
:101E2000304661461CBF41EA0551BDE8F08152EAE7
:101E3000430C08BFC143BDE8F08100204FF40016F9
:101E400016EB410F98BF16EB430F08BF16EB410F7F
:101E500024BFC14305E016EB430F0CBF61464CEABB
:101E60000551BDE8F081000080B5134800F000F98D
:101E70000FF24C020FF244010160426241600FF226
:101E80004402826381600FF24402C16001614161DA
:101E900081618162C16201634163C2630164416423
:101EA00001BD10B5044800F0E3F80446206808B905
:101EB000FFF7DAFF204610BDC4000020000000003C
:101EC0002E00000066616C73650000007472756519
:101ED0000000000091FBF2F303FB1211C0E9003196
:101EE0007047000080B5DFF80C0000F0C1F8806991
:101EF00002BD00005401002030B430B90FF2480098
:101F0000D0E90045C2E900451BE00170012030BC6A
:101F1000704730B431B90FF23800D0E90045C3E959
:101F200000450EE01AB930BC6FF00100704708B1EF
:101F30000A7802800978481E804130BCC043C00F37
:101F40007047002030BC7047000000000000000017
:101F500000000000000000000749086808B10020E8
:101F600070470648C008C00008600549C908C90094
:101F7000091A0160704700BF502A0020C7050020E1
:101F8000C007002070470000F0B44FF0004591EA10
:101F9000030C44BF6B40FFF7B3BC00BF841A71EB66
:101FA000030603D2001BB141121973414FF4001C08
:101FB0001CEB410F34BF7CEB430443E00C0DA4EB5E
:101FC0001356352E50DC45EAC323DB0A45EAC1210E
:101FD000C912B6F120050DDD63FA05F6EB4086EA7D
:101FE0000305124218BF45F00105C01851F1000168
:101FF0000CD213E062FA06F5F2405540F3415A4024
:10200000B340F3405A408018594107D349085FEA6A
:1020100030005FEA350528BF45F0010501F5801164
:10202000420875F1004250F1000041EB0451F0BC50
:102030004FF4001C1CEB410F38BF70470020090D06
:10204000090570471CEB410F10D252EA43060BD032
:10205000BCEB410F05D80C0DAB43661E342EB5DD2D
:1020600002E0AB4380185941F0BC7047F0BC7047A8
:1020700070470000DFF86C1D886001F10C0001F072
:102080009DB80021002001F04EB910B540F2531068
:1020900001F091F904464FF4AA7001F08CF940EA7E
:1020A000042010BD00B583B000208DF8000001228F
:1020B0006946C02001F0F0F89DF800008DF804009A
:1020C000019803B000BDDFF81C0D0078704701B522
:1020D00082B09DF808009DF80810C000490000F08B
:1020E000080001F0040108439DF80810490801F0B8
:1020F000020108439DF80810C1F3C00108438DF8A0
:1021000000000020DFF8DC1C0870012269468420F2
:1021100000F0EEBB01B501226946802001F08BF88A
:102120009DF80000DFF8BC1C00280CBF0120022035
:10213000087001BD80B500220021C12001F07BF8AC
:10214000DFF8A01C0320087001BD11B583B001AAFF
:102150009DF80C00BDF80E10DFF8884C8DF80400D7
:102160009170080A50700222FF208DF800008DF84F
:1021700001006946972001F05EF86078022808D1D6
:1021800001208DF8020001220DF10201A32001F0CF
:1021900052F8032201A9832001F04DF8042029E020
:1021A00011B583B001AA9DF80C00BDF80E10DFF840
:1021B000344C8DF804009170080A50700222FF2000
:1021C0008DF800008DF801006946972001F033F882
:1021D0006078022808D100208DF8020001220DF15C
:1021E0000201A32001F027F8032201A9822001F0B7
:1021F00022F80520207004B010BD00B583B08DF822
:102200000000080A8DF801008DF80210100A8DF800
:1022100003008DF8042069460522942001F00BF894
:10222000DFF8C01B0520087003B000BD80B5002298
:102230000021C52000F0FFFF4EE000220021D12048
:1022400000F0F9BF00220021D22000F0F4BF01B558
:10225000DFF8901B4870012269468A2066E3DFF8A8
:10226000840B40787047000038B5FFF731FB044617
:102270000D469FED951B9FED960B01F051FB53EC26
:10228000102B0020DFF8681BFFF7C2FC02460B464C
:1022900020462946FFF7BCFCFFF7FAFA010C8DF83F
:1022A00000108DF80200010A8DF801100322694622
:1022B000862000F0C0FF31BD80B512308DF80000DF
:1022C0008DF80110022269468E202FE301B501220C
:1022D0006946882000F0AFFFDFF8081B0620087071
:1022E00001BD80B58DF800008DF80110022269460D
:1022F0008F201BE330B50446DFF8E85A697883B0D5
:102300002078814207D08DF804006870012201A96D
:102310008A2000F090FF207878B1012818BF0228A9
:1023200013D003281DD0042823D00F2802BF00207B
:10233000ADF800008DF8020024E060788DF8000010
:10234000A1788DF80110E1781AE020798DF800006D
:1023500061798DF80110A1798DF802106079A8706B
:1023600010E0E0798DF80000217A8DF80110617A93
:1023700006E0A07A8DF80000E17A8DF80110217B4B
:102380008DF80210032269468B2000F054FF03B041
:1023900030BD10B50446DFF84C1A4A7884B0207876
:1023A000824207D08DF808004870012202A98A20D5
:1023B00000F041FF207880B1012818BF022820D00A
:1023C000032831D0042843D00F2801BF00200090FB
:1023D000ADF804008DF806004BE060788DF8000041
:1023E000A1788DF80110E1788DF8021021798DF82F
:1023F000031061798DF80410A1798DF80510E17949
:1024000035E0207A8DF80000617A8DF80110A17A0C
:102410008DF80210E17A8DF80310217B8DF80410FD
:1024200000218DF8051022E0607B8DF80000A17B73
:102430008DF80110E17B8DF80210217C8DF80310DE
:10244000617C8DF80410A17C8DF80510E17C0EE014
:10245000207D8DF80000617D8DF80110A17D8DF843
:102460000210E17D8DF803100021ADF804108DF805
:102470000610072269468C2000F0DDFE04B010BD76
:1024800070B582B005460C4602226946172000F05E
:1024900003FFDFF85069707801280AD140F6031075
:1024A00000F089FFC00904D040F6011000F083FF5E
:1024B00005E0707804289DF8000008BF801C287093
:1024C0009DF80100207073BD000000000000324044
:1024D00000000000000000401CB5044605226946CB
:1024E0001D2000F0D9FEDFF8FC084078207068B1AC
:1024F000012818BF02286BD0032800F0D3800428DD
:1025000000F044810F2800F0A08113BD9DF8000069
:102510004008404260709DF8011049084942A1708E
:102520009DF80220E178920901F0FE0102F001021B
:102530001143E17001F0FD019DF80220520902F003
:10254000010241EA4201E17001F0FB019DF8022025
:10255000120902F0010241EA8201E17001F0F70183
:102560009DF80220D20802F0010241EAC201E170A6
:1025700001F0EF019DF80220920802F0010241EA09
:102580000211E17001F0DF019DF80220520802F013
:10259000010241EA4211E17001F0BF019DF8022001
:1025A00002F0010241EA8211E1709DF803202179D5
:1025B000520901F0FE0102F001021143217101F004
:1025C000FD019DF8032002F0010241EA420134E1DD
:1025D0009DF800004008404260709DF8011080297D
:1025E000B8BF890805DBA1F580714A1001EB927133
:1025F0008910A1709DF80220E178920901F0FE0196
:1026000002F001021143E17001F0FD019DF802208A
:10261000520902F0010241EA4201E17001F0FB01BE
:102620009DF80220120902F0010241EA8201E170E4
:1026300001F0F7019DF80220D20802F0010241EA00
:10264000C201E17001F0EF019DF80220920802F052
:10265000010241EA0211E17001F0DF019DF8022060
:10266000520802F0010241EA4211E17001F0BF019B
:102670009DF8022002F0010241EA8211E1709DF80A
:1026800003202179520901F0FE0102F001021143F9
:10269000217101F0FD019DF8032002F0010241EAE1
:1026A0004201CAE09DF800004008404260709DF879
:1026B000011049084942A1709DF80220E178920971
:1026C00001F0FE0102F001021143E17001F0FD0191
:1026D0009DF80220520902F0010241EA4201E17034
:1026E00001F0FB019DF80220120902F0010241EA0B
:1026F0008201E17001F0F7019DF80220D20802F09A
:10270000010241EAC201E17001F0EF019DF80220EF
:10271000920802F0010241EA0211E17001F0DF01CA
:102720009DF80220520802F0010241EA4211E170D4
:1027300001F0BF019DF8022002F0010241EA82117E
:10274000E17021799DF8032001F0FC0141EA92112A
:10275000217101F0FB019DF80320520902F00102F2
:1027600041EA8201217101F0F7019DF8032012096D
:1027700002F0010241EAC201217101F0EF019DF86E
:10278000032002F0010241EA021156E09DF8000028
:102790004008404260709DF8011049084942A1700C
:1027A0009DF80220E178920901F0FE0102F0010299
:1027B0001143E17001F0FD019DF80220520902F081
:1027C000010241EA4201E17001F0FB019DF80220A3
:1027D000120902F0010241EA8201E17001F0F70101
:1027E0009DF80220D20802F0010241EAC201E17024
:1027F00001F0EF019DF80220920802F0010241EA87
:102800000211E17001F0DF019DF80220520802F090
:10281000010241EA4211E17001F0BF019DF802207E
:1028200002F0010241EA8211E1709DF80320217952
:1028300001F0FE0102F00102114321719DF8040034
:10284000617960F30201617113BD0621204601F038
:1028500087FA0F20207013BD80B500208DF800008E
:10286000012269461F2000F017FD9DF80000400876
:10287000404240B202BD1CB58DF801008DF8031036
:102880008DF80520040A080A8DF802008DF807303B
:10289000100A8DF804008DF80040180A8DF8060023
:1028A000082269468D2000F0C6FC13BD80B50222C7
:1028B0006946152000F0F0FC9DF800009DF801101D
:1028C00041EA002002BD80B5010A8DF800108DF8A4
:1028D000010002226946972028E001B582B001225A
:1028E0009DF8080000F03F008DF80000694689203F
:1028F00000F0A1FC03B000BD01B50122694696209D
:1029000014E000220021D52000F095BC80B52138CC
:1029100080B2010A8DF800108DF8010003E080B547
:102920000020ADF8000002226946982000F083FCE8
:1029300001BD01B5012269469E20F7E701B50122DC
:1029400069469B20F2E70A460146002000F03BBDA5
:10295000F8B504460D46164602226946172000F0D7
:102960009BFCDFF82878787801280AD140F603101C
:1029700000F021FDC00904D040F6011000F01BFD5D
:1029800005E0787804289DF8000008BF801C2870B6
:102990002A78964201D20120F2BD9DF8010021461D
:1029A00000F03FFD0020F2BD10B514460A46014676
:1029B000002000F008FD2046BDE81040FFF7C5BB31
:1029C00080B5DFF8C827527822B1032A16D0042A2E
:1029D00021D025E00522012804D021D303280AD0E4
:1029E00006D31DE040F6CE1000F080FC002002BDB2
:1029F00040F6D310F8E740F6D810F5E70422012896
:102A00000BD00DD3032803D00AD240F6D410EBE745
:102A100040F6D910E8E7012802D140F6CF10E3E7ED
:102A2000012002BD38B5044640F6CD15284600F019
:102A3000C2FC00F0F00004F00F01014397E080B504
:102A40008DF80100010ADFF8440740788DF8001086
:102A5000002818BF032805D10222694640F6C81095
:102A600000F044FC01BD10B50446210E40F6CF1025
:102A700000F059FC2102090E4FF41D6000F053FCD8
:102A80002104090E40F6D11000F04DFCE1B2BDE882
:102A9000104012E080B58E2140F6CF1000F043FCCC
:102AA00089214FF41D6000F03EFCBE2140F6D1109C
:102AB00000F039FCBDE80440D62140F6D21000F009
:102AC00032BC80B58DF80100010ADFF8C0064078FD
:102AD0008DF80010002818BF032805D1022269468E
:102AE00040F6C61000F002FC01BDDFF8A0164978E0
:102AF00011B1C91E012904D8014640F6C51000F0E5
:102B000012BC704710B540F69F04204600F053FCFD
:102B100040F08001204600F006FC40F69504204677
:102B200000F049FC00F0FE0111E010B540F69F04F2
:102B3000204600F040FC00F07F01204600F0F3FB4F
:102B400040F69504204600F036FC40F00101204696
:102B5000BDE8104000F0E7BB38B5044640F69E05DE
:102B6000284600F028FC00F0F00044EA0001284666
:102B7000BDE8344000F0D7BB10B548B101280FD1F3
:102B800040F69104204600F016FC40F0C00106E03B
:102B900040F69104204600F00EFC00F03F01D6E71D
:102BA00010BD38B50446DFF8E405407802280ED1A0
:102BB00040F63115284600F0FEFB00F03F0040EAE9
:102BC00084112846BDE83440C9B200F0ACBB31BD29
:102BD00080B5010E8DF800108DF803006946020CD7
:102BE0004A70020ADFF8A40540788A70022804D1EE
:102BF000042240F6161000F079FB01BD80B5010EED
:102C00008DF800108DF803006946020C4A70020A24
:102C1000DFF8780540788A70022804D1042240F653
:102C2000121000F063FB01BDF8B56E4D04462DEDAA
:102C3000028B6878022882B09FED6B8B40F0898010
:102C400001208DF8000001226946802000F0F3FA8F
:102C50009DF8000000280CBF01200220287040F6DB
:102C60007F16304600F0A7FB40F00201304600F02E
:102C70005AFB40F62416304600F09DFB210100F07F
:102C8000CF0001F030010143304600F04CFB40F62C
:102C9000611000F090FB064640F6621000F08BFBDE
:102CA000000240EA064640F6631000F084FB06434B
:102CB00000208DF8000001226946802000F0BBFA58
:102CC0009DF8000000280CBF0120022028701CB1D4
:102CD000641E022C2ED93CE0B6F5000F28BF06F189
:102CE0007F46A87800270A2808D0182809D0262867
:102CF0000AD0342808BFDFF8987407E0DFF894742E
:102D000004E0DFF8947401E0DFF890743046FEF7D9
:102D1000D5FD04460D463846FEF7D0FD02460B466B
:102D200020462946FEF774FF0022DFF87434FEF7D0
:102D30009DFE0CE03046FEF7CBFD0022DFF8643448
:102D4000FEF794FE0022DFF86034FEF761FF41ECED
:102D5000180B02B0B0EE480AF0EE680ABDEC028B28
:102D6000F1BD10B582B001208DF800000122694646
:102D7000802000F060FA9DF80000DFF810140028B1
:102D80000CBF01200220087040F67F14204600F09E
:102D900012FB40F00201204600F0C5FA40F6241470
:102DA000204600F008FB00F0CF01204600F0BBFAFF
:102DB00040F6641000F0FFFA16BD10B50446DFF8C7
:102DC000CC03407802280BD1210A40F62C1000F0E9
:102DD000AAFAE1B2BDE8104040F62D1000F0A3BA07
:102DE00010BD00006C00002000000000000000008A
:102DF000A8CB884138B540F62314204600F0DBFA12
:102E0000054645F02001204600F08DFA05F0DF016F
:102E10002046ADE67F28B8BF7F20014640F61E1051
:102E200000F081BA80B58DF8000001226946A32028
:102E30007CE5000070B5DFF854436078401E01283F
:102E40009FED310B4DD840F6541000F0B4FA054612
:102E500040F6551000F0AFFA000240EA054540F692
:102E6000561000F0A8FA2843C0F31300B0F5002F65
:102E700028BFA0F58010A17800260A2908D01829BB
:102E800009D026290AD0342908BFDFF8046307E0F7
:102E9000DFF8006304E0DFF8006301E0DFF8FC62C4
:102EA000FEF70CFDDFF80423DFF80433FEF7DEFD48
:102EB00004460D463046FEF701FD02460B46002053
:102EC000DFF8F012FEF7A4FE0022DFF8EC32FEF786
:102ED000CDFD02460B4620462946FEF799FE41EC01
:102EE000100B70BDDFF8A4120120C8707047A7490D
:102EF0000020C8707047A548C178002908BF00F0BD
:102F000007B80121017170470000000000000000B7
:102F100070B59E4C2078002882B000F03581E078B2
:102F200038B12079002800F02F8172B6002020717E
:102F300062B6022266786946152000F0ADF99DF868
:102F400000009DF8011041EA0025FF208DF80000E7
:102F50008DF8010002226946972000F06CF9042EDA
:102F600000F21281DFE816F005004500C3000500FD
:102F700005002078042800F08980052840F00481AD
:102F8000A80718D5A068690605D5E0B181690800D1
:102F900011D0022008E0290708D5002800F0F480AD
:102FA0008169080007D00120884704E0B0B140687B
:102FB000010018BF8047680705D5A06870B1806818
:102FC000010018BF8047280708D5A068002800F036
:102FD000DB80816908001CBF01208847680448D550
:102FE000A068002800F0D0804069010041D08047EF
:102FF0003FE02078042849D0C0F0C680062858D089
:1030000080F0C280A8070ED5A068690606D590B1E9
:103010008169080007D00220884704E058B1406861
:10302000010018BF8047E80605D5A06860B1C068F8
:10303000010018BF8047A80606D5A06870B1816955
:1030400008001CBF00208847680407D5A068002836
:1030500000F09A804069010018BF8047E80508D554
:10306000A068002800F09080816908001CBF032040
:103070008847E80740F18880A068002800F0848035
:103080000068010000F08080804773BDE80706D526
:10309000A068002878D00068010018BF8047680445
:1030A00072D5A06800286FD0006901006CD08047FD
:1030B00073BDE80411D5A068A90406D5002863D023
:1030C000016A080060D0012005E000285CD0016A98
:1030D000080059D00020884773BD680454D5A06803
:1030E000002851D0406901004ED0804773BD207840
:1030F000042837D0052847D1E80506D5A06868B16F
:10310000C16908001CBF00208847280506D5A068B3
:1031100068B1C16908001CBF01208847280606D590
:10312000A06868B1C16908001CBF01208847680415
:1031300006D5A06840B3C16908001CBF00208847BD
:10314000E80605D5A068F8B1C068010018BF80473F
:10315000A80619D5A068B8B18169080014D000206C
:10316000884773BD680506D5A06868B1C1690800C5
:103170001CBF02208847A80506D5A06820B1C169F8
:1031800008001CBF0320884773BD00006C000020AE
:1031900075190300A8CB1800D4650C00EA320600AC
:1031A000A3E1E1400000344000005940CDCCCCCC3C
:1031B000CCCCF83F0000994000408F4010B5044649
:1031C000142000F03BFE00224FF480614FF090404D
:1031D00000F0B4FE322000F031FE01224FF4806195
:1031E0004FF0904000F0AAFE142000F027FE236864
:1031F000BDE81040FFE7002201214FF0904000F0B1
:103200002DBE80B5142000F019FE00224FF480611D
:103210004FF0904000F092FE322000F00FFE0122AD
:103220004FF480614FF0904000F088FEBDE802400E
:10323000142000F003BEF8B504460D4616464FF4C0
:1032400000714FF0904000F06FFF0128F7D000228E
:103250004FF480714FF0904000F070FE864F324680
:103260003C702946781CFEF72DF9711C89B238464E
:1032700000F09EFF01224FF480714FF0904000F06B
:103280005DFE842C07D04FF400714FF0904000F0A9
:103290004BFF0128F7D0F1BDF8B5774F387000200B
:1032A00015467870AE1C28000C4606D038462946D4
:1032B00000228270401C491EFBD14FF400714FF078
:1032C000904000F031FF0128F7D000224FF48071C8
:1032D0004FF0904000F032FE4FF480503918B2B2F7
:1032E000384600F053FF41F202004FE038B5144673
:1032F000614D18222A70A870020A6A70E81C2246E2
:10330000FEF7E0F84FF400714FF0904000F00CFF32
:103310000128F7D000224FF480714FF0904000F068
:103320000DFEE11C69E002B501226946FFF7DEFFF0
:1033300001BDF8B50C46504FB870192115463970CB
:103340002E1D010A0020F8707970280006D038463A
:10335000294600220271401C491EFBD14FF4007126
:103360004FF0904000F0E0FE0128F7D000224FF42B
:1033700080714FF0904000F0E1FD4FF4805039181B
:10338000B2B2384600F002FF41F2040039182A4672
:103390002046FEF797F801224FF480714FF09040DD
:1033A00000F0CCFD4FF400714FF0904000F0BCFEF7
:1033B0000128F7D0F1BD80B501226946FFF7B9FFBA
:1033C0009DF8000002BD38B514462B4D1A222A7014
:1033D00068702246A81CFEF775F84FF400714FF094
:1033E000904000F0A1FE0128F7D000224FF4807138
:1033F0004FF0904000F0A2FDA11C89B2284600F0D9
:10340000D7FE01224FF480714FF0904000F096FDFE
:103410004FF400714FF0904000F086FE0128F7D085
:1034200031BDF8B516460C46F71C134D68700020E8
:10343000A8701B213000297003D03146E81C00F031
:103440008FFC4FF400714FF0904000F06DFE0128AA
:10345000F7D000224FF480714FF0904000F06EFDE5
:103460004FF480502918BAB2284600F08FFE41F27E
:103470000300291832468BE7C007002010B54FF42F
:1034800000714FF0904000F05CFD044601214FF0C8
:10349000904000F056FD44EAC000C0B210BD0000EC
:1034A0002DE9FF4D2DED088B86B040F2FF710F988E
:1034B0009DED100B8DED040BC0F30A50884208D12E
:1034C0000F980024000305BF0E980028022501254F
:1034D00012E0012807DA0EA8FEF7E7F8012802DB60
:1034E0000024002508E00F9A40F2FE3161F31E52DD
:1034F0000F92441A4FF0FF35002104A800F064FE3B
:103500001A9F06460FB10020388036B9DDE9102336
:103510000020002100F098FE12D0002D13D524B217
:10352000012C15D1DDE90E230020DFF88C1300F00B
:103530008BFE05D0012E0BD1DE4900F085FE3ED179
:1035400006B0CD49E7E1022D04D1DDE90E01E1E14C
:10355000012E6FDB022E08BFDDE9100100F0DA81D9
:10356000012D2AD10F980028119806D4002854BFA5
:103570009FEDD40B9FEDD50BCAE100280ED456B9B0
:103580004FF0FF3104A800F01FFE002848BF9FED58
:10359000D10B00F1BD819FEDCB0BB9E156B94FF0D6
:1035A000FF3104A800F010FE002848BF9FEDB30BC8
:1035B00000F1AE819FEDC50BAAE1012E11D111984A
:1035C000002824B206D4012CACBF9FEDBE0B9FEDAA
:1035D000BF0B9DE1012CACBF9FEDBC0B9FEDB90B68
:1035E00096E11198002810D466B94FF0FF3104A875
:1035F00000F0EAFD002842BF0F9800289FED9F0BC6
:1036000000F186819FEDB10B82E100F02DFE2221B9
:10361000016066B94FF0FF3104A800F0D5FD002825
:1036200042BF0F9800289FEDAB0B00F171819FED19
:10363000A50B6DE10F98002848BF002E0BD500F0B8
:1036400013FE2121016006B04FF0FF30BDEC088B66
:103650006FF0004161E1DDE90E0100220023FEF779
:103660005FF838BF002509D381F00041CDE90E0194
:103670004FF0FF3104A800F0A7FD0546012C13D13F
:10368000DDE90E017F4A804BFEF732F80CD2DDE90E
:103690000E2300204FF08041FEF7E8F9CDE90E013E
:1036A00000269FED7A8B1DE0DDE90E23002079498D
:1036B000FEF7DCF99FED788B53EC182BFEF764FCDA
:1036C000FEF7D0F8A0F120063046FEF7F7F800220A
:1036D000734BFEF7CBF953EC182BFEF755FC41EC7E
:1036E000180B76010FF258200644DDE90E0153EC69
:1036F000182BFEF7FBF8DDE90E2341EC190B51EC1A
:10370000180BFEF741FC02460B4651EC190BFEF775
:103710007FFA41EC1A0B53EC1A2BFEF7A7F941EC98
:103720001B0B8DED0E9B00F0A5FD53EC1B2BFEF744
:103730009DF9DDE90E23FEF7D9F882468B4600207D
:103740004D4953EC182BFEF7D1F800224FF080437F
:10375000FEF78CF952465B46FEF716FC53EC1A2B2B
:10376000FEF784F9DDE90E23FEF70EFC41EC180BA1
:103770004C4A4D4BFEF74CFACDE904012046FEF7CA
:103780009DF841EC190BD6E9000153EC192BFEF71B
:10379000FBFBDDE90423FEF7F7FBCDE90401DDE9DE
:1037A0001023FEF763F90022404BCDE90201FDF73B
:1037B0009FFFC0F0938001223D4BFDF7B1FF40F227
:1037C000918000220023FDF793FFDDE9022339BF3A
:1037D0000020384900203849FEF7D6FBFEF742F8B2
:1037E0000446D6E9000153EC192BFEF7CDFBDDE9C9
:1037F0001023FEF73BF982468B462046FEF75EF823
:1038000002460B4650465946FEF770F89FED2BAB2B
:1038100053EC1A2BFEF72AF982468B46D6E90201B1
:10382000D6E90423FEF7B0FBDDE91023FEF71EF90D
:1038300053EC1A2BFEF71AF906468846DDE910010B
:1038400053EC182BFEF712F932464346FEF79CFB69
:1038500052465B46FEF798FBCDE902010FB13C8072
:10386000002400940022044B02A800F05BFDA8B3E2
:10387000012837D042E000BF0000F03F0000000008
:1038800000000080CD3B7F669EA0E63F0000000068
:103890000000F03F00005040000000000000E03F4A
:1038A0000000903FEF39FAFE422EE63F0000E0C0F4
:1038B0000000E0400000E0BF0000E03FEF39FAFE0A
:1038C000422EE63F000000000000F07F00000000F4
:1038D00000000000000000000000F0FF0020CDE923
:1038E000020007E00020014902E000BF0000F07F75
:1038F000CDE9020100F0B8FC22210160002D1DBFBE
:10390000DDE9020181F0004141EC100B9DED020B5D
:1039100051EC100B06B0BDEC088B04B0BDE8F08D87
:1039200080B50020009053EC112B51EC100BFFF7E9
:10393000B7FD41EC100B01BD0000000000000000CD
:10394000000000000000F0BF000000000000008048
:1039500000000000000000800000000000000000E7
:10396000000000C05294EEBF00000048204E51BE3F
:10397000000000F86467BCBC00000000000000000C
:10398000000000208133EDBF00000080B3DB14BED7
:10399000000000506706A3BC00000000000000000B
:1039A000000000D0E9DCEBBF00000008C39259BE64
:1039B00000000080B0D3B8BC000000000000000090
:1039C00000000070F98FEABF000000C0A51028BEFB
:1039D000000000E8BFC0B0BC000000000000000014
:1039E00000000070284CE9BF00000060134B42BE8D
:1039F000000000C03D20B8BC000000000000000036
:103A000000000050FA10E8BF000000C05FF62BBEB7
:103A1000000000905C71A7BC0000000000000000E6
:103A200000000020FCDDE6BF000000C0F8F154BE3D
:103A300000000018E9F6B9BC00000000000000001A
:103A4000000000D0C3B2E5BF00000070E43254BEF5
:103A500000000050DB06B4BC0000000000000000C5
:103A600000000010EF8EE4BF00000020F36252BEA1
:103A7000000000C02A879ABC00000000000000007F
:103A8000000000B02272E3BF000000F0E8E056BE84
:103A900000000028352DBDBC000000000000000023
:103AA000000000000A5CE2BF000000B0FA8E41BED8
:103AB00000000040AE6FBDBC000000000000000030
:103AC00000000000564CE1BF000000F015CD5FBEC5
:103AD00000000000141C90BC00000000000000006A
:103AE00000000040BD42E0BF00000030F93457BE86
:103AF000000000E06C1E93BC00000000000000000D
:103B0000000000E0F57DDEBF000000B08A535EBE1D
:103B100000000080DA77AABC00000000000000006E
:103B2000000000C09D81DCBF00000000FFA226BE97
:103B30000000006057E2B0BC000000000000000080
:103B400000000060F98FDABF000000580A8151BE02
:103B5000000000F05F60B8BC000000000000000042
:103B60000000000098A8D8BF000000607A7F45BE22
:103B7000000000D05433A3BC00000000000000008F
:103B8000000000600FCBD6BF000000D091CB40BE3C
:103B9000000000406D1BA0BC000000000000000001
:103BA000000000A0FBF6D4BF00000098C5CE52BEB6
:103BB000000000003A397EBC000000000000000058
:103BC000000000E0FE2BD3BF0000004073872BBE37
:103BD00000000000926879BC0000000000000000B6
:103BE00000000040C069D1BF00000058F16353BE1F
:103BF00000000080438D7CBC00000000000000003D
:103C000000000080D85FCFBF000000181F8354BEA3
:103C1000000000B03F42A2BC000000000000000015
:103C20000000008067FCCBBF00000060FAFF53BEBD
:103C300000000050E00DB8BC0000000000000000D3
:103C40000000000098A8C8BF000000607A7F35BE61
:103C5000000000C0543393BC0000000000000000CE
:103C600000000000DC63C5BF00000058D6FF54BE52
:103C700000000000396490BC00000000000000005B
:103C8000000000C0AD2DC2BF00000080A45915BEC9
:103C9000000000E0484BABBC00000000000000004A
:103CA000000000801A0BBEBF00000050BF3C5ABE8F
:103CB000000000A0B364B6BC0000000000000000DB
:103CC0000000008004D6B7BF00000040BBCF36BE66
:103CD0000000008076CEA8BC0000000000000000BC
:103CE0000000008032BBB1BF000000402A0043BE8C
:103CF00000000028C60CBDBC000000000000000051
:103D0000000000009473A7BF000000182B3B59BEB1
:103D1000000000C0E55DA5BC000000000000000040
:103D200000000000EE4397BF000000A0E6C340BEC5
:103D300000000020958DB5BC0000000000000000D0
:103D40000000000000000080000000000000008073
:103D500000000000000000800000000000000000E3
:103D6000002200F043BC000080B500F06FFC00F0C2
:103D70000AF800F071F80FF2DD0000F07DFCBDE8FC
:103D8000014000F0F9B910B52948B8B0016821F038
:103D900018010160062005904FF4807401200790FF
:103DA00008941020099002200F901090012011908B
:103DB000082012900720139002201490159005A857
:103DC00000F088FC00B1FEE70F20009003210320E3
:103DD00001900020029003900490684600F0DEFEFF
:103DE00000B1FEE71348169000210020249024A87B
:103DF0008161C46416A801F017F800B1FEE74FF422
:103E0000007001F0C5FA00B1FEE700F099FF0A4A20
:103E1000A0FB0221480A01F036FB042001F044FB1C
:103E2000002200214FF0FF3001F0F9FA38B010BD48
:103E30009010024041000200986E128338B504468B
:103E400001F04AFB054601F047FB401BA042FAD3B4
:103E500031BDFEE77047000001F044BB70B50C4671
:103E600015461E46204600F04FF831002ED0254959
:103E700041F82060012C1CD0022C18D0042C14D046
:103E8000082C10D0102C0CD0202C18BF402C06D0A1
:103E9000802C1CBFB4F5807FB4F5007F0BD11724B4
:103EA0000AE00A2408E0092406E0082404E00724C4
:103EB00002E0062400E0282400222946204601F0E2
:103EC000AEFA2046BDE8704001F0D2BA70BD70B5C0
:103ED000044600F019F80B4E054656F8250030B19F
:103EE0000FF2640001F0E6FB56F825008047B4F5B8
:103EF000005F05D1BDE870400FF2600001F0DABB51
:103F000070BD0000082A002000214FF47F421042BB
:103F100018BF08214FF2F002104218BF41F004010F
:103F20004CF6CC42104218BF41F002014AF6AA22D8
:103F3000104218BF41F0010108467047D2B200F0AC
:103F4000FAB800F0F1B8C2E773783132383020693E
:103F50006E746572727570740A0000007072657319
:103F60007320627574746F6E0A0000002DE9F84FBB
:103F70000026774A774BDFF8E0814FF00F092EE0FB
:103F8000BD402C4343F82C406FEA0A05146805EA4B
:103F9000040E4C68E40348BF4AEA0E0EC2F800E083
:103FA000546805EA040E4C68A40348BF4AEA0E0EA2
:103FB000C2F804E0946805EA040E4C68E40248BFC5
:103FC0004AEA0E0EC2F808E0D46805EA040C4C6810
:103FD000A40248BF4AEA0C0CC2F80CC0761C0D685B
:103FE00035FA06F400F09E80012707FA06F414EA79
:103FF000050AF3D04FEA460C032505FA0CF56FEAE3
:10400000050E4D68012D18BF022D03D0112D18BFCC
:10401000122D0FD18568CF680EEA050507FA0CF757
:104020003D43856045684F68C7F30017A543B74017
:104030003D4345604D6805F00307032F07D1C76A6C
:10404000C5F3C00527EA0404B5402C43C462C46824
:104050008D680EEA040405FA0CF52C43C4604C6824
:10406000022C18BF122C10D1F40800EB8404B50008
:10407000276A05F01C0509FA05FB27EA0B07D1F8AA
:1040800010B00BFA05F53D43256204680EEA0405FD
:104090000C7904F0030404FA0CF42C4304604C681B
:1040A000E4009BD5D8F8004044F00104C8F8004073
:1040B0004FEA960CD8F8004004F001040094B500D3
:1040C000009C53F82C4005F00C0709FA07F5AC43A7
:1040D000B0F1904F08BF00253FF452AF1F4DA842EA
:1040E00008BF01253FF44CAF1D4DA84208BF022573
:1040F0003FF446AF1B4DA84208BF03253FF440AF35
:10410000194DA84208BF04253FF43AAF174DA84205
:1041100008BF05253FF434AF154DA8420CBF062556
:1041200007252DE7BDE8F18F00690840401E80415A
:10413000C043C00F70470AB1816170478162704708
:104140000C4A136803421CBF1060FFF7FCBE7047A7
:1041500000040140080001406010024000040048D3
:1041600000080048000C00480010004800140048F7
:10417000001800481404014080B501F0ADFABDE814
:1041800008400F480F496422FDF7ACB9F8B5044662
:104190000B4F0D461646384601F024FB4FF0FF301A
:1041A000009033462A462146384601F073FCF1BDA3
:1041B0000A4601464FF0FF33014801F0A4BB00005E
:1041C000AC280020102900204268C2F30A5240F2B5
:1041D000FF739A4209D14168090304BF00680028AF
:1041E00001D1012070470220704743685B0004BF83
:1041F0000368002B25D040F233439A1A521A012A41
:104200001FDB352A06DB416801F0004141600021D7
:10421000016013E0012102F01F039940491E92063C
:1042200007D5426811404A404260026811430022AB
:1042300002E0026811404A40026011B14FF0FF30C5
:10424000704700207047000090420CD141EA030CF7
:1042500050EA4C0C07D0994205D14FF4001C1CEBDE
:10426000410F38BF894270470148FDF701BF000088
:10427000C000002080B52DED028B41EC180B53ECF3
:10428000182B1A481A49FDF7F1FB1A4A1A4BFDF789
:104290007BFE53EC182BFDF7E9FB184A184BFDF792
:1042A00073FE53EC182BFDF7E1FB164A164BFDF796
:1042B0006BFE53EC182BFDF7D9FB144A144BFDF79A
:1042C00063FE53EC182BFDF7D1FB124A124BFDF79E
:1042D0005BFE53EC182BFDF7C9FBBDEC028B0F4ABC
:1042E0000F4BBDE80050FDF74FBE0000F7DE29BFC1
:1042F000D8F8C23FF4B3FECC1A99C33F62CB68D959
:104300006F46C73FC6C912DAC471CC3F4AE98A94E6
:104310002449D23FF75F97999999D93FBC55555594
:104320005555E53F2DE9704C04462DED088B94ED75
:10433000009B43EC182B51EC190B01F0BFFD064616
:1043400051EC180B01F0BAFD31000E9D06D5002886
:104350004DD4022805D184ED008B42E1022EF8D124
:1043600021E050B951EC190B0022344BFFF76CFFE0
:104370000FD084ED008B002033E1012818D151ECDF
:10438000190B00222E4BFFF75FFF18BF84ED008B47
:1043900051D1FFF769FF212101604FF0FF306FF02D
:1043A0000041C4E90001BDEC088B0220BDE8708C1F
:1043B0007EB984ED008B29462046FDF7C9F904003B
:1043C00018BF012C40F00C81FFF74EFF2221016045
:1043D00006E151EC190B0022184BFFF735FF0DD108
:1043E00051EC180BFDF742FBC4E9000123E051EC4E
:1043F000190B0022134BFDF77BF90BD251EC180B74
:104400000023FDF733FBC4E90001BDEC088B00205D
:10441000BDE8708C01220C4BFDF782F916D851ECE7
:10442000180B0022054BFDF721FBC4E90001FFF743
:104430001BFF222101600120D3E000BF0000F07FBC
:104440000000F0FF00C89CC000C89C403B4A3C4BA9
:10445000FDF70CFB00220023FDF74AF934BF9FED66
:10446000390B9FED3A0B53EC102BFDF78DFDFDF74B
:10447000F9F90646FDF722FA41EC1A0B4FF07842A3
:10448000344BFDF7F3FA02460B4651EC190BFDF7DE
:104490002DFA82468B4653EC1A2B2F482F49FDF7F5
:1044A000E5FA02460B4650465946FDF71FFA4FF013
:1044B000FF322B4BFDF734F941EC190B05D80022E4
:1044C000284BFDF715F9C0F07D8053EC192BFDF753
:1044D000CDFA41EC1A0B244A244BFDF7C7FA244AC3
:1044E000244BFDF751FD53EC1A2BFDF7BFFA41ECBD
:1044F0001B0B51EC1A0B204A204BFDF7B7FA204A50
:10450000204BFDF741FD53EC1A2BFDF7AFFA0022CB
:104510001D4BFDF739FD53EC192BFDF7A7FA41ECC4
:10452000190B51EC1B0B53EC192BFDF72DFD9FEDD7
:1045300001AB2BE0000000000000F03FFE822B6585
:104540004715F73F000000000000E0BF000000003A
:104550000000E03F422EE63FF2E4D5BCE7E84B3EE8
:10456000FFFF8FBC0000903C112E5781A03F503FB1
:104570005843128C8F71BC3F4BE8A541B752013FA5
:104580000BBDF3DAE8708C3F0000E03F53EC1A2BD0
:10459000FDF7FAFC82468B4651EC1B0B53EC192BB2
:1045A000FDF7A4F953EC1A2BFDF7EEFC02460B467F
:1045B00050465946FDF72CFB53EC182BFDF756FAE5
:1045C00041EC180B84ED008BA9192046FDF7C0F8CB
:1045D000040018BF012C03D1FFF746FE2221016021
:1045E0002046BDEC088BBDE8708C0000401810F030
:1045F000030308D0C91A1FD3DB0748BF00F8012DF9
:1046000028BF20F8022D130030B414461546103987
:1046100028BF20E93C00FAD8490728BF20E90C0050
:1046200048BF40F8042D890028BF20F8022D48BF5C
:1046300000F8012D30BC7047C91818BF00F8012DD3
:10464000CB0728BF00F8012D70470000094810B5BE
:10465000016841F480710160032000F0D3FE002066
:1046600001F04CFC0024002814BF012401F06AFC76
:10467000204610BD0020024001F07CBC01B54FF681
:10468000FF7301226946104801F03BFD009802BD0E
:1046900038B50F4C0D4D228811000CD0291D01F0AA
:1046A000DDFD28B1012028700022AB6E0021984763
:1046B0000020208031BD0120AB6E287001B0BDE824
:1046C0003040002201211847C02700204028002048
:1046D000542A00202DE9F047040082B000F0A380A6
:1046E000DFF80457A86800F00C09E86800F003063A
:1046F0002078C00640F18680B9F1000F04D0B9F1EE
:104700000C0F08BF012E59D12868800703D5A06976
:10471000002800F08880286800074FBF2868DFF86D
:10472000D8064068000900F0F001206A814215D2E5
:1047300000F01DFB002876D1286840F008002860B2
:104740002868216A20F0F000084328606868E16961
:1047500020F47F4040EA0120686018E0286840F0BB
:10476000080028602868216A20F0F00008432860CB
:10477000B9F1000F6868E16920F47F4040EA012048
:10478000686004D1206A00F0F2FA00284BD100F0F2
:104790008EFAAA68DFF86416C2F30312895C01F08E
:1047A0001F01C840DFF844160860DFF844060068BF
:1047B00001F0A4FB010025D0BDE8F687A069002820
:1047C000286833D040F00100286000F085FE0746DD
:1047D0002868800705D400F07FFEC01B0328F7D3AC
:1047E000D6E1286840F0080028602868216A20F097
:1047F000F000084328606868E16920F47F4040EADF
:10480000012068602078C00753D5B9F1080F04D0A3
:10481000B9F10C0F08BF032E17D12868800348D5C3
:104820006068002845D10120BDE8F68740084000B7
:10483000286000F051FE074628688007E2D500F0A6
:104840004BFEC01B0328F7D3A2E16068B0F5803FA0
:1048500003D1286840F4803010E0B0F5A02F28681C
:1048600006D140F480202860286840F4803005E0BC
:1048700020F480302860286820F480202860606858
:1048800058B100F029FE07462868800311D400F0D3
:1048900023FEC01B6528F7D37AE100F01DFE074612
:1048A0002868800305D500F017FEC01B6528F7D3E4
:1048B0006EE12078800714D5B9F1040F04D0B9F166
:1048C0000C0F08BF022E24D12868400502D5E068ED
:1048D0000028A8D06868216920F0F85040EA0160FB
:1048E00068602078000745D56069DFF80C6500280E
:1048F000706830D040F00100706000F0EDFD0746B8
:104900007068800736D400F0E7FDC01B0328F7D39A
:104910003EE1E068002828680ED040F480702860EE
:1049200000F0DAFD074628684005D3D400F0D4FD36
:10493000C01B0328F7D32BE120F48070286000F01F
:10494000CBFD074628684005CBD500F0C5FDC01B50
:104950000328F7D31CE140084000706000F0BCFD64
:1049600007467068800705D500F0B6FDC01B032818
:10497000F7D30DE12078400763D5A86DC0004FF054
:1049800000080AD4A86D40F08050A8654FF00108D7
:10499000A86D00F0805000900098DFF864643068E3
:1049A000C0050FD4306840F48070306000F094FD92
:1049B00007463068C00505D400F08EFDC01B0328F3
:1049C000F7D3E5E0A068DFF83064012803D1306850
:1049D00040F001000FE00528306806D140F00400E7
:1049E0003060306840F0010005E040084000306071
:1049F000306820F004003060A06868B100F06CFD01
:104A0000074641F2893A3068800713D400F064FD0C
:104A1000C01B5045F7D3BBE000F05EFD074641F2F6
:104A2000893A3068800705D500F056FDC01B504517
:104A3000F7D3ADE0B8F1000F03D0A86D20F080509F
:104A4000A865A06A002800F0A680022840F08080B7
:104A5000E868E26A00F00301914201BF00F07001D2
:104A6000226B521EB1EB021F20D1626B00F4FE419B
:104A7000B1EB022F1AD1A16B07290CBF0021012134
:104A800000F400328A4211D1E26B921E120500F44A
:104A9000C001520DB1EB425F08D1216C891E09069D
:104AA00000F0C06001F07E4188423AD0B9F10C0FAD
:104AB0003FF4B9AE286840013FF5B5AE2868C000A4
:104AC0003FF5B1AE286820F08070286000F004FD4A
:104AD00007462868800105D500F0FEFCC01B0328AE
:104AE000F7D355E0E868DFF81C130840E16A084393
:104AF000216B491E40EA0110616B40EA0120E16B25
:104B0000891E0905490D40EA4150216C891E09069C
:104B100001F07E410843A16B090940EA4140E86089
:104B200002E02868800136D4286840F08070286050
:104B3000E86840F08070E86000F0CEFC0746286826
:104B4000800128D400F0C8FCC01B0328F7D31FE065
:104B5000B9F10C0F3FF467AE286820F08070286030
:104B6000286810F0205F03D1E86880088000E860C2
:104B7000E868DFF894120840E86000F0ADFC0746F2
:104B80002868800107D500F0A7FCC01B0328F7D3D5
:104B90000320BDE8F6870020BDE8F6872DE9F8433D
:104BA000040088465AD0DFF86462306800F00700DD
:104BB000404509D23068C00848EAC000306030681B
:104BC00000F00700404549D12078C0072DD5606826
:104BD000DFF81472032802D13968890108E002283D
:104BE00002D13968890303E00028396802D18907B6
:104BF00002D433E0490531D5B968890840EA81001B
:104C0000B86041F2893900F067FC0546B868616810
:104C100000F00C00B0EB810F07D000F05DFC401BF2
:104C20004845F3D30320BDE8F2832078800706D5FA
:104C30006D4FB868A16820F0F0000843B860306894
:104C400000F0070080450CD23068C00848EAC00078
:104C50003060306800F00700404502D00120BDE818
:104C6000F2832078604F400705D5B868E16820F4EA
:104C7000E0600843B8602078000706D5B86821696D
:104C800020F4605040EAC100B86000F010F8BA6843
:104C90005A49C2F30312895C01F01F01C84053490D
:104CA0000860BDE8F2435248006801F027B910B42B
:104CB0004D498B68CC680022002013F00C0304F0EF
:104CC000030403D00C2B13D1012C1CD10A6812074A
:104CD00004D4484A1268C2F3032202E00A68C2F30D
:104CE00003124C4C54F822205BB910BC104670479C
:104CF000042B08BF484821D0082B1FD110BC4748BF
:104D000070470C2B1AD1C86800F00300022803D0AA
:104D1000032808BF414A00E03F4AC868CB68C96819
:104D2000C3F30623C0F30210C1F341615A43401C90
:104D3000491CB2FBF0F04900B0FBF1F010BC704729
:104D40002A48006870472948314A00681268344987
:104D5000C2F3022206E025482D4A00681268304955
:104D6000C2F3C222895C01F01F01C840704770B5D0
:104D70002C4E82B0054630680024C00002D500F0F9
:104D800001FB0EE0306840F080503060306800F089
:104D900080500090009800F0F5FA316821F08051C1
:104DA0003160B0F5007F04D1812D0DD3A12D0AD340
:104DB00005E0812D28BF032406D2802D01D10224D5
:104DC00002E0702D00D1012410480168C90844EAAE
:104DD000C1010160006800F00700A04201D001207D
:104DE00076BD002076BD0000001002407C0000204F
:104DF000680000209410024090100240B46E000839
:104E0000007000408C809DF9FFFFEEFE0020024004
:104E100008100240C46E00080024F40000127A005A
:104E200088700008581002402DE9F047044682B00F
:104E30002068DFF8405400260005B14625D5606E95
:104E400070B1B0F5800F18D0B0F5000F03D0B0F5F9
:104E5000400F0AD017E0286840F48030286005E051
:104E60000021201D00F081F906466EB9E86F616EE1
:104E700020F440000843E86707E0002104F1200027
:104E800000F0FCF9F0E70126B1462068C00425D502
:104E9000A06EA8B1B0F1807F18D0B0F1007F03D030
:104EA000B0F1407F04D017E0286840F480302860DB
:104EB0009EB9E86FA16E20F040700843E8670DE0EE
:104EC0000021201D00F051F90646F1E7002104F110
:104ED000200000F0D3F9F7E70126B14620688003EF
:104EE0002AD5E86C0027C00009D4E86C40F0805057
:104EF000E8640127E86C00F0805000900098DFF82B
:104F000078A3DAF8000040F48070CAF8000000F0DE
:104F1000E3FA8046DAF80000C00500F1828000F074
:104F2000DBFAA0EB08000328F4D30326B1461FB137
:104F3000E86C20F08050E8642078C00705D5E86F61
:104F4000A16B800841EA8000E8672078800705D5DA
:104F5000E86FE16B20F00C000843E8672078400719
:104F600005D5E86F216C20F030000843E867207811
:104F7000000705D5E86F616C20F0C0000843E867C2
:104F80002078C00605D5E86FA16C20F44070084376
:104F9000E8672078800605D5E86FE16C20F4406072
:104FA0000843E8672068800505D5E86FE16D20F4C7
:104FB00040200843E8672068400505D5E86F216E6A
:104FC00020F440100843E8672078400605D5E86FD4
:104FD000216D20F440500843E8672078000605D58D
:104FE000E86F616D20F440400843E8672068C00521
:104FF00005D5E86FA16D20F440300843E8672068CC
:1050000080044AD5E86FE16E20F040600843E8670D
:10501000E06EB0F1006F37D1286840F4801028604E
:105020003BE0002E82D1DFF84863306810F4407016
:105030001CBFD4F8841088420BD03068316841F42A
:105040008031316020F44070316821F4803131606A
:105050003060C00710D500F03FFA804641F2893A2F
:105060003068800708D400F037FAA0EB08005045FC
:10507000F6D34FF003095AE73068D4F8841020F4CF
:1050800040700843306052E7B0F1806F05D10121D4
:10509000201D00F06AF800B181462068000317D592
:1050A000E86F216F20F040600843E867206FB0F19F
:1050B000006F04D1286840F48010286008E0B0F147
:1050C000806F05D10121201D00F04FF800B181460D
:1050D0002068400317D5E86F616F20F040600843F7
:1050E000E867606FB0F1006F04D1286840F4801069
:1050F000286008E0B0F1806F05D10121201D00F08B
:1051000034F800B181462068400418D5E86FA16FDB
:1051100020F040500843E867A06FB0F1805F04D1F1
:105120000221201D00F021F807E0B0F1005F06D158
:10513000022104F1200000F0A1F800B181462068AE
:10514000000405D5E86FE16F20F080400843E86770
:105150002068C00306D5E86FD4F8801020F0004026
:105160000843E8674846BDE8F6872DE9F041044664
:10517000804F20680D46F968002611F0030F0DD00E
:10518000F96801F00301814236D1A8B3F86861687B
:10519000C0F30210401C884213D02DE0012804D037
:1051A0002AD3032822D01DD326E03968890723D5C6
:1051B000F96821F0730108436168491E40EA011053
:1051C000F860386820F08060386000F085F980462B
:1051D0003868000112D500F07FF9A0EB0800032821
:1051E000F6D33FE039684905E2D405E03968890320
:1051F000DED439684903DBD4012639E0A0684DB913
:1052000039695D4A114041EA0020E168090940EA34
:10521000414017E0012D39690AD1584A114041EA4D
:1052200000202169891E0905490D40EA415009E025
:10523000534A114041EA00206169891E090601F0C4
:105240007E4108433861386840F08060386000F083
:1052500043F905463868000106D400F03DF9401BCB
:105260000328F7D3032603E03869A16908433861AE
:105270007AE000000C100240007000402DE9F0417F
:1052800004463C4F20688846F968002611F0030F59
:105290000DD0F96801F00301814235D1A0B3F8685F
:1052A0006168C0F30210401C884213D02CE0012832
:1052B00004D029D3032821D01CD325E039688907DD
:1052C00022D5F96821F0730108436168491E40EA5C
:1052D0000110F860386820F08050386000F0FCF869
:1052E00005463868800011D500F0F6F8401B032809
:1052F000F7D333E039684905E3D405E03968890319
:10530000DFD439684903DCD401262DE0A06879692F
:10531000B8F1000F08D1184A114041EA0020E168B5
:10532000090940EA414009E0154A114041EA0020DC
:105330002169891E090601F07E41084378613868B9
:1053400040F08050386000F0C7F8054638688000AB
:1053500006D400F0C1F8401B0328F7D3032603E06E
:1053600078696169084378613046BDE8F0810000E2
:105370009010024000100240FF80FDFFFF809FFF61
:10538000FF80FFF9DFF87000006800F4C06070472C
:10539000DFF86410B0F5007F086800F4C0601FD12A
:1053A000B0F5007F25D00868DFF8503020F4C060E9
:1053B00040F4007008603222DFF844000068504377
:1053C000A0FB0332D00C401C00E0401E4A6952058D
:1053D00001D50028F9D1486940050AD50320704756
:1053E000B0F5806F05D0086820F4C06040F480609C
:1053F00008600020704700000070004006BD37863E
:105400007C0000202D490A684FF6FF0300021A4075
:1054100000F4E06010432A4A10430860704730B43B
:10542000264B1B68C3F30223C3F10704052C28BFD6
:1054300004241D1D072D34BF0023DB1E012505FAA2
:1054400004F4641E2140994005FA03F35B1E1A40E0
:1054500011430901020003D41A48815430BC70473B
:10546000194802F00F02104400F8041C30BC7047C9
:10547000002807D4012100F01F029140134A40097F
:1054800042F820107047401EB0F1807F01D3012008
:1054900070470F490F4A4860F02010700020886064
:1054A00007200860002070470949042808680CBFDD
:1054B00040F0040020F00400086070470CED00E0AC
:1054C0000000FA0500E400E018ED00E000E100E073
:1054D00010E000E023ED00E001484068704700BFA5
:1054E0006000002030B587B001A800210022002311
:1054F0000EC006C069486A4D01686A4C41F004015B
:105500000160016801F0040100910099016841F017
:1055100080010160016801F080010091009901683B
:1055200041F001010160016801F001010091009961
:10553000016841F002010160016801F0020100917F
:105540000099016841F0080101600321006800F042
:105550000800009000982846FEF7EDFD002201218A
:105560002046FEF7E8FD00224FF4A0614FF0904086
:10557000FEF7E1FD4FF40050019001A94A48029066
:10558000002003902846FEF7F1FC0320019001A9BA
:10559000012002900020039004902846FEF7E6FCCC
:1055A00041F6FC70019001A90320029000200390B5
:1055B0002846FEF7DBFC012001900020039001A9A2
:1055C0003A4D02954FF09040FEF7D0FC49F612009C
:1055D000019001A903200290002003904FF0904019
:1055E000FEF7C4FC01200190029001A90020039065
:1055F00004902046FEF7BAFC4FF6E640019001A960
:1056000003200290002003902046FEF7AFFC4FF4E9
:10561000A06001900120029000200390049001A955
:105620004FF09040FEF7A2FC4FF40070019001A9EA
:105630000020029003904FF09040FEF797FC04206A
:10564000019001A903200290002003901848FEF762
:105650008DFC0820019001A90020029003902046B3
:10566000FEF784FC1020019002950020039001A910
:105670002046FEF77BFC002200210620FFF7CFFE2C
:105680000620FFF7F5FE002200212820FFF7C7FEC5
:105690002820FFF7EDFE07B030BD00004C1002409F
:1056A000000800480004004800002110000011100C
:1056B000000C00480EB400B582B003A90091024668
:1056C0006B460121034878440A30FAF75DFD06BCB9
:1056D0005DF810FB7519000080B52B482B4901605F
:1056E0004FF482714160002181604FF4E061C1603C
:1056F0000021016141614FF4007181611821C16194
:1057000000210162416281620721C16200210163BF
:10571000416300F08BF830B1BDE8044038210FF24E
:105720007400FEF796BB01BD10B586B001A900223A
:10573000002300241CC10CC100681449884220D1F8
:105740001348416941F480514161416901F480513C
:1057500000910099016841F00101016001A9006810
:1057600000F00100009000980392E02001900220D8
:10577000029003200490052005904FF09040FEF722
:10578000F5FB06B010BD00001029002000300140DC
:105790004C100240433A5C55736572735C616E64F1
:1057A000797765695C4465736B746F705C7378318D
:1057B0003238305C5358313238305F44656D6F4158
:1057C00070705F56315F305C5358313238305F440F
:1057D000656D6F4170705C5372635C7370692E63AA
:1057E0000000000081B00068816811F4C06F1AD019
:1057F000C16800910099816811F4C06F13D0C1682D
:1058000000910099816811F4C06F0CD0C1680091BB
:105810000099816811F4C06F05D0C06800900098AD
:10582000032001B07047002001B0704738B5040074
:1058300001D1012032BD606A30B96068B0F5827F65
:1058400005D00020E06102E00020206160610020BE
:10585000A06204F15C05687818B928702046FFF74B
:1058600063FF022068702068016821F04001016038
:10587000E168B1F5E06F04D90020B1F5706F03D194
:1058800004E04FF4805001D00021A1626168A26859
:1058900001F4827102F404421143227C02F00202FC
:1058A0001143227D02F001021143A26902F4007249
:1058B0001143227F02F03802114394F8202002F0B5
:1058C00080021143A26A02F400521143226811605F
:1058D000A16994F82420090C01F0040102F01002DF
:1058E000114394F8342002F008021143E26802F4F4
:1058F00070621143084321684860002068600120FD
:105900006870002032BD2DE9F047064606F14405D7
:1059100082B0287E00240128894617469A4608BF8F
:10592000022000F0B58001202876FFF7D5FD697EC2
:105930000129804618BF022440F0A580B9F1000F6C
:1059400018BF002F00F09E8003216976EC61C6F835
:105950003890B787F78734642C806C80EC60AC603B
:10596000B168B1F5004F09D131680A6822F04002F0
:105970000A6031680A6842F480420A6031680A6845
:10598000520603D40A6842F040020A60F268716865
:10599000B2F5E06F26D9002918BF012F0DD1B06BE9
:1059A00031680088C86002E0B16B0988C160B06BE3
:1059B000801CB063F08F401EF087F08F00284ED01F
:1059C000306881688907EFD4FFF786FDA0EB0800F7
:1059D000504503D31AF1010FEFD03EE0BAF1000FAA
:1059E000EBD13AE0002918BF012F17D1B06B316815
:1059F000F28F022A02D30088C86009E00078087399
:105A0000B06B401CB063F08F401E06E00988C16097
:105A1000B06B801CB063F08F801EF087F08FF0B108
:105A20003068816889070BD5B16BF28F022AEDD2FD
:105A300009780173B06B401CB063F08F401EECE737
:105A4000FFF74AFDA0EB0800504503D31AF1010F00
:105A5000E4D002E0BAF1000FE0D1032413E04246A3
:105A60005146304600F098F908B12020E861B0684E
:105A700030B900903068C16800918068009000984B
:105A8000E86900B1012401206876002028762046CC
:105A9000BDE8F6872DE9F84F044604F144060025D9
:105AA000307E0128884691461F464FF0010B08BF03
:105AB000022000F00E8186F818B0FFF70DFD727E0F
:105AC000012A824609D06368B3F5827F02BFA368CA
:105AD000002B042A01D00225F6E0B8F1000F18BF10
