:020000040800F2
:10000000C0050020ED71000811720008157200088B
:10001000197200081D72000821720008000000001B
:100020000000000000000000000000002572000831
:1000300029720008000000002D72000809710008F4
:100040003172000835720008397200083D720008EC
:100050004172000845720008497200084D7200089C
:100060005172000855720008597200085D7200084C
:100070006172000865720008697200086D720008FC
:100080007172000875720008797200087D720008AC
:100090008172000885720008897200088D7200085C
:1000A0009172000895720008997200089D7200080C
:1000B000A1720008A5720008A9720008AD720008BC
:1000C000B1720008B5720008B9720008BD7200086C
:1000D000C1720008C57200080D710008C9720008DD
:1000E00019710008CD720008D1720008D57200089D
:1000F000D9720008DD720008E1720008E57200089C
:10010000E9720008ED720008F1720008F57200084B
:10011000F9720008FD7200080173000805730008F9
:10012000097300080D7300081173000815730008A7
:10013000197300081D730008217300082573000857
:1001400029730008B96F00082D7300083173000887
:1001500035730008397300083D73000841730008C7
:1001600045730008497300084D7300085173000877
:1001700055730008597300085D7300080000000003
:1001800061730008657300082DE9F04F82460FF295
:100190005860A5B015461E46D0E90023CDE91223CC
:1001A00003AF00207960B8620DF1500900E04544CA
:1001B0000020ADF8020012AB4FF0FF3229460DF1DE
:1001C000020001F0AEF88046B8F1010F08DA287895
:1001D000B0F1010868EB08086FEA08004FEAD07830
:1001E000BDF8020025280CBFA8F1010BC346BBF1E6
:1001F000010F0EDB2C4614F8011B7868D04700284D
:10020000786000F0F880B86A401CBBF1010BB8625E
:10021000F1D1BDF80200252807D1002038617861AE
:10022000B861F8613862786205E00028BFD1B86A29
:10023000E2E240F0010015F8011F2029F9D023293E
:100240000DD02B2904D02D2906D030290AD00CE05E
:1002500040F0020080B2EEE740F00400FAE740F020
:100260000800F7E740F01000F4E72A290ED13168C2
:10027000316051F8042B3160002A3A6304D55142B1
:1002800040F00400396380B26D1C13E00021396333
:100290000BE0396B6FF00043994205D001EB81030D
:1002A00002EB4301303939636D1C2A78A2F1300129
:1002B0000A29EED329782E2903D04FF0FF31F962B5
:1002C0001FE015F8011F2A2907D1316831606D1C24
:1002D00051F8042B3160FA6213E00021F9620BE05F
:1002E000F96A6FF00043994205D001EB810302EBFC
:1002F00043013039F9626D1C2A78A2F130010A29D4
:10030000EED3B8860FF2E840297801F01BF808B167
:1003100015F8010B8DF842009DF84200682802BFD5
:1003200029786829622005D06C2804BF28786C28B9
:1003300003D171208DF842006D1C14A8F86015F8E7
:10034000014BB4F125002AD01C3800F0DB80001FDF
:10035000022840F2D780133800F0FB80093800F003
:10036000D180801E00F06581401E00F03C81401E5F
:10037000022840F2C780001F00F03581401F00F0C6
:100380009280401E00F0E580401E37D0C01E0BD08A
:10039000801E00F0DE80C01E00F0DB806CE12520B6
:1003A0008DF85000012070E19DF842006C28306803
:1003B000306016D050F8048B3060C7F80880FC6AB3
:1003C000002C04D5404600F0C9FF044607E0224651
:1003D0000021404600F0DEFF08B1A0EB08047C617C
:1003E00054E150F8042B306002A9504600F03EFA68
:1003F000002840F14B814FF0FF30FDE13168316062
:10040000002251F8040B31604FF03C0E0021CDE981
:10041000020114A8B860DDE902019142FC6808BF3E
:10042000904201D1FA6AC2B100F00F033033DBB25F
:100430003A2BA8BF2733AEF101020009A354964618
:1004400040EA017009090022914208BF904204D09D
:10045000BA6804EB0E039A42E6D304EB0E01B960CE
:10046000CEF13C00F96A7861884207DA081AF8612F
:100470004FF6EF71B88E0840B88607E1002940F1C9
:10048000058197F8341001F01401102940F0FE8026
:10049000396B3A69891AFA69891A081A0128C0F26F
:1004A000F580F861F2E09DF8420062281AD06828D1
:1004B00006D06A280CD06C281CD0712808D019E00E
:1004C0003068306050F8041B3060B86A0880DDE0A6
:1004D0003068306050F8042B3060B86AC117C2E948
:1004E0000001D3E03068306050F8041B3060B86A17
:1004F0000870CBE03068306050F8041B3060B86A98
:100500000860C3E03068C01D20F007023260D2E905
:10051000000108323260CDE90201002902D53869B4
:100520002D2109E0B88E810702D538692B2103E01F
:10053000C00705D53869202109F80010401C386132
:1005400014A839690844B860214602A800F09AFB53
:100550009CE09DF842006C280DD0712818BF6A28D5
:1005600009D13068C01D20F007023260D2E90001D5
:100570000832326005E03168316051F8040B3160B7
:100580000021CDE902019DF84200682803D1DDE990
:10059000020180B20BE0622803D1DDE90201C0B2A2
:1005A00005E0742818BF7A2804D1DDE90201002192
:1005B000CDE9020197F83400000731D5DDE90223C7
:1005C0000020834208BF82422AD044F020007828CD
:1005D00026D13869302109F80010401C411C3961CE
:1005E00009F800401CE09DF84200314600F007F990
:1005F000CDE90201DDE9022300218B4202DA3869EC
:100600002D2109E0B88E810702D538692B2103E03E
:10061000C00705D53869202109F80010401C386151
:1006200014A839690844B860214602A800F0A4FA69
:100630002CE09DF842006C2809D001203861306818
:10064000306050F8041B30608DF850101EE03068A8
:10065000306001AA50F8041B3060ADF8041000208F
:10066000ADF8060002A94FF0FF30F862504600F0E6
:10067000FDF800280AD5BEE625208DF8500001209F
:1006800038611CB189F8014002203861386B396942
:10069000401AF969401A7969401A396A401AB969E9
:1006A000401A796AA0EB010897F83400400711D48A
:1006B0002020B8F1010F8DF800000BDB4446012328
:1006C0006A4602A9504600F007FE00287FF493AE68
:1006D000641EF4D1D7F810B0BBF1000F14AC0DD0EC
:1006E00014F8011B7868D047002878603FF483AE87
:1006F000B86A401CBBF1010BB862F1D130208DF813
:100700000000FC69012C0ADB01236A4602A950465D
:1007100000F0E2FD00287FF46EAE641EF4D1D7F83D
:1007200014B0BC68BBF1000F0DD014F8011B786841
:10073000D047002878603FF45EAEB86A401CBBF139
:10074000010BB862F1D130208DF800003C6A012C19
:100750000ADB01236A4602A9504600F0BDFD0028CD
:100760007FF449AE641EF4D1B8687969D7F818B03F
:100770004418BBF1000F0DD014F8011B7868D04766
:10078000002878603FF437AEB86A401CBBF1010B1B
:10079000B862F1D130208DF800007C6A012C0ADBB0
:1007A00001236A4602A9504600F096FD00287FF416
:1007B00022AE641EF4D197F8340040077FF5F8AC00
:1007C0002020B8F1010F8DF80000FFF6F1AC0123F5
:1007D0006A4602A9504600F07FFD00287FF40BAE68
:1007E000B8F10108F3D1E3E40000000000000000CC
:1007F000686A6C747A4C000025B0BDE8F08F6228FE
:1008000026D068281DD06A2808D06C2827D07128E7
:1008100004D0742823D07A280CD020E00868C01DAA
:1008200020F007000860D0E900230830086019466E
:10083000104670470A680A6052F8040B0A600021EB
:1008400070470A680A6052F8040B0A6000B20BE0B5
:100850000A680A6052F8040B0A6040B204E00A68B1
:100860000A6052F8040B0A60C11770472DE9F44F73
:100870000D4694B0D5F830A0BAF1000F804648BFBD
:100880006FF0004A00F0B2FD696B401801900FF65E
:100890007820D0E90023CDE9022395F838004007FD
:1008A00002D40198412805D240200DF11009019091
:1008B000002609E000F0A0FD5FEA0009F8D14FF042
:1008C000FF3056E1AAEB040ABAF1010FC0F2CE8064
:1008D0001498018802AA0DF1010000F0E5FD00283E
:1008E000044600F1DE801498008810B9641E00F1FF
:1008F000D880A245C0F2BA80686901992218914255
:1009000080F0A2806E634042296A401AA969401AA9
:10091000696A401AE969401AA96A461A95F83800C6
:10092000400710D42020012E8DF800000BDB374645
:1009300001236A462946404600F0CEFC002840F0DC
:10094000B0807F1EF4D1D5F814B0BBF1000F4F4634
:100950000DD017F8011BA868C0470028A86000F058
:10096000A080E86A401CBBF1010BE862F1D13020A5
:100970008DF800002F6A012F0ADB01236A46294601
:10098000404600F0A9FC002840F08B807F1EF4D187
:10099000D5F818B0EF68BBF1000F0CD017F8011BA9
:1009A000A868C0470028A8607BD0E86A401CBBF15B
:1009B000010BE862F2D130208DF800006F6A012F40
:1009C00009DB01236A462946404600F085FC0028E1
:1009D00067D17F1EF5D1E868A969D5F81CB0471822
:1009E000BBF1000F0CD017F8011BA868C047002806
:1009F000A86056D0E86A401CBBF1010BE862F2D156
:100A000030208DF80000AF6A012F09DB01236A4610
:100A10002946404600F060FC002842D17F1EF5D1F7
:100A200095F8380040070DD52020012E8DF80000E4
:100A300008DB01236A462946404600F04DFC80BB96
:100A4000761EF6D100266E61224668690DF101011D
:100A5000484400F037FD6869201868611498801CCC
:100A60001490801E008800287FF42CAF686B6969A1
:100A7000401A296A401AA969401A696A401AE96944
:100A8000401AA96AA0EB010A95F83800400710D473
:100A9000BAF1010F0DDB5446A8682021C047A860B9
:100AA00010B94FF0FF365DE0E86A401C641EE86252
:100AB000F2D16B694A462946404600F00DFC0028F9
:100AC000EFD12C6A012C0ADBA8683021C04700282E
:100AD000A860E6D0E86A401C641EE862F4D1AB6905
:100AE000EA682946404600F0F7FB0028D9D16C6A35
:100AF000012C0ADBA8683021C0470028A860D0D0AC
:100B0000E86A401C641EE862F4D1E868A969EB69F0
:100B100042182946404600F0DFFB0028C1D1AC6AEC
:100B2000012C0ADBA8683021C0470028A860B8D093
:100B3000E86A401C641EE862F4D195F8380040076A
:100B40000ED5BAF1010F0BDBA8682021C0470028A1
:100B5000A860A6D0E86A401CBAF1010AE862F3D1A5
:100B60006E616E6304A881451CBF484600F0E6FC38
:100B7000304615B0BDE8F08F2DE9F3430546084631
:100B80002F696F2808BF082405D041F0200178297B
:100B900014BF0A2410243C26D5E90023642818BF7A
:100BA00069289046994606D100218B4203DAD8F194
:100BB000000869EB49090020814508BF80450CD138
:100BC000286B50B9082C38D195F83800000734D577
:100BD00030203B2687F83B002FE0701E0090064631
:100BE000404649462246E31700F0E8FC02F1300097
:100BF000C0B23A2803DB9DF8041051390818B855E3
:100C0000494640462246E31700F0D8FC8046894614
:100C10000020814508BF804503D0E868B9198842A3
:100C2000DBD3082C09D195F83800000705D5B85D4D
:100C3000302802D0761E3020B855B919E960C6F1C7
:100C40003C00296BA861884208DA081A28624FF62E
:100C5000EF71288F08402887BDE8F38300290ED55F
:100C600095F8381001F01401102908D1696B6A69F0
:100C7000891A2A6A891A0E1A012EA8BF2E62BDE8A7
:100C8000F38300002DE9F24F04468EB0D4E9000151
:100C9000CDE9020104AF9DF8380040F0200BBBF114
:100CA000610F0AD0206B002848BF062004D408BF7B
:100CB000BBF1670F01D1012020636168C1F30A50C5
:100CC00040F2FF7290421CD1080304BF2068002844
:100CD00009D10320A0619DF8380061381A2835D366
:100CE0000FF2386108E00320A0619DF838006138F8
:100CF0001A2828D30FF21C61E068032200F0E2FBFF
:100D0000BDE1012815DA204600F0CFFC012810DBF8
:100D100000250020BBF1610F1FD1E16830220A706D
:100D20008A1CE2609DF83820612A0CBF7822582284
:100D30000FE0626840F2FE3161F31E52451A6260B4
:100D40004FF0FF30E6E70FF2C851D5E70FF2C85178
:100D5000D2E74A706169891C616110B900260025DB
:100D600084E1BBF1610F40F09880206BD4E900ABC7
:100D700000284CBF2126461CDDE902010022002389
:100D800000F0B6FC36B23ABF8BF00040CDE902A0CD
:100D9000CDE902AB06F101082D1FB8F1010F8DF866
:100DA00010200DF1110736DBDDE9020100220023DE
:100DB00000F0B6FC2FD21C2102A800F0C9FCDDE92E
:100DC000020100F04FFDA8F10708B8F1010F8146BC
:100DD00009DB00F073FD02460B46DDE9020100F07D
:100DE00085FDCDE90201F81D072105E009F00F029C
:100DF00000F8012D4FEA2919B9F1010F01DB491E55
:100E0000F4D5491E5CBF002200F8012DF9D5C71D9D
:100E1000B8F1010FC8DA0DF11100391AB142B8BFAB
:100E20000E4636B230000DF111072FD4884206DA93
:100E300004A9014449780829A8BF0F2100DA00213C
:100E400004AA024400E0761E12F80139401E8B42CB
:100E5000F9D00F2904D104A901444A78521C4A70E0
:100E6000002802D504AF761C2D1D36B2701E0DD49D
:100E700039180A783032D2B23A2A03DB9DF838307A
:100E80003A3B9A18401E01F80129F2D5206B002840
:100E900040F1EC80701E2063E8E0DDE902010022F1
:100EA000002300F025FC3CBF81F00041CDE90201A8
:100EB0002DB247F2975068434B49DFF8309190FBD1
:100EC000F1F52DB2C5F1070ABAF1010F90461CDB0E
:100ED000DDE902675FEACA7007D542464B463046F5
:100EE000394600F0C3FD06460F4640464946424695
:100EF0004B464FEA6A0A00F0B9FDBAF1000F80468E
:100F00008946E7D1CDE9026724E0CAF1000A00264C
:100F1000374F14E05FEACA7007D542464B46304669
:100F2000394600F0A3FD06460F4640464946424674
:100F30004B4600F09BFD4FEA6A0A80468946BAF1AB
:100F4000000FE7D1DDE9020132463B4600F060FECA
:100F5000CDE90201BBF1660F216BDFF898900CBF61
:100F600005F10A0006204618142EA8BF13263020CB
:100F70008DF810000DF11107012E3DDBDDE90201B6
:100F800000F086FC07F1080104220A23B0FBF3F30A
:100F900003EB8307A0EB4700303001F8010C0A2077
:100FA000B3FBF0F000EB8007A3EB47033033521E96
:100FB00001F8023DE9D1083E012E01F10807DBDB13
:100FC000DDE9020100F064FC00F082FC02460B4601
:100FD000DDE9020100F08AFC00224B4600F046FDEC
:100FE000CDE90201CAE700BFA0860100000024404D
:100FF0000000F03F84D797410DF11100381A0DF130
:10100000110702E0401E6D1E7F1C39783029F9D08F
:10101000BBF1660F08BF691C04D0BBF1650F0CBFA4
:1010200001210021226B8E1836B2B042B8BF0646AD
:1010300036B231001AD4814204DA785C3528A8BF70
:10104000392000DA30207A18521E00E0761E12F89D
:101050000139491E8342F9D0392802D1785C401CFD
:101060007854002902D57F1E761C6D1C2DB29DF888
:101070003810009533B23A46204600F003F80FB01E
:10108000BDE8F08F2DE9F04786B006468A469046C7
:101090001D4600F006FF012D406A376B90F8009066
:1010A00002DA01250FF278284AF02000BDF9384015
:1010B000662808BF641C12D0672878D114F1040F89
:1010C0007BDBBC4279DA96F83800641C000702D456
:1010D000BD42B8BF2F4624B23F1B48BF002724B2F1
:1010E000F068B169012C23DA4A1C30234354012FE4
:1010F00003DA96F83800000703D5F06800F802908C
:10110000521CE742B8BF7C4224B260427062E719C9
:10111000AF42B261B8BF3D46F068B3692DB2F56128
:101120002A464146184400F0CDF9781BB062BCE075
:1011300022469542084416DA2A46414600F0C2F992
:10114000B1696918601B012FB161706203DA96F80A
:101150003800000705D5F06800F80190F069401CE0
:10116000F061B762A1E0414600F0ACF9B069201827
:101170002D1B012F03DA96F83810090703D5F16803
:1011800001F80090401CB0612DB2AF42B8BF3D469F
:10119000F068B3692DB22A4608EB0401184400F048
:1011A00091F9B0692818B061781B70627DE0BAF1DE
:1011B000610F14D14FF0700A16E0BD4204DA96F8C0
:1011C0003810090758BF2F467F1E48BF0027BAF1C5
:1011D000670F14BF4FF0450A4FF0650A04E0BAF1FB
:1011E000410F08BF4FF0500AB169F368481CB06165
:1011F000012F18F8012B5A5403DA96F83810090712
:1012000017D5F168431CB36101F80090012F10DB82
:101210006D1E2DB2AF42B8BF3D46F0682DB22A46D2
:101220004146184400F04EF9B0692818B061781BA7
:101230007062F068B1690144200081F800A004D414
:101240002B20487001F1020804E02D224A7001F1C0
:1012500002086442002502AF08E00A22684600F056
:1012600039FE019807F8010B6D1C009C21B2012981
:10127000F3DA022D06DA4AF02000652804BF302098
:1012800008F8010B4DB9302008F8010B07E06D1E7E
:1012900002A8405D303008F8010B012DF7DAF06844
:1012A000B1690844A8EB0000F06196F8380000F03E
:1012B000140010280DD17069B1690818716A0818F6
:1012C000F1690818B16A0818716B8842BCBF081A26
:1012D000306206B0BDE8F087F8B504460D46164604
:1012E0001F46002077B116F8011BA868A047A86028
:1012F00030B1E86A401CE86200207F1EF3D1F2BDE5
:101300004FF0FF30F2BD00000000000000000000C0
:101310006E616E004E414E00696E6600494E460099
:101320003000F8B504460D4616461F4600F0DAFDBB
:101330003B4632462946204601B0BDE8F04000F069
:10134000E8BD00000278C9B28A421AB11CBF10F889
:10135000012FF9E718BF00207047000000F10103DA
:10136000810704D010F8011B89B18107FAD1026806
:10137000B2F10131914311F0803F04BF50F8042FC6
:10138000F6E710F8011B11B110F8011BFBE7C01ABA
:1013900070470000C9B2830706D0521E22D310F84E
:1013A000013B9942F7D11FE0083A13D302F104023E
:1013B00041EA012141EA014150F8043B121F21BFDB
:1013C0004B40A3F1013C2CEA030C1CF0803FF3D00E
:1013D000C9B2001F083210F8013B521E28BF91EA23
:1013E000030FF8D818BF0120401E704780B500F0E9
:1013F00079FD012002BD000070B5054605F10F0022
:10140000C408AFF30080E400A54232D2082C04D215
:10141000082402E0083000F091F822480268110028
:101420000CD1011D0A6802B31368A34238BF111D15
:10143000F8D310E01D68A5420DD2191D0B68002BD2
:10144000F8D11268011D00E0191D0B6893420CD001
:101450001D68A542F8D361B10D682A68A2F108039E
:10146000A3420AD26A680A600FE000F075FD002806
:10147000D0D1AFF30080002070BD2B190B60121B80
:101480006E685E600B681A602C60096800291DBFD9
:101490004A68002A091D00210160AFF3008005F1B0
:1014A000080070BD0C0C002070B504460D461646B1
:1014B00000F018FD324629462046BDE8704000F095
:1014C0001BBD000062B38B0708D0521E11F8013B10
:1014D00000F8013B00F024808B07F6D1830740F031
:1014E000208000BF103A07D330B4B1E83810103A6A
:1014F000A0E83810F9D230BC530724BFB1E8081077
:10150000A0E8081044BF51F8043B40F8043BD20760
:1015100024BF31F8022B20F8022B44BF0B78037054
:101520007047083A07D3B1E80810083A40F8043B7E
:1015300040F804CBF7D25307E4E7000000B9704746
:1015400038B5A0F108042068082833D310F0070F3D
:1015500030D1AFF300801848416809B18C4203D202
:101560006160446017E019464B680BB1A342FAD39F
:101570000B68CD18AC421BD3A54204D12268D21807
:101580000A600C4607E04A681AB1236823449A426D
:101590000ED362604C60616851B12268A3188B421F
:1015A00006D10023036008688018206048686060E6
:1015B000AFF3008031BD00000C0C00201B4213D1A2
:1015C000094236D12AB18446B0FBF2F002FB10C2C8
:1015D000704700F0D7BCFCD30022002370470B00FB
:1015E0000200002100207047904271EB030CF6D3FB
:1015F00070B5B1FA81F4B3FA83F52C1BA340C4F1A2
:10160000200532FA05F63343A2405FF00046E6407B
:1016100002E05B085FEA3202841A71EB030524BF23
:10162000204629467641F4D302000B003000002109
:1016300070BD012ACFD970B5140C20D0B1FA81F455
:10164000B2FA82F5C4F120046419B4F12006D6D3AD
:10165000B2405FF00044F440002502E052085FEA27
:101660003303C61A71EB020E24BF30467146644143
:101670006D41F3D302000B002000290070BD0C4621
:10168000B1FBF2F102FB11452D0445EA1045B5FB13
:10169000F2F402FB145580B240EA0545B5FBF2F0C6
:1016A00002FB105240EA044070BD30B4436803F0BE
:1016B00000420121C3F313034360002B04BF0368FE
:1016C000002B08D10DE00368DD0F45EA44044460B7
:1016D0005B000360491E4468E302F4D5C4F31303BE
:1016E000436043681A434260084630BC70470000BC
:1016F0004FF4001C1CEB410F94BF1CEB430F09E09F
:1017000041EA030C50EA4C0C52EA0C0C03D2994209
:1017100008BF9042704714BF8B428242704700005E
:101720004FF4001C1CEB410F94BF1CEB430F09E06E
:1017300041EA030C50EA4C0C52EA0C0C03D28B42E7
:1017400008BF8242704714BF994290427047000020
:1017500070B504460D466068C0F30A5040F2FF7150
:10176000884207D16068000304BF2068002817D0B2
:10177000022070BD20B92046FFF797FF012866DAE6
:10178000012D0FDB40F2FF71091A8D420AD3606808
:1017900000284CBF9FED2F0B9FED300B84ED000B0D
:1017A000012070BD4142A942616806DA6FF31E5103
:1017B000401941EA0050606040E0401E63684519EE
:1017C000012205F1350062F31F53352801F0004175
:1017D000636003D361600020206070BD002015F1BC
:1017E0001F0F04DA206823600022203562606A42FD
:1017F00012D0401E25688041C2F12003C0439D40A5
:1018000045EAD07025686668D54006FA03F32B4395
:1018100023606368D340636062680A43B0F1004F9D
:10182000626003D80DD12078C0070AD52068401C1B
:101830002060206828B96068401C60604FF0FF306D
:1018400070BD6068884204BF20680028F6D100207F
:1018500070BD00BF000000000000F0FF00000000AD
:101860000000F07FF446400D40EAC120490006D256
:1018700000F014F8004248BF6FF00040604700F0ED
:101880000DF84FF0004188428CBF08464042604747
:10189000400D40EAC120490080F00D8040F000403A
:1018A000490DA1F58061491C05D4D1F11F0154BF38
:1018B000C840C01770474FF000007047010040F16A
:1018C0000980F446404200F005F851F000416047BD
:1018D000010000BF09D0B0FA80F18840C91CC1F5F1
:1018E0008461090501EBD02140057047F0B44FF049
:1018F000004591EA030F44BF6B4000F04FBB00BFAF
:10190000841A71EB030604D26E40001BB141121918
:1019100073414FF4001C1CEB410F34BF7CEB4306BA
:1019200084E00C0DA4EB1356362E7DDC012E43DC37
:1019300045EAC32343EA525312BFD20292025B0824
:10194000240545EAC12141EA5051D2EBC02099411A
:1019500025D407D1B0FA80F610FA06F164D0002041
:10196000203608E0B1FA81F6B140C6F1200220FA33
:1019700002F21143B0404FEAF474B4EB465434F031
:1019800001064FEA74040AD8D6F50016760D04F065
:101990000044F04061FA06F25040F1404840C00A6D
:1019A00040EA415021F0004128BF5FEA500550F164
:1019B000000044EBD12137E045EAC323DB0A45EAC6
:1019C000C121C90AB6F120050EDD42EA0242120C1D
:1019D000C5F1200603FA06F6EB4042EA06056D4221
:1019E000984161F100010DE062FA06F5F2405540C0
:1019F00063FA06FC82EA0C02F3405A406D429041C1
:101A000061EB030111F4801F05D1641E620502D051
:101A10006D004041494121F48011430875F10043B4
:101A200050F1000041EB0451F0BC70471CEB410F3A
:101A300015D223F0004352EA43060BD04FEA4C0C78
:101A4000BCEB410F04D80C0D661E342EB7DDEBE75E
:101A5000801A994150EA410608BF0021E4E708BF17
:101A60001CEB430F28BF6FF00001DDE7B0B581EA42
:101A7000030C0CF0004C40F2FF7515EA11541DBF29
:101A800015EA1357AC42AF4239E0E41923EA455353
:101A900043F48013C90241F0004141EA505EC7029D
:101AA0001100A7FB020200284FF00000EEFB01200E
:101AB0004FF00001E3FB072118BF42F0010240187C
:101AC00000214941E3FB0E01A4F580640F0302D21B
:101AD00052004041494154F101046CDD470872F164
:101AE000004250F1000051EB0451A1F580115CBFA0
:101AF00041EA0C01B0BD4CEA05510020B0BD05EA39
:101B00001357AC4214BFAF4241E050EA410E1CBF34
:101B100052EA430E02E061460020B0BD24423C443C
:101B20001BD15FEA070EF6D0090302BF0146002071
:101B3000AEF1140EB1FA81F7AEEB070401FA07FE1D
:101B40000C37C7F1200100FA07F7C8404EEA000E33
:101B500023EA455343F48013A2E733F00043B3FA7A
:101B600083F704BFB2FA82FE77440B3FE41BB7F160
:101B7000200E2FBF02FA0EF3BB40C7F1200E22FA4F
:101B80000EFE38BF43EA0E03BA40641C82E750EAF7
:101B9000410E14BF52EA430E6FF000014FF40017DC
:101BA00017EB430F8ABF194617EB410FB5E74CEA15
:101BB00005510020B0BDD4F10104B4F120070FDAC3
:101BC000C4F12007520828BF42F0010210FA07F5BD
:101BD00001FA07F7E1BF2A43E0403843E1400FE054
:101BE000352C98DCC7F1200452EA400220FA07F2B3
:101BF00018BF42F0010231FA07F0A1400A43002168
:101C000072F1004250F1000051EB0C01B0BD000038
:101C10002DE9F04140F2FF7581EA030C0CF0004C15
:101C200015EA11541DBF15EA1357AC42AF42E9E063
:101C3000BC41C1F31301C3F31303801A994143F468
:101C4000801304D2641E4000494180185941C902E2
:101C500041EA5051B1FBF3F603FB1611A2FB0675E6
:101C6000D7EBC020A94102D2761E80185941C90283
:101C700041EA5051B1FBF3FE03FB1E11A2FB0E75AE
:101C8000D7EBC020A94103D2AEF1010E8018594113
:101C9000890241EA9051760546EA8E2EB1FBF3F6B1
:101CA00003FB1611A2FB0675D7EB8020A94102D2D7
:101CB000761E80185941C90241EA50514EEA060E7B
:101CC000B1FBF3F603FB1611A2FB0675D7EBC020A0
:101CD000A94102D2761E80185941C90241EA5051E9
:101CE000B1FBF3F703FB1711A2FB0735D3EBC020C1
:101CF000A94167F100070CBF004247F0010766F3F6
:101D0000D5274FEA1E31B80814F5806414DDBD07ED
:101D100075F1004250EB0E5051EB045111F5801F4C
:101D20005CBF41EA0C01BDE8F0814CF07F6141F0FD
:101D3000E0410020BDE8F081BD076D0840EA0E508B
:101D400041F48011D4F10104B4F120060ADAC4F19F
:101D500020060200E04001FA06F3E1401843B240D9
:101D600015430EE0342C14DCC6F1200445EA40058E
:101D70006D0820FA06F2154321FA06F0A1400D4342
:101D8000002175F1004250F1000051EB0C01BDE85B
:101D9000F08100205FEA0C01BDE8F081CFB9921814
:101DA0005B41B3FA83F704BFB2FA82F6BF190B3F67
:101DB000B7F120062FBF02FA06F3BB40C7F1200699
:101DC00022FA06F638BF3343BA401CB1E419641E48
:101DD0002FE77F4231F00041B1FA81F404BFB0FA3D
:101DE00080F6A4190B3CB4F120062FBF00FA06F1CF
:101DF000A140C4F1200620FA06F638BF3143A040C6
:101E00003C1B16E7AC421ABF05EA1357AF4214E079
:101E100050EA41061CBF52EA4306BFE750EA4107B9
:101E2000304661461CBF41EA0551BDE8F08152EAE7
:101E3000430C08BFC143BDE8F08100204FF40016F9
:101E400016EB410F98BF16EB430F08BF16EB410F7F
:101E500024BFC14305E016EB430F0CBF61464CEABB
:101E60000551BDE8F081000080B5134800F000F98D
:101E70000FF24C020FF244010160426241600FF226
:101E80004402826381600FF24402C16001614161DA
:101E900081618162C16201634163C2630164416423
:101EA00001BD10B5044800F0E3F80446206808B905
:101EB000FFF7DAFF204610BDC4000020000000003C
:101EC0002E00000066616C73650000007472756519
:101ED0000000000091FBF2F303FB1211C0E9003196
:101EE0007047000080B5DFF80C0000F0C1F8806991
:101EF00002BD00005401002030B430B90FF2480098
:101F0000D0E90045C2E900451BE00170012030BC6A
:101F1000704730B431B90FF23800D0E90045C3E959
:101F200000450EE01AB930BC6FF00100704708B1EF
:101F30000A7802800978481E804130BCC043C00F37
:101F40007047002030BC7047000000000000000017
:101F500000000000000000000749086808B10020E8
:101F600070470648C008C00008600549C908C90094
:101F7000091A0160704700BF140C0020C70500203B
:101F8000C007002070470000F0B44FF0004591EA10
:101F9000030C44BF6B40FFF7B3BC00BF841A71EB66
:101FA000030603D2001BB141121973414FF4001C08
:101FB0001CEB410F34BF7CEB430443E00C0DA4EB5E
:101FC0001356352E50DC45EAC323DB0A45EAC1210E
:101FD000C912B6F120050DDD63FA05F6EB4086EA7D
:101FE0000305124218BF45F00105C01851F1000168
:101FF0000CD213E062FA06F5F2405540F3415A4024
:10200000B340F3405A408018594107D349085FEA6A
:1020100030005FEA350528BF45F0010501F5801164
:10202000420875F1004250F1000041EB0451F0BC50
:102030004FF4001C1CEB410F38BF70470020090D06
:10204000090570471CEB410F10D252EA43060BD032
:10205000BCEB410F05D80C0DAB43661E342EB5DD2D
:1020600002E0AB4380185941F0BC7047F0BC7047A8
:1020700070470000DFF86C1D886001F10C0001F072
:1020800099B80021002001F029B910B540F2531091
:1020900001F06CF904464FF4AA7001F067F940EAC8
:1020A000042010BD00B583B000208DF8000001228F
:1020B0006946C02001F0C9F89DF800008DF80400C1
:1020C000019803B000BDDFF81C0D0078704701B522
:1020D00082B09DF808009DF80810C000490000F08B
:1020E000080001F0040108439DF80810490801F0B8
:1020F000020108439DF80810C1F3C00108438DF8A0
:1021000000000020DFF8DC1C0870012269468420F2
:1021100000F0EEBB01B501226946802001F064F8B1
:102120009DF80000DFF8BC1C00280CBF0120022035
:10213000087001BD80B500220021C12001F054F8D3
:10214000DFF8A01C0320087001BD11B583B001AAFF
:102150009DF80C00BDF80E10DFF8884C8DF80400D7
:102160009170080A50700222FF208DF800008DF84F
:1021700001006946972001F037F86078022808D1FD
:1021800001208DF8020001220DF10201A32001F0CF
:102190002BF8032201A9832001F026F8042029E06E
:1021A00011B583B001AA9DF80C00BDF80E10DFF840
:1021B000344C8DF804009170080A50700222FF2000
:1021C0008DF800008DF801006946972001F00CF8A9
:1021D0006078022808D100208DF8020001220DF15C
:1021E0000201A32001F000F8032201A9822000F0DF
:1021F000FBFF0520207004B010BD00B583B08DF842
:102200000000080A8DF801008DF80210100A8DF800
:1022100003008DF8042069460522942000F0E4FFB5
:10222000DFF8C01B0520087003B000BD80B5002298
:102230000021C52000F0D8FF4EE000220021D1206F
:1022400000F0D2BF00220021D22000F0CDBF01B5A6
:10225000DFF8901B4870012269468A2066E3DFF8A8
:10226000840B40787047000038B5FFF731FB044617
:102270000D469FED951B9FED960B01F02DFB53EC4A
:10228000102B0020DFF8681BFFF7C2FC02460B464C
:1022900020462946FFF7BCFCFFF7FAFA010C8DF83F
:1022A00000108DF80200010A8DF801100322694622
:1022B000862000F099FF31BD80B512308DF8000006
:1022C0008DF80110022269468E202FE301B501220C
:1022D0006946882000F088FFDFF8081B0620087098
:1022E00001BD80B58DF800008DF80110022269460D
:1022F0008F201BE330B50446DFF8E85A697883B0D5
:102300002078814207D08DF804006870012201A96D
:102310008A2000F069FF207878B1012818BF0228D0
:1023200013D003281DD0042823D00F2802BF00207B
:10233000ADF800008DF8020024E060788DF8000010
:10234000A1788DF80110E1781AE020798DF800006D
:1023500061798DF80110A1798DF802106079A8706B
:1023600010E0E0798DF80000217A8DF80110617A93
:1023700006E0A07A8DF80000E17A8DF80110217B4B
:102380008DF80210032269468B2000F02DFF03B068
:1023900030BD10B50446DFF84C1A4A7884B0207876
:1023A000824207D08DF808004870012202A98A20D5
:1023B00000F01AFF207880B1012818BF022820D031
:1023C000032831D0042843D00F2801BF00200090FB
:1023D000ADF804008DF806004BE060788DF8000041
:1023E000A1788DF80110E1788DF8021021798DF82F
:1023F000031061798DF80410A1798DF80510E17949
:1024000035E0207A8DF80000617A8DF80110A17A0C
:102410008DF80210E17A8DF80310217B8DF80410FD
:1024200000218DF8051022E0607B8DF80000A17B73
:102430008DF80110E17B8DF80210217C8DF80310DE
:10244000617C8DF80410A17C8DF80510E17C0EE014
:10245000207D8DF80000617D8DF80110A17D8DF843
:102460000210E17D8DF803100021ADF804108DF805
:102470000610072269468C2000F0B6FE04B010BD9D
:1024800070B582B005460C4602226946172000F05E
:10249000DCFEDFF85069707801280AD140F603109D
:1024A00000F064FFC00904D040F6011000F05EFFA8
:1024B00005E0707804289DF8000008BF801C287093
:1024C0009DF80100207073BD000000000000324044
:1024D00000000000000000401CB5044605226946CB
:1024E0001D2000F0B2FEDFF8FC084078207068B1D3
:1024F000012818BF02286BD0032800F0D3800428DD
:1025000000F044810F2800F0A08113BD9DF8000069
:102510004008404260709DF8011049084942A1708E
:102520009DF80220E178920901F0FE0102F001021B
:102530001143E17001F0FD019DF80220520902F003
:10254000010241EA4201E17001F0FB019DF8022025
:10255000120902F0010241EA8201E17001F0F70183
:102560009DF80220D20802F0010241EAC201E170A6
:1025700001F0EF019DF80220920802F0010241EA09
:102580000211E17001F0DF019DF80220520802F013
:10259000010241EA4211E17001F0BF019DF8022001
:1025A00002F0010241EA8211E1709DF803202179D5
:1025B000520901F0FE0102F001021143217101F004
:1025C000FD019DF8032002F0010241EA420134E1DD
:1025D0009DF800004008404260709DF8011080297D
:1025E000B8BF890805DBA1F580714A1001EB927133
:1025F0008910A1709DF80220E178920901F0FE0196
:1026000002F001021143E17001F0FD019DF802208A
:10261000520902F0010241EA4201E17001F0FB01BE
:102620009DF80220120902F0010241EA8201E170E4
:1026300001F0F7019DF80220D20802F0010241EA00
:10264000C201E17001F0EF019DF80220920802F052
:10265000010241EA0211E17001F0DF019DF8022060
:10266000520802F0010241EA4211E17001F0BF019B
:102670009DF8022002F0010241EA8211E1709DF80A
:1026800003202179520901F0FE0102F001021143F9
:10269000217101F0FD019DF8032002F0010241EAE1
:1026A0004201CAE09DF800004008404260709DF879
:1026B000011049084942A1709DF80220E178920971
:1026C00001F0FE0102F001021143E17001F0FD0191
:1026D0009DF80220520902F0010241EA4201E17034
:1026E00001F0FB019DF80220120902F0010241EA0B
:1026F0008201E17001F0F7019DF80220D20802F09A
:10270000010241EAC201E17001F0EF019DF80220EF
:10271000920802F0010241EA0211E17001F0DF01CA
:102720009DF80220520802F0010241EA4211E170D4
:1027300001F0BF019DF8022002F0010241EA82117E
:10274000E17021799DF8032001F0FC0141EA92112A
:10275000217101F0FB019DF80320520902F00102F2
:1027600041EA8201217101F0F7019DF8032012096D
:1027700002F0010241EAC201217101F0EF019DF86E
:10278000032002F0010241EA021156E09DF8000028
:102790004008404260709DF8011049084942A1700C
:1027A0009DF80220E178920901F0FE0102F0010299
:1027B0001143E17001F0FD019DF80220520902F081
:1027C000010241EA4201E17001F0FB019DF80220A3
:1027D000120902F0010241EA8201E17001F0F70101
:1027E0009DF80220D20802F0010241EAC201E17024
:1027F00001F0EF019DF80220920802F0010241EA87
:102800000211E17001F0DF019DF80220520802F090
:10281000010241EA4211E17001F0BF019DF802207E
:1028200002F0010241EA8211E1709DF80320217952
:1028300001F0FE0102F00102114321719DF8040034
:10284000617960F30201617113BD0621204601F038
:1028500063FA0F20207013BD80B500208DF80000B2
:10286000012269461F2000F0F0FC9DF8000040089E
:10287000404240B202BD1CB58DF801008DF8031036
:102880008DF80520040A080A8DF802008DF807303B
:10289000100A8DF804008DF80040180A8DF8060023
:1028A000082269468D2000F09FFC13BD80B50222EE
:1028B0006946152000F0C9FC9DF800009DF8011044
:1028C00041EA002002BD80B5010A8DF800108DF8A4
:1028D000010002226946972028E001B582B001225A
:1028E0009DF8080000F03F008DF80000694689203F
:1028F00000F07AFC03B000BD01B5012269469620C4
:1029000014E000220021D52000F06EBC80B52138F3
:1029100080B2010A8DF800108DF8010003E080B547
:102920000020ADF8000002226946982000F05CFC0F
:1029300001BD01B5012269469E20F7E701B50122DC
:1029400069469B20F2E70A460146002000F016BDCA
:10295000F8B504460D46164602226946172000F0D7
:1029600074FCDFF82078787801280AD140F603104B
:1029700000F0FCFCC00904D040F6011000F0F6FCA9
:1029800005E0787804289DF8000008BF801C2870B6
:102990002A78964201D20120F2BD9DF8010021461D
:1029A00000F017FD0020F2BD10B514460A4601469E
:1029B000002000F0E3FC2046BDE81040FFF7C5BB57
:1029C00080B5DFF8C027527822B1032A16D0042A36
:1029D00021D025E00522012804D021D303280AD0E4
:1029E00006D31DE040F6CE1000F05CFC002002BDD6
:1029F00040F6D310F8E740F6D810F5E70422012896
:102A00000BD00DD3032803D00AD240F6D410EBE745
:102A100040F6D910E8E7012802D140F6CF10E3E7ED
:102A2000012002BD38B5044640F6CD15284600F019
:102A30009DFC00F0F00004F00F01014397E080B529
:102A40008DF80100010ADFF83C0740788DF800108E
:102A5000002818BF032805D10222694640F6C81095
:102A600000F020FC01BD10B50446210E40F6CF1049
:102A700000F034FC2102090E4FF41D6000F02EFC22
:102A80002104090E40F6D11000F028FCE1B2BDE8A7
:102A9000104012E080B58E2140F6CF1000F01EFCF1
:102AA00089214FF41D6000F019FCBE2140F6D110C1
:102AB00000F014FCBDE80440D62140F6D21000F02E
:102AC0000DBC80B58DF80100010ADFF8B80640782A
:102AD0008DF80010002818BF032805D1022269468E
:102AE00040F6C61000F0DEFB01BDDFF8981649780D
:102AF00011B1C91E012904D8014640F6C51000F0E5
:102B0000EDBB704710B540F69F04204600F02EFC48
:102B100040F08001204600F0E1FB40F6950420469D
:102B200000F024FC00F0FE0111E010B540F69F0417
:102B3000204600F01BFC00F07F01204600F0CEFB99
:102B400040F69504204600F011FC40F001012046BB
:102B5000BDE8104000F0C2BB38B5044640F69E0503
:102B6000284600F003FC00F0F00044EA000128468B
:102B7000BDE8344000F0B2BB10B548B101280FD118
:102B800040F69104204600F0F1FB40F0C00106E061
:102B900040F69104204600F0E9FB00F03F01D6E743
:102BA00010BD38B50446DFF8DC05407802280ED1A8
:102BB00040F63115284600F0D9FB00F03F0040EA0E
:102BC00084112846BDE83440C9B200F087BB31BD4E
:102BD00080B5010E8DF800108DF803006946020CD7
:102BE0004A70020ADFF89C0540788A70022804D1F6
:102BF000042240F6161000F055FB01BD80B5010E11
:102C00008DF800108DF803006946020C4A70020A24
:102C1000DFF8700540788A70022804D1042240F65B
:102C2000121000F03FFB01BDF8B56E4D04462DEDCE
:102C3000028B6878022882B09FED6B8B40F0898010
:102C400001208DF8000001226946802000F0CCFAB6
:102C50009DF8000000280CBF01200220287040F6DB
:102C60007F16304600F082FB40F00201304600F053
:102C700035FB40F62416304600F078FB210100F0C9
:102C8000CF0001F030010143304600F027FB40F651
:102C9000611000F06BFB064640F6621000F066FB28
:102CA000000240EA064640F6631000F05FFB064370
:102CB00000208DF8000001226946802000F094FA7F
:102CC0009DF8000000280CBF0120022028701CB1D4
:102CD000641E022C2ED93CE0B6F5000F28BF06F189
:102CE0007F46A87800270A2808D0182809D0262867
:102CF0000AD0342808BFDFF8907407E0DFF88C743E
:102D000004E0DFF88C7401E0DFF888743046FEF7E9
:102D1000D5FD04460D463846FEF7D0FD02460B466B
:102D200020462946FEF774FF0022DFF86C34FEF7D8
:102D30009DFE0CE03046FEF7CBFD0022DFF85C3450
:102D4000FEF794FE0022DFF85834FEF761FF41ECF5
:102D5000180B02B0B0EE480AF0EE680ABDEC028B28
:102D6000F1BD10B582B001208DF800000122694646
:102D7000802000F039FA9DF80000DFF808140028E0
:102D80000CBF01200220087040F67F14204600F09E
:102D9000EDFA40F00201204600F0A0FA40F62414BB
:102DA000204600F0E3FA00F0CF01204600F096FA4A
:102DB00040F6641000F0DAFA16BD10B50446DFF8EC
:102DC000C403407802280BD1210A40F62C1000F0F1
:102DD00085FAE1B2BDE8104040F62D1000F07EBA51
:102DE00010BD00006C00002000000000000000008A
:102DF000A8CB884138B540F62314204600F0B6FA37
:102E0000054645F02001204600F068FA05F0DF0194
:102E10002046ADE67F28B8BF7F20014640F61E1051
:102E200000F05CBA80B58DF8000001226946A3204D
:102E30007CE5000070B5DFF84C436078401E012847
:102E40009FED320B4DD840F6541000F08FFA054636
:102E500040F6551000F08AFA000240EA054540F6B7
:102E6000561000F083FA2843C0F31300B0F5002F8A
:102E700028BFA0F58010A17800260A2908D01829BB
:102E800009D026290AD0342908BFDFF8FC6207E000
:102E9000DFF8F86204E0DFF8F86201E0DFF8F462DE
:102EA000FEF70CFDDFF8FC22DFF8FC32FEF7DEFD5A
:102EB00004460D463046FEF701FD02460B46002053
:102EC000DFF8E812FEF7A4FE0022DFF8E432FEF796
:102ED000CDFD02460B4620462946FEF799FE41EC01
:102EE000100B70BDDFF89C120120C8707047A54917
:102EF0000020C8707047A348C178002908BF00F0BF
:102F000009B80121017170470000000000000000B5
:102F10000000000070B59B4CE0782179084282B037
:102F200003D072B60020207162B60222667869462C
:102F3000152000F08AF99DF800009DF8011041EA83
:102F40000025FF208DF800008DF80100022269465F
:102F5000972000F049F9042E00F21281DFE816F004
:102F600005004500C300050005002078042800F096
:102F70008980052840F00481A80718D5A068690653
:102F800005D5E0B18169080011D0022008E02907C9
:102F900008D5002800F0F4808169080007D00120DE
:102FA000884704E0B0B14068010018BF8047680757
:102FB00005D5A06870B18068010018BF8047280758
:102FC00008D5A068002800F0DB80816908001CBFDC
:102FD00001208847680448D5A068002800F0D08008
:102FE0004069010041D080473FE02078042849D063
:102FF000C0F0C680062858D080F0C280A8070ED541
:10300000A068690606D590B18169080007D0022042
:10301000884704E058B14068010018BF8047E806BF
:1030200005D5A06860B1C068010018BF8047A80638
:1030300006D5A06870B1816908001CBF00208847D0
:10304000680407D5A068002800F09A804069010054
:1030500018BF8047E80508D5A068002800F09080D8
:10306000816908001CBF03208847E80740F1888079
:10307000A068002800F084800068010000F08080D3
:10308000804773BDE80706D5A068002878D000689F
:10309000010018BF8047680472D5A06800286FD06F
:1030A000006901006CD0804773BDE80411D5A068A9
:1030B000A90406D5002863D0016A080060D0012069
:1030C00005E000285CD0016A080059D0002088473C
:1030D00073BD680454D5A068002851D04069010030
:1030E0004ED0804773BD2078042837D0052847D1BB
:1030F000E80506D5A06868B1C16908001CBF0020BA
:103100008847280506D5A06868B1C16908001CBFBA
:1031100001208847280606D5A06868B1C169080063
:103120001CBF01208847680406D5A06840B3C16968
:1031300008001CBF00208847E80605D5A068F8B144
:10314000C068010018BF8047A80619D5A068B8B1AB
:103150008169080014D00020884773BD680506D532
:10316000A06868B1C16908001CBF02208847A80593
:1031700006D5A06820B1C16908001CBF032088479C
:1031800073BD00006C00002075190300A8CB180067
:10319000D4650C00EA320600A3E1E14000003440AF
:1031A00000005940CDCCCCCCCCCCF83F00009940AD
:1031B00000408F4080B500E080B5142000F01AFE7A
:1031C000002201214FF0904000F024FE322000F058
:1031D00011FE012201214FF0904000F01BFEBDE8DE
:1031E0000240142000F006BE2DE9F04104460D46D1
:1031F0001646DFF858820821404600F0F7FE012805
:10320000F9D000224FF480714FF0904000F002FEA0
:103210008F4F32463C702946781CFEF753F9711CDB
:1032200089B2384600F026FF01224FF480714FF03A
:10323000904000F0EFFD842C05D00821404600F0BE
:10324000D5FE0128F9D0BDE8F0812DE9F041804E8E
:103250003070002017467070BD1C38000C4606D038
:103260003046394600228270401C491EFBD1DFF8EF
:10327000DC810821404600F0B9FE0128F7D0002289
:103280004FF480714FF0904000F0C4FD4FF4807017
:103290003118AAB2304600F0DBFE4FF481703118CD
:1032A0003A4651E070B51446694D684EA870182230
:1032B0002A70020A6A70E81C2246FEF703F9082108
:1032C000304600F093FE0128F9D000224FF48071BF
:1032D0004FF0904000F09EFDE11C68E002B5012235
:1032E0006946FFF7DFFF01BD2DE9F0410C46584F5D
:1032F000B8701921154639702E1D010A0020F8708A
:103300007970280006D03846294600220271401CF8
:10331000491EFBD1DFF834810821404600F066FEEB
:103320000128F7D000224FF480714FF0904000F058
:1033300071FD4FF480703918B2B2384600F088FE43
:103340004FF4827039182A462046FEF7BBF8012256
:103350004FF480714FF0904000F05CFD0821404632
:1033600000F044FE0128F9D0BDE8F08180B50122CB
:103370006946FFF7B9FF9DF8000002BD70B514461D
:10338000334D324E68701A222A70A81C2246FEF76E
:1033900099F80821304600F029FE0128F9D00022D2
:1033A0004FF480714FF0904000F034FDA11C89B2C1
:1033B000284600F05FFE01224FF480714FF09040EC
:1033C00000F028FD0821304600F010FE0128F9D059
:1033D00070BD2DE9F04115460C46EF1C1C4E707077
:1033E0000020B0701B212800317003D02946F01C4A
:1033F00000F092FCDFF854800821404600F0F6FD12
:103400000128F7D000224FF480714FF0904000F077
:1034100001FD4FF480703118BAB2304600F018FE4A
:103420002A4606F203118FE710B50821074800F07D
:10343000F4FC04464FF480614FF0904000F0EDFC46
:1034400044EA4000C0B210BD000000000004004883
:10345000C0070020000000002DE9FF4D2DED088B76
:1034600086B040F2FF710F989DED100B8DED040BAF
:10347000C0F30A50884208D10F980024000305BF0A
:103480000E9800280225012512E0012807DA0EA86F
:10349000FEF70BF9012802DB0024002508E00F9A53
:1034A00040F2FE3161F31E520F92441A4FF0FF3585
:1034B000002104A800F0EAFD1A9F06460FB1002083
:1034C000388036B9DDE910230020002100F01EFE0F
:1034D00012D0002D13D524B2012C15D1DDE90E2315
:1034E0000020DFF88C1300F011FE05D0012E0BD167
:1034F000DE4900F00BFE3ED106B0CD49E7E1022DDA
:1035000004D1DDE90E01E1E1012E6FDB022E08BFDF
:10351000DDE9100100F0DA81012D2AD10F98002891
:10352000119806D4002854BF9FEDD40B9FEDD50B06
:10353000CAE100280ED456B94FF0FF3104A800F0BC
:10354000A5FD002848BF9FEDD10B00F1BD819FED87
:10355000CB0BB9E156B94FF0FF3104A800F096FD4E
:10356000002848BF9FEDB30B00F1AE819FEDC50B66
:10357000AAE1012E11D11198002824B206D4012C01
:10358000ACBF9FEDBE0B9FEDBF0B9DE1012CACBF0F
:103590009FEDBC0B9FEDB90B96E11198002810D45C
:1035A00066B94FF0FF3104A800F070FD002842BF5B
:1035B0000F9800289FED9F0B00F186819FEDB10BC6
:1035C00082E100F0B3FD2221016066B94FF0FF31C6
:1035D00004A800F05BFD002842BF0F9800289FED73
:1035E000AB0B00F171819FEDA50B6DE10F980028E9
:1035F00048BF002E0BD500F099FD2121016006B0D7
:103600004FF0FF30BDEC088B6FF0004161E1DDE968
:103610000E0100220023FEF783F838BF002509D3EE
:1036200081F00041CDE90E014FF0FF3104A800F018
:103630002DFD0546012C13D1DDE90E017F4A804B9B
:10364000FEF756F80CD2DDE90E2300204FF0804142
:10365000FEF70CFACDE90E0100269FED7A8B1DE0F6
:10366000DDE90E2300207949FEF700FA9FED788B03
:1036700053EC182BFEF788FCFEF7F4F8A0F12006B7
:103680003046FEF71BF90022734BFEF7EFF953ECBF
:10369000182BFEF779FC41EC180B76010FF258203D
:1036A0000644DDE90E0153EC182BFEF71FF9DDE9A6
:1036B0000E2341EC190B51EC180BFEF765FC02468A
:1036C0000B4651EC190BFEF7A3FA41EC1A0B53EC25
:1036D0001A2BFEF7CBF941EC1B0B8DED0E9B00F086
:1036E0002BFD53EC1B2BFEF7C1F9DDE90E23FEF792
:1036F000FDF882468B4600204D4953EC182BFEF70F
:10370000F5F800224FF08043FEF7B0F952465B46D1
:10371000FEF73AFC53EC1A2BFEF7A8F9DDE90E236D
:10372000FEF732FC41EC180B4C4A4D4BFEF770FA99
:10373000CDE904012046FEF7C1F841EC190BD6E9AA
:10374000000153EC192BFEF71FFCDDE90423FEF703
:103750001BFCCDE90401DDE91023FEF787F9002207
:10376000404BCDE90201FDF7C3FFC0F09380012279
:103770003D4BFDF7D5FF40F2918000220023FDF77D
:10378000B7FFDDE9022339BF00203849002038495E
:10379000FEF7FAFBFEF766F80446D6E9000153ECA3
:1037A000192BFEF7F1FBDDE91023FEF75FF98246E6
:1037B0008B462046FEF782F802460B465046594695
:1037C000FEF794F89FED2BAB53EC1A2BFEF74EF956
:1037D00082468B46D6E90201D6E90423FEF7D4FBE4
:1037E000DDE91023FEF742F953EC1A2BFEF73EF900
:1037F00006468846DDE9100153EC182BFEF736F932
:1038000032464346FEF7C0FB52465B46FEF7BCFB22
:10381000CDE902010FB13C80002400940022044B4A
:1038200002A800F0E1FCA8B3012837D042E000BFB5
:103830000000F03F0000000000000080CD3B7F66EC
:103840009EA0E63F000000000000F03F0000504056
:10385000000000000000E03F0000903FEF39FAFE5A
:10386000422EE63F0000E0C00000E0400000E0BF64
:103870000000E03FEF39FAFE422EE63F0000000074
:103880000000F07F000000000000000000000000C9
:103890000000F0FF0020CDE9020007E00020014910
:1038A00002E000BF0000F07FCDE9020100F03EFC25
:1038B00022210160002D1DBFDDE9020181F00041E0
:1038C00041EC100B9DED020B51EC100B06B0BDEC62
:1038D000088B04B0BDE8F08D80B50020009053EC5B
:1038E000112B51EC100BFFF7B7FD41EC100B01BD94
:1038F0000000000000000000000000000000F0BF19
:1039000000000000000000800000000000000080B7
:103910000000000000000000000000C05294EEBF54
:1039200000000048204E51BE000000F86467BCBC97
:103930000000000000000000000000208133EDBF07
:1039400000000080B3DB14BE000000506706A3BC7B
:103950000000000000000000000000D0E9DCEBBF28
:1039600000000008C39259BE00000080B0D3B8BC6C
:10397000000000000000000000000070F98FEABFA6
:10398000000000C0A51028BE000000E8BFC0B0BC09
:10399000000000000000000000000070284CE9BF9B
:1039A00000000060134B42BE000000C03D20B8BCC8
:1039B000000000000000000000000050FA10E8BF06
:1039C000000000C05FF62BBE000000905C71A7BC39
:1039D000000000000000000000000020FCDDE6BF49
:1039E000000000C0F8F154BE00000018E9F6B9BCB0
:1039F0000000000000000000000000D0C3B2E5BFDE
:103A000000000070E43254BE00000050DB06B4BC7D
:103A1000000000000000000000000010EF8EE4BF76
:103A200000000020F36252BE000000C02A879ABC4A
:103A30000000000000000000000000B02272E3BFA0
:103A4000000000F0E8E056BE00000028352DBDBCA7
:103A50000000000000000000000000000A5CE2BF5F
:103A6000000000B0FA8E41BE00000040AE6FBDBC49
:103A7000000000000000000000000000564CE1BF04
:103A8000000000F015CD5FBE00000000141C90BCCB
:103A9000000000000000000000000040BD42E0BF48
:103AA00000000030F93457BE000000E06C1E93BCEB
:103AB0000000000000000000000000E0F57DDEBF17
:103AC000000000B08A535EBE00000080DA77AABC16
:103AD0000000000000000000000000C09D81DCBF6D
:103AE00000000000FFA226BE0000006057E2B0BC4C
:103AF000000000000000000000000060F98FDABF45
:103B0000000000580A8151BE000000F05F60B8BCA0
:103B100000000000000000000000000098A8D8BFCE
:103B2000000000607A7F45BE000000D05433A3BC83
:103B30000000000000000000000000600FCBD6BFB6
:103B4000000000D091CB40BE000000406D1BA0BC27
:103B50000000000000000000000000A0FBF6D4BF41
:103B600000000098C5CE52BE000000003A397EBC6D
:103B70000000000000000000000000E0FE2BD3BFAA
:103B80000000004073872BBE00000000926879BCE3
:103B9000000000000000000000000040C069D1BF2C
:103BA00000000058F16353BE00000080438D7CBCD0
:103BB000000000000000000000000080D85FCFBFC0
:103BC000000000181F8354BE000000B03F42A2BC9A
:103BD00000000000000000000000008067FCCBBF78
:103BE00000000060FAFF53BE00000050E00DB8BCBA
:103BF00000000000000000000000000098A8C8BFFE
:103C0000000000607A7F35BE000000C0543393BCD2
:103C1000000000000000000000000000DC63C5BFE1
:103C200000000058D6FF54BE00000000396490BC6C
:103C30000000000000000000000000C0AD2DC2BF69
:103C400000000080A45915BE000000E0484BABBC4A
:103C50000000000000000000000000801A0BBEBF42
:103C600000000050BF3C5ABE000000A0B364B6BCC8
:103C700000000000000000000000008004D6B7BF74
:103C800000000040BBCF36BE0000008076CEA8BC4E
:103C900000000000000000000000008032BBB1BF47
:103CA000000000402A0043BE00000028C60CBDBC36
:103CB0000000000000000000000000009473A7BF97
:103CC000000000182B3B59BE000000C0E55DA5BCFC
:103CD000000000000000000000000000EE4397BF5D
:103CE000000000A0E6C340BE00000020958DB5BCDA
:103CF0000000000000000000000000000000008044
:103D000000000000000000800000000000000080B3
:103D10000000000000000000002200F0C9BB00000D
:103D200080B500F0F5FB00F00AF800F071F80FF232
:103D3000DD0000F003FCBDE8014000F07FB910B5E4
:103D40002948B8B0016821F01801016006200590EB
:103D50004FF48074012007900894102009900220ED
:103D60000F901090012011900820129007201390BE
:103D700002201490159005A800F00EFC00B1FEE79B
:103D80000F20009003210320019000200290039057
:103D90000490684600F05CFE00B1FEE71348169000
:103DA00000210020249024A88161C46416A800F09A
:103DB000A5FF00B1FEE74FF4007001F053FA00B127
:103DC000FEE700F028FF0A4AA0FB0221480A01F0A2
:103DD000C4FA042001F0D2FA002200214FF0FF3093
:103DE00001F087FA38B010BD901002404100020087
:103DF000986E128338B5044601F0D8FA054601F0F2
:103E0000D5FA401BA042FAD331BDFEE7704700004F
:103E100001F0D2BAD2B200F0F0B800F0E7B8FFF784
:103E20006AB800002DE9F84F00267A4A7A4BDFF88D
:103E3000EC814FF00F092EE0BD402C4343F82C409D
:103E40006FEA0A05946805EA040E4C68E40248BF6C
:103E50004AEA0E0EC2F808E0D46805EA040E4C687F
:103E6000A40248BF4AEA0E0EC2F80CE0546805EA04
:103E7000040E4C68A40348BF4AEA0E0EC2F804E0E0
:103E8000146805EA040C4C68E40348BF4AEA0C0CC9
:103E9000C2F800C0761C0D6835FA06F400F0A48064
:103EA000012707FA06F414EA050AF3D04FEA460C94
:103EB000032505FA0CF56FEA050E4D6805F00307BA
:103EC000012F1CBF05F00305022D0FD18568CF68B7
:103ED0000EEA050507FA0CF73D43856045684F6813
:103EE000C7F30017A543B7403D4345604D6805F053
:103EF0000307032F07D1C76AC5F3C00527EA0404E7
:103F0000B5402C43C4620C7904F00304032C1DD08B
:103F1000C4688D680EEA040405FA0CF52C43C460ED
:103F20000C7904F00304022C10D1F40800EB840493
:103F3000B500276A05F01C0509FA05FB27EA0B07FF
:103F4000D1F810B00BFA05F53D43256204680EEA7E
:103F500004050C7904F0030404FA0CF42C43046007
:103F60004C6814F4403F95D0D8F8004044F0010468
:103F7000C8F800404FEA960CD8F8004004F001045D
:103F80000094B500009C53F82C4005F00C0709FA8A
:103F900007F5AC43B0F1904F08BF00253FF44CAF9C
:103FA0001F4DA84208BF01253FF446AF1D4DA84252
:103FB00008BF02253FF440AF1B4DA84208BF0325B0
:103FC0003FF43AAF194DA84208BF04253FF434AF7F
:103FD000174DA84208BF05253FF42EAF154DA84246
:103FE0000CBF0625072527E7BDE8F18F00690840CB
:103FF000401E8041C043C00F70470AB181617047C5
:10400000816270470C4A136803421CBF1060FFF7BF
:1040100006BF7047000401400800014060100240E4
:104020000004004800080048000C00480010004848
:1040300000140048001800481404014080B501F045
:104040007BFABDE808400F480F496422FDF74ABAE1
:10405000F8B504460B4F0D461646384601F0E6FA11
:104060004FF0FF30009033462A462146384601F093
:1040700035FCF1BD0A4601464FF0FF33014801F01F
:1040800066BB0000B00A0020140B00204268C2F397
:104090000A5240F2FF739A4209D14168090304BFF2
:1040A0000068002801D10120704702207047436852
:1040B0005B0004BF0368002B25D040F233439A1AFB
:1040C000521A012A1FDB352A06DB416801F0004144
:1040D00041600021016013E0012102F01F039940BB
:1040E000491E920607D5426811404A404260026864
:1040F0001143002202E0026811404A40026011B1FF
:104100004FF0FF30704700207047000090420CD104
:1041100041EA030C50EA4C0C07D0994205D14FF408
:10412000001C1CEB410F38BF894270470148FDF766
:104130009FBF0000C000002080B52DED028B41EC38
:10414000180B53EC182B1A481A49FDF78FFC1A4A22
:104150001A4BFDF719FF53EC182BFDF787FC184A93
:10416000184BFDF711FF53EC182BFDF77FFC164A97
:10417000164BFDF709FF53EC182BFDF777FC144A9B
:10418000144BFDF701FF53EC182BFDF76FFC124A9F
:10419000124BFDF7F9FE53EC182BFDF767FCBDEC55
:1041A000028B0F4A0F4BBDE80050FDF7EDBE00003B
:1041B000F7DE29BFD8F8C23FF4B3FECC1A99C33F4B
:1041C00062CB68D96F46C73FC6C912DAC471CC3F0B
:1041D0004AE98A942449D23FF75F97999999D93F40
:1041E000BC5555555555E53F2DE9704C04462DED10
:1041F000088B94ED009B43EC182B51EC190B01F04C
:10420000D9FD064651EC180B01F0D4FD31000E9D8E
:1042100006D500284DD4022805D184ED008B42E15B
:10422000022EF8D121E050B951EC190B0022344B89
:10423000FFF76CFF0FD084ED008B002033E10128E5
:1042400018D151EC190B00222E4BFFF75FFF18BF5E
:1042500084ED008B51D1FFF769FF212101604FF000
:10426000FF306FF00041C4E90001BDEC088B022073
:10427000BDE8708C7EB984ED008B29462046FDF7A1
:1042800067FA040018BF012C40F00C81FFF74EFFC5
:104290002221016006E151EC190B0022184BFFF7B7
:1042A00035FF0DD151EC180BFDF7E0FBC4E900011F
:1042B00023E051EC190B0022134BFDF719FA0BD236
:1042C00051EC180B0023FDF7D1FBC4E90001BDEC54
:1042D000088B0020BDE8708C01220C4BFDF720FA02
:1042E00016D851EC180B0022054BFDF7BFFBC4E9B3
:1042F0000001FFF71BFF222101600120D3E000BF76
:104300000000F07F0000F0FF00C89CC000C89C4087
:104310003B4A3C4BFDF7AAFB00220023FDF7E8F9DE
:1043200034BF9FED390B9FED3A0B53EC102BFDF78B
:104330002BFEFDF797FA0646FDF7C0FA41EC1A0B83
:104340004FF07842344BFDF791FB02460B4651EC9F
:10435000190BFDF7CBFA82468B4653EC1A2B2F48EC
:104360002F49FDF783FB02460B4650465946FDF7A1
:10437000BDFA4FF0FF322B4BFDF7D2F941EC190B90
:1043800005D80022284BFDF7B3F9C0F07D8053EC2F
:10439000192BFDF76BFB41EC1A0B244A244BFDF75C
:1043A00065FB244A244BFDF7EFFD53EC1A2BFDF778
:1043B0005DFB41EC1B0B51EC1A0B204A204BFDF727
:1043C00055FB204A204BFDF7DFFD53EC1A2BFDF780
:1043D0004DFB00221D4BFDF7D7FD53EC192BFDF7CC
:1043E00045FB41EC190B51EC1B0B53EC192BFDF762
:1043F000CBFD9FED01AB2BE0000000000000F03F83
:10440000FE822B654715F73F000000000000E0BF6B
:10441000000000000000E03F422EE63FF2E4D5BC81
:10442000E7E84B3EFFFF8FBC0000903C112E578108
:10443000A03F503F5843128C8F71BC3F4BE8A541C1
:10444000B752013F0BBDF3DAE8708C3F0000E03F4C
:1044500053EC1A2BFDF798FD82468B4651EC1B0B53
:1044600053EC192BFDF742FA53EC1A2BFDF78CFD98
:1044700002460B4650465946FDF7CAFB53EC182B33
:10448000FDF7F4FA41EC180B84ED008BA9192046D6
:10449000FDF75EF9040018BF012C03D1FFF746FEBB
:1044A000222101602046BDEC088BBDE8708C000025
:1044B000401810F0030308D0C91A1FD3DB0748BF08
:1044C00000F8012D28BF20F8022D130030B4144647
:1044D0001546103928BF20E93C00FAD8490728BF03
:1044E00020E90C0048BF40F8042D890028BF20F8BF
:1044F000022D48BF00F8012D30BC7047C91818BF05
:1045000000F8012DCB0728BF00F8012D70470000EF
:10451000094810B5016841F480710160032000F082
:10452000DBFE002001F066FC0024002814BF0124FB
:1045300001F084FC204610BD0020024001F096BC32
:1045400001B54FF6FF7301226946104801F04BFD9B
:10455000009802BD38B50F4C0D4D228811000CD0CB
:10456000291D01F00EFE28B1012028700022AB6E3B
:10457000002198470020208031BD0120AB6E2870BB
:1045800001B0BDE83040002201211847C0090020D9
:10459000440A0020180C00202DE9F047040082B0E6
:1045A00000F0A380DFF81457A86800F00C09E86851
:1045B00000F003062078C00640F18680B9F1000FB4
:1045C00004D0B9F10C0F08BF012E59D1286880071B
:1045D00003D5A069002800F08880286800074FBF35
:1045E0002868DFF8E8064068000900F0F001206A5A
:1045F000814215D200F026FB002876D1286840F0D1
:10460000080028602868216A20F0F000084328602C
:104610006868E16920F47F4040EA0120686018E0A2
:10462000286840F0080028602868216A20F0F0001F
:1046300008432860B9F1000F6868E16920F47F4001
:1046400040EA0120686004D1206A00F0FBFA0028EB
:104650004BD100F097FAAA68DFF87416C2F3031280
:10466000895C01F01F01C840DFF854160860DFF8CC
:104670005406006801F0BEFB010025D0BDE8F687B6
:10468000A0690028286833D040F00100286000F0BD
:104690008DFE07462868800705D400F087FEC01B02
:1046A0000328F7D3C9E1286840F00800286028688B
:1046B000216A20F0F000084328606868E16920F46E
:1046C0007F4040EA012068602078C00753D5B9F1E7
:1046D000080F04D0B9F10C0F08BF032E17D12868BA
:1046E000800348D56068002845D10120BDE8F687E1
:1046F00040084000286000F059FE074628688007FF
:10470000E2D500F053FEC01B0328F7D395E16068A3
:10471000B0F5803F03D1286840F4803010E0B0F558
:10472000A02F286806D140F480202860286840F433
:10473000803005E020F480302860286820F4802054
:104740002860606858B100F031FE07462868800391
:1047500011D400F02BFEC01B6528F7D36DE100F0EB
:1047600025FE07462868800305D500F01FFEC01B04
:104770006528F7D361E12078800714D5B9F1040FDB
:1047800004D0B9F10C0F08BF022E24D128684005CF
:1047900002D5E0680028A8D06868216920F0F850A8
:1047A00040EA016068602078000745D56069DFF85D
:1047B0001C650028706830D040F00100706000F087
:1047C000F5FD07467068800736D400F0EFFDC01B8A
:1047D0000328F7D331E1E068002828680ED040F4C0
:1047E0008070286000F0E2FD074628684005D3D4B9
:1047F00000F0DCFDC01B0328F7D31EE120F480701D
:10480000286000F0D3FD074628684005CBD500F0AE
:10481000CDFDC01B0328F7D30FE1400840007060B6
:1048200000F0C4FD07467068800705D500F0BEFDA6
:10483000C01B0328F7D300E12078400763D5A86D9B
:10484000C0004FF000080AD4A86D40F08050A86561
:104850004FF00108A86D00F0805000900098DFF83C
:1048600074643068C0050FD4306840F480703060E4
:1048700000F09CFD07463068C00505D400F096FDA9
:10488000C01B0328F7D3D8E0A068DFF840640128F4
:1048900003D1306840F001000FE00528306806D1F0
:1048A00040F004003060306840F0010005E040084E
:1048B00040003060306820F004003060A06868B1CB
:1048C00000F074FD074641F2893A3068800713D43E
:1048D00000F06CFDC01B5045F7D3AEE000F066FD64
:1048E000074641F2893A3068800705D500F05EFD41
:1048F000C01B5045F7D3A0E0B8F1000F03D0A86D5E
:1049000020F08050A865A06A002800F09E80022850
:1049100040F08080E868E26A00F00301914201BF44
:1049200000F07001226B521EB1EB021F20D1626BAE
:1049300000F4FE41B1EB022F1AD1A16B07290CBF85
:104940000021012100F400328A4211D1E26B921E53
:10495000120500F4C001520DB1EB425F08D1216C89
:10496000891E090600F0C06001F07E4188423AD0FD
:10497000B9F10C0F3FF4B9AE286840013FF5B5AE70
:104980002868C0003FF5B1AE286820F0807028602C
:1049900000F00CFD07462868800105D500F006FDF3
:1049A000C01B0328F7D348E0E868DFF82C13084061
:1049B000E16A0843216B491E40EA0110616B40EA3D
:1049C0000120E16B891E0905490D40EA4150216C27
:1049D000891E090601F07E410843A16B090940EADE
:1049E0004140E86002E0286880012ED4286840F049
:1049F00080702860E86840F08070E86000F0D6FCC5
:104A000007462868800120D400F0D0FCC01B032892
:104A1000F7D312E0B9F10C0F3FF467AE286820F02D
:104A20008070286000F0C2FC07462868800107D526
:104A300000F0BCFCC01B0328F7D30320BDE8F687B9
:104A4000E868DFF898120840E8600020BDE8F687C3
:104A50002DE9F843040088466CD0DFF884623068A2
:104A600000F00700404509D23068C00848EAC0009D
:104A70003060306800F0070040455BD12078DFF8F7
:104A80003C7280070AD5A068B96801F0F001814244
:104A900004D2B96821F0F0010843B8602078C0075B
:104AA0002BD56068032802D13968890108E0022803
:104AB00002D13968890303E00028396802D18907E7
:104AC00002D437E0490535D5B968890840EA810044
:104AD000B86041F2893900F069FC0546B868616840
:104AE00000F00C00B0EB810F07D000F05FFC401B22
:104AF0004845F3D30320BDE8F283207880070AD528
:104B0000A068B96801F0F001884204D2B96821F0C8
:104B1000F0010843B860306800F0070080450CD20F
:104B20003068C00848EAC0003060306800F0070014
:104B3000404502D00120BDE8F2832078400705D52A
:104B4000B868E16820F4E0600843B86020780007A6
:104B500006D5B868216920F4605040EAC100B86009
:104B600000F010F8BA685A49C2F30312895C01F0E8
:104B70001F01C84052490860BDE8F243514800682F
:104B800001F038B910B44D498B68CC680022002080
:104B900013F00C0304F0030403D00C2B13D1012CED
:104BA0001CD10A68120704D4474A1268C2F30322D0
:104BB00002E00A68C2F303124B4C54F822205BB99E
:104BC00010BC10467047042B08BF484821D0082B62
:104BD0001FD110BC464870470C2B1AD1C86800F092
:104BE0000300022803D0032808BF414A00E03F4ADF
:104BF000C868CB68C968C3F30623C0F30210C1F3C9
:104C000041615A43401C491CB2FBF0F04900B0FB23
:104C1000F1F010BC70472A48006870472848314AB4
:104C2000006812683349C2F3022206E024482D4A84
:104C3000006812682F49C2F3C222895C01F01F018B
:104C4000C840704770B52C4E82B0054630680024CD
:104C5000C00002D500F000FB0EE0306840F080504C
:104C60003060306800F080500090009800F0F4FA56
:104C7000316821F080513160B0F5007F04D1812D81
:104C80000DD3A12D0AD305E0812D28BF032406D220
:104C9000802D01D1022402E0702D00D101241048A2
:104CA0000168C90844EAC1010160006800F007001A
:104CB000A04201D0012076BD002076BD0010024048
:104CC0007C000020680000209410024090100240F8
:104CD00028700008007000408C809DF9FCFFEEFEFB
:104CE0000020024008100240387000080024F40040
:104CF00000127A0008720008581002402DE9F047AF
:104D0000044682B02068DFF8405400260005B14612
:104D100025D5606E70B1B0F5800F18D0B0F5000FDA
:104D200003D0B0F5400F0AD017E0286840F4803077
:104D3000286005E00021201D00F081F906466EB9CB
:104D4000E86F616E20F440000843E86707E0002147
:104D500004F1200000F0FCF9F0E70126B1462068DC
:104D6000C00425D5A06EA8B1B0F1807F18D0B0F1F5
:104D7000007F03D0B0F1407F04D017E0286840F4F2
:104D8000803028609EB9E86FA16E20F04070084323
:104D9000E8670DE00021201D00F051F90646F1E71B
:104DA000002104F1200000F0D3F9F7E70126B14615
:104DB000206880032AD5E86C0027C00009D4E86C7D
:104DC00040F08050E8640127E86C00F080500090CB
:104DD0000098DFF878A3DAF8000040F48070CAF891
:104DE000000000F0E3FA8046DAF80000C00500F1A8
:104DF000828000F0DBFAA0EB08000328F4D303263E
:104E0000B1461FB1E86C20F08050E8642078C007FC
:104E100005D5E86FA16B800841EA8000E86720783B
:104E2000800705D5E86FE16B20F00C000843E867C8
:104E30002078400705D5E86F216C20F0300008434A
:104E4000E8672078000705D5E86F616C20F0C000A6
:104E50000843E8672078C00605D5E86FA16C20F408
:104E600040700843E8672078800605D5E86FE16C5C
:104E700020F440600843E8672068800505D5E86FA6
:104E8000E16D20F440200843E8672068400505D51F
:104E9000E86F216E20F440100843E8672078400650
:104EA00005D5E86F216D20F440500843E86720786D
:104EB000000605D5E86F616D20F440400843E867BF
:104EC0002068C00505D5E86FA16D20F44030084387
:104ED000E867206880044AD5E86FE16E20F0406002
:104EE0000843E867E06EB0F1006F37D1286840F4FE
:104EF000801028603BE0002E82D1DFF848633068E4
:104F000010F440701CBFD4F8841088420BD0306875
:104F1000316841F48031316020F44070316821F40F
:104F2000803131603060C00710D500F03FFA804614
:104F300041F2893A3068800708D400F037FAA0EBD4
:104F400008005045F6D34FF003095AE73068D4F80B
:104F5000841020F440700843306052E7B0F1806F55
:104F600005D10121201D00F06AF800B181462068BA
:104F7000000317D5E86F216F20F040600843E86711
:104F8000206FB0F1006F04D1286840F480102860D1
:104F900008E0B0F1806F05D10121201D00F04FF82D
:104FA00000B181462068400317D5E86F616F20F09B
:104FB00040600843E867606FB0F1006F04D1286873
:104FC00040F48010286008E0B0F1806F05D1012125
:104FD000201D00F034F800B181462068400418D547
:104FE000E86FA16F20F040500843E867A06FB0F170
:104FF000805F04D10221201D00F021F807E0B0F10C
:10500000005F06D1022104F1200000F0A1F800B1F8
:1050100081462068000405D5E86FE16F20F08040EC
:105020000843E8672068C00306D5E86FD4F880100D
:1050300020F000400843E8674846BDE8F6872DE9C0
:10504000F0410446804F20680D46F968002611F0B3
:10505000030F0DD0F96801F00301814236D1A8B3E6
:10506000F8686168C0F30210401C884213D02DE03C
:10507000012804D02AD3032822D01DD326E0396882
:10508000890723D5F96821F0730108436168491E37
:1050900040EA0110F860386820F08060386000F065
:1050A00085F980463868000112D500F07FF9A0EB41
:1050B00008000328F6D33FE039684905E2D405E04B
:1050C00039688903DED439684903DBD4012639E025
:1050D000A0684DB939695D4A114041EA0020E16894
:1050E000090940EA414017E0012D39690AD1584ABF
:1050F000114041EA00202169891E0905490D40EA55
:10510000415009E0534A114041EA00206169891E7B
:10511000090601F07E4108433861386840F080603C
:10512000386000F043F905463868000106D400F005
:105130003DF9401B0328F7D3032603E03869A16932
:10514000084338617AE000000C1002400070004013
:105150002DE9F04104463C4F20688846F968002656
:1051600011F0030F0DD0F96801F00301814235D130
:10517000A0B3F8686168C0F30210401C884213D0E5
:105180002CE0012804D029D3032821D01CD325E00A
:105190003968890722D5F96821F0730108436168ED
:1051A000491E40EA0110F860386820F080503860ED
:1051B00000F0FCF805463868800011D500F0F6F8DC
:1051C000401B0328F7D333E039684905E3D405E0F1
:1051D00039688903DFD439684903DCD401262DE01E
:1051E000A0687969B8F1000F08D1184A114041EA66
:1051F0000020E168090940EA414009E0154A1140F0
:1052000041EA00202169891E090601F07E41084318
:105210007861386840F08050386000F0C7F8054683
:105220003868800006D400F0C1F8401B0328F7D38B
:10523000032603E078696169084378613046BDE878
:10524000F08100009010024000100240FF80FDFF3E
:10525000FF809FFFFF80FFF9DFF87000006800F417
:10526000C0607047DFF86410B0F5007F086800F494
:10527000C0601FD1B0F5007F25D00868DFF850303E
:1052800020F4C06040F4007008603222DFF844006F
:1052900000685043A0FB0332D00C401C00E0401ECD
:1052A0004A69520501D50028F9D1486940050AD557
:1052B00003207047B0F5806F05D0086820F4C06007
:1052C00040F48060086000207047000000700040DB
:1052D00006BD37867C0000202D490A684FF6FF0383
:1052E00000021A4000F4E06010432A4A10430860AC
:1052F000704730B4264B1B68C3F30223C3F1070485
:10530000052C28BF04241D1D072D34BF0023DB1EE0
:10531000012505FA04F4641E2140994005FA03F3BF
:105320005B1E1A4011430901020003D41A4881543C
:1053300030BC7047194802F00F02104400F8041CFA
:1053400030BC7047002807D4012100F01F029140B3
:10535000134A400942F820107047401EB0F1807F88
:1053600001D3012070470F490F4A4860F0201070A8
:105370000020886007200860002070470949042841
:1053800008680CBF40F0040020F00400086070477B
:105390000CED00E00000FA0500E400E018ED00E08C
:1053A00000E100E010E000E023ED00E0014840688B
:1053B000704700BF6000002030B587B001A8002111
:1053C000002200230EC006C05648574D016841F028
:1053D0000401016040F20114016801F00401009130
:1053E0000099016841F080010160016801F08001CD
:1053F00000910099016841F001010160016801F02C
:10540000010100910099016841F002010160016809
:1054100001F0020100910099016841F0080101606A
:105420002146006800F00800009000984FF090407E
:10543000FEF7E3FD4FF40050019001A94FF4041072
:105440000290002003902846FEF7ECFC0320019018
:10545000029001A9002003903448FEF7E3FC41F6D6
:10546000FF70019001A903200290002003902846BC
:10547000FEF7D8FC012002900194002003900490D4
:1054800001A94FF09040FEF7CDFC49F612000190C3
:1054900001A903200290002003904FF09040FEF7F6
:1054A000C1FC4FF6E74001900320029000200390DA
:1054B00001A91F4C2046FEF7B5FC4FF40070019087
:1054C00001A90020029003904FF09040FEF7AAFC43
:1054D0004FF48060019001A94FF4881002900020E1
:1054E00003904FF09040FEF79DFC0420019001A92D
:1054F00003200290002003900E48FEF793FC182032
:10550000019001A90020029003902046FEF78AFC3A
:10551000002200212820FFF7ECFE2820FFF712FFD1
:1055200007B030BD4C10024000080048001C004885
:1055300000040048000C004880B52B482B4901604E
:105540004FF482714160002181604FF4E061C160DD
:105550000021016141614FF4007181613021C1611D
:1055600000210162416281620721C1620021016361
:10557000416300F07FF830B1BDE8044038210FF2FC
:105580007400FEF742BC01BD10B586B001A900222F
:10559000002300241CC10CC100681449884220D19A
:1055A0001348416941F480514161416901F48051DE
:1055B00000910099016841F00101016001A90068B2
:1055C00000F00100009000980392E020019002207A
:1055D000029003200490052005904FF09040FEF7C4
:1055E00021FC06B010BD0000140B0020003001406B
:1055F0004C100240453A5C7378313238305C535875
:10560000313238305F44656D6F4170705F56315F85
:10561000305C5358313238305F44656D6F41707083
:105620005C5372635C7370692E63000081B0006824
:10563000816811F4C06F1AD0C16800910099816827
:1056400011F4C06F13D0C16800910099816811F402
:10565000C06F0CD0C16800910099816811F4C06FCF
:1056600005D0C06800900098032001B0704700206A
:1056700001B0704738B5040001D1012032BD606A25
:1056800030B96068B0F5827F05D00020E06102E0AB
:105690000020206160610020A06204F15C05687850
:1056A00018B928702046FFF76FFF02206870206845
:1056B000016821F040010160E168B1F5E06F04D9B3
:1056C0000020B1F5706F03D104E04FF4805001D099
:1056D0000021A1626168A26801F4827102F40442AF
:1056E0001143227C02F002021143227D02F00102EA
:1056F0001143A26902F400721143227F02F03802C2
:10570000114394F8202002F080021143A26A02F4AF
:105710000052114322681160A16994F82420090CF9
:1057200001F0040102F01002114394F8342002F059
:1057300008021143E26802F47062114308432168D1
:1057400048600020686001206870002032BD2DE9AB
:10575000F047064606F1440582B0287E0024012861
:10576000894617469A4608BF022000F0B5800120FE
:105770002876FFF71BFE697E0129804618BF0224A8
:1057800040F0A580B9F1000F18BF002F00F09E80F7
:1057900003216976EC61C6F83890B787F7873464DF
:1057A0002C806C80EC60AC60B168B1F5004F09D121
:1057B00031680A6822F040020A6031680A6842F4DF
:1057C00080420A6031680A68520603D40A6842F0CF
:1057D00040020A60F2687168B2F5E06F26D90029CC
:1057E00018BF012F0DD1B06B31680088C86002E08E
:1057F000B16B0988C160B06B801CB063F08F401E34
:10580000F087F08F00284ED0306881688907EFD488
:10581000FFF7CCFDA0EB0800504503D31AF1010FB0
:10582000EFD03EE0BAF1000FEBD13AE0002918BF0B
:10583000012F17D1B06B3168F28F022A02D3008892
:10584000C86009E000780873B06B401CB063F08F4B
:10585000401E06E00988C160B06B801CB063F08F09
:10586000801EF087F08FF0B13068816889070BD512
:10587000B16BF28F022AEDD209780173B06B401C34
:10588000B063F08F401EECE7FFF790FDA0EB08003F
:10589000504503D31AF1010FE4D002E0BAF1000F32
:1058A000E0D1032413E042465146304600F002FAAC
:1058B00008B12020E861B06830B900903068C16854
:1058C0000091806800900098E86900B101240120EF
:1058D0006876002028762046BDE8F6872DE9F84F47
:1058E000044604F144060025307E0128884691468E
:1058F0001F464FF0010B08BF022000F00E8186F812
:1059000018B0FFF753FD727E012A824609D0636802
:10591000B3F5827F02BFA368002B042A01D00225C1
:10592000F6E0B8F1000F18BFB9F1000F00D00FB9C1
:105930000125EDE0727E042A1CBF05227276F56116
:10594000C4F8409077803780C4F83880E787A7870D
:10595000B560F56040F20172E368934238BF022FF0
:1059600004D321684B6823F4805303E021684B681B
:1059700043F480534B6021680B685B0603D40B68CB
:1059800043F040030B60E3686168DDF828809342D0
:1059900043D3002918BF012F09D1A06B21680088CB
:1059A000C860A06B801CA063E08F401EE087E08F82
:1059B000002804BF7088002800F0A180206881685A
:1059C00089070FD5E18F002918BFBBF1000F09D05F
:1059D000A16B0988C160AB46A06B801CA063E08FFF
:1059E000401EE08720688168C9070CD5718851B1D5
:1059F000C068216C08804FF0010B206C801C206473
:105A00007088401E7080FFF7D1FCA0EB0A00404573
:105A1000CDD318F1010FCAD06FE0002918BF012FB4
:105A200014D1A06B2168E28F022A07D30088C860D6
:105A3000A06B801CA063E08F801E06E000780873D6
:105A4000A06B401CA063E08F401EE087E08F002821
:105A500004BF7088002852D02068816889071AD551
:105A6000E18F002918BFBBF1000F14D0A16BE28FAA
:105A7000022A07D30988C160A06B801CA063E08F55
:105A8000801E06E009780173A06B401CA063E08FC4
:105A9000401EE087AB4620688168C90720D5718821
:105AA000F1B1216C7288022A10D3C0680880206C82
:105AB000801C20647088801E7080708802280DD23F
:105AC0002068416841F48051416007E0007B087024
:105AD000206C401C20647088401E70804FF0010BC9
